{
  "_format": "hh-sol-artifact-1",
  "contractName": "NFTMarketplace",
  "sourceName": "contracts/NFTMarketplace.sol",
  "abi": [
    {
      "inputs": [],
      "stateMutability": "nonpayable",
      "type": "constructor"
    },
    {
      "anonymous": false,
      "inputs": [
        {
          "indexed": true,
          "internalType": "address",
          "name": "owner",
          "type": "address"
        },
        {
          "indexed": true,
          "internalType": "address",
          "name": "approved",
          "type": "address"
        },
        {
          "indexed": true,
          "internalType": "uint256",
          "name": "tokenId",
          "type": "uint256"
        }
      ],
      "name": "Approval",
      "type": "event"
    },
    {
      "anonymous": false,
      "inputs": [
        {
          "indexed": true,
          "internalType": "address",
          "name": "owner",
          "type": "address"
        },
        {
          "indexed": true,
          "internalType": "address",
          "name": "operator",
          "type": "address"
        },
        {
          "indexed": false,
          "internalType": "bool",
          "name": "approved",
          "type": "bool"
        }
      ],
      "name": "ApprovalForAll",
      "type": "event"
    },
    {
      "anonymous": false,
      "inputs": [
        {
          "indexed": true,
          "internalType": "uint256",
          "name": "tokenId",
          "type": "uint256"
        },
        {
          "indexed": false,
          "internalType": "address",
          "name": "seller",
          "type": "address"
        },
        {
          "indexed": false,
          "internalType": "address",
          "name": "owner",
          "type": "address"
        },
        {
          "indexed": false,
          "internalType": "uint256",
          "name": "price",
          "type": "uint256"
        },
        {
          "indexed": false,
          "internalType": "bool",
          "name": "sold",
          "type": "bool"
        }
      ],
      "name": "MarketItemCreated",
      "type": "event"
    },
    {
      "anonymous": false,
      "inputs": [
        {
          "indexed": true,
          "internalType": "address",
          "name": "from",
          "type": "address"
        },
        {
          "indexed": true,
          "internalType": "address",
          "name": "to",
          "type": "address"
        },
        {
          "indexed": true,
          "internalType": "uint256",
          "name": "tokenId",
          "type": "uint256"
        }
      ],
      "name": "Transfer",
      "type": "event"
    },
    {
      "inputs": [
        {
          "internalType": "address",
          "name": "to",
          "type": "address"
        },
        {
          "internalType": "uint256",
          "name": "tokenId",
          "type": "uint256"
        }
      ],
      "name": "approve",
      "outputs": [],
      "stateMutability": "nonpayable",
      "type": "function"
    },
    {
      "inputs": [
        {
          "internalType": "address",
          "name": "owner",
          "type": "address"
        }
      ],
      "name": "balanceOf",
      "outputs": [
        {
          "internalType": "uint256",
          "name": "",
          "type": "uint256"
        }
      ],
      "stateMutability": "view",
      "type": "function"
    },
    {
      "inputs": [
        {
          "internalType": "uint256",
          "name": "tokenId",
          "type": "uint256"
        }
      ],
      "name": "burn",
      "outputs": [],
      "stateMutability": "nonpayable",
      "type": "function"
    },
    {
      "inputs": [
        {
          "internalType": "uint256",
          "name": "currentDate",
          "type": "uint256"
        }
      ],
      "name": "burnNFT",
      "outputs": [],
      "stateMutability": "nonpayable",
      "type": "function"
    },
    {
      "inputs": [
        {
          "internalType": "uint256",
          "name": "tokenId",
          "type": "uint256"
        }
      ],
      "name": "createMarketSale",
      "outputs": [],
      "stateMutability": "payable",
      "type": "function"
    },
    {
      "inputs": [
        {
          "internalType": "uint256",
          "name": "price",
          "type": "uint256"
        },
        {
          "internalType": "uint256",
          "name": "date",
          "type": "uint256"
        }
      ],
      "name": "createToken",
      "outputs": [
        {
          "internalType": "uint256",
          "name": "",
          "type": "uint256"
        }
      ],
      "stateMutability": "payable",
      "type": "function"
    },
    {
      "inputs": [],
      "name": "fetchItemsListed",
      "outputs": [
        {
          "components": [
            {
              "internalType": "uint256",
              "name": "tokenId",
              "type": "uint256"
            },
            {
              "internalType": "address payable",
              "name": "seller",
              "type": "address"
            },
            {
              "internalType": "address payable",
              "name": "owner",
              "type": "address"
            },
            {
              "internalType": "uint256",
              "name": "price",
              "type": "uint256"
            },
            {
              "internalType": "bool",
              "name": "sold",
              "type": "bool"
            },
            {
              "internalType": "bool",
              "name": "burn",
              "type": "bool"
            },
            {
              "internalType": "uint256",
              "name": "date",
              "type": "uint256"
            }
          ],
          "internalType": "struct NFTMarketplace.MarketItem[]",
          "name": "",
          "type": "tuple[]"
        }
      ],
      "stateMutability": "view",
      "type": "function"
    },
    {
      "inputs": [],
      "name": "fetchMarketItems",
      "outputs": [
        {
          "components": [
            {
              "internalType": "uint256",
              "name": "tokenId",
              "type": "uint256"
            },
            {
              "internalType": "address payable",
              "name": "seller",
              "type": "address"
            },
            {
              "internalType": "address payable",
              "name": "owner",
              "type": "address"
            },
            {
              "internalType": "uint256",
              "name": "price",
              "type": "uint256"
            },
            {
              "internalType": "bool",
              "name": "sold",
              "type": "bool"
            },
            {
              "internalType": "bool",
              "name": "burn",
              "type": "bool"
            },
            {
              "internalType": "uint256",
              "name": "date",
              "type": "uint256"
            }
          ],
          "internalType": "struct NFTMarketplace.MarketItem[]",
          "name": "",
          "type": "tuple[]"
        }
      ],
      "stateMutability": "view",
      "type": "function"
    },
    {
      "inputs": [],
      "name": "fetchMyNFTs",
      "outputs": [
        {
          "components": [
            {
              "internalType": "uint256",
              "name": "tokenId",
              "type": "uint256"
            },
            {
              "internalType": "address payable",
              "name": "seller",
              "type": "address"
            },
            {
              "internalType": "address payable",
              "name": "owner",
              "type": "address"
            },
            {
              "internalType": "uint256",
              "name": "price",
              "type": "uint256"
            },
            {
              "internalType": "bool",
              "name": "sold",
              "type": "bool"
            },
            {
              "internalType": "bool",
              "name": "burn",
              "type": "bool"
            },
            {
              "internalType": "uint256",
              "name": "date",
              "type": "uint256"
            }
          ],
          "internalType": "struct NFTMarketplace.MarketItem[]",
          "name": "",
          "type": "tuple[]"
        }
      ],
      "stateMutability": "view",
      "type": "function"
    },
    {
      "inputs": [
        {
          "internalType": "uint256",
          "name": "tokenId",
          "type": "uint256"
        }
      ],
      "name": "getApproved",
      "outputs": [
        {
          "internalType": "address",
          "name": "",
          "type": "address"
        }
      ],
      "stateMutability": "view",
      "type": "function"
    },
    {
      "inputs": [],
      "name": "getListingPrice",
      "outputs": [
        {
          "internalType": "uint256",
          "name": "",
          "type": "uint256"
        }
      ],
      "stateMutability": "view",
      "type": "function"
    },
    {
      "inputs": [
        {
          "internalType": "address",
          "name": "owner",
          "type": "address"
        },
        {
          "internalType": "address",
          "name": "operator",
          "type": "address"
        }
      ],
      "name": "isApprovedForAll",
      "outputs": [
        {
          "internalType": "bool",
          "name": "",
          "type": "bool"
        }
      ],
      "stateMutability": "view",
      "type": "function"
    },
    {
      "inputs": [],
      "name": "name",
      "outputs": [
        {
          "internalType": "string",
          "name": "",
          "type": "string"
        }
      ],
      "stateMutability": "view",
      "type": "function"
    },
    {
      "inputs": [
        {
          "internalType": "uint256",
          "name": "tokenId",
          "type": "uint256"
        }
      ],
      "name": "ownerOf",
      "outputs": [
        {
          "internalType": "address",
          "name": "",
          "type": "address"
        }
      ],
      "stateMutability": "view",
      "type": "function"
    },
    {
      "inputs": [
        {
          "internalType": "uint256",
          "name": "tokenId",
          "type": "uint256"
        }
      ],
      "name": "print",
      "outputs": [],
      "stateMutability": "view",
      "type": "function"
    },
    {
      "inputs": [
        {
          "internalType": "uint256",
          "name": "tokenId",
          "type": "uint256"
        },
        {
          "internalType": "uint256",
          "name": "price",
          "type": "uint256"
        }
      ],
      "name": "resellToken",
      "outputs": [],
      "stateMutability": "payable",
      "type": "function"
    },
    {
      "inputs": [
        {
          "internalType": "address",
          "name": "from",
          "type": "address"
        },
        {
          "internalType": "address",
          "name": "to",
          "type": "address"
        },
        {
          "internalType": "uint256",
          "name": "tokenId",
          "type": "uint256"
        }
      ],
      "name": "safeTransferFrom",
      "outputs": [],
      "stateMutability": "nonpayable",
      "type": "function"
    },
    {
      "inputs": [
        {
          "internalType": "address",
          "name": "from",
          "type": "address"
        },
        {
          "internalType": "address",
          "name": "to",
          "type": "address"
        },
        {
          "internalType": "uint256",
          "name": "tokenId",
          "type": "uint256"
        },
        {
          "internalType": "bytes",
          "name": "data",
          "type": "bytes"
        }
      ],
      "name": "safeTransferFrom",
      "outputs": [],
      "stateMutability": "nonpayable",
      "type": "function"
    },
    {
      "inputs": [
        {
          "internalType": "address",
          "name": "operator",
          "type": "address"
        },
        {
          "internalType": "bool",
          "name": "approved",
          "type": "bool"
        }
      ],
      "name": "setApprovalForAll",
      "outputs": [],
      "stateMutability": "nonpayable",
      "type": "function"
    },
    {
      "inputs": [
        {
          "internalType": "bytes4",
          "name": "interfaceId",
          "type": "bytes4"
        }
      ],
      "name": "supportsInterface",
      "outputs": [
        {
          "internalType": "bool",
          "name": "",
          "type": "bool"
        }
      ],
      "stateMutability": "view",
      "type": "function"
    },
    {
      "inputs": [],
      "name": "symbol",
      "outputs": [
        {
          "internalType": "string",
          "name": "",
          "type": "string"
        }
      ],
      "stateMutability": "view",
      "type": "function"
    },
    {
      "inputs": [
        {
          "internalType": "uint256",
          "name": "tokenId",
          "type": "uint256"
        }
      ],
      "name": "tokenURI",
      "outputs": [
        {
          "internalType": "string",
          "name": "",
          "type": "string"
        }
      ],
      "stateMutability": "view",
      "type": "function"
    },
    {
      "inputs": [
        {
          "internalType": "address",
          "name": "from",
          "type": "address"
        },
        {
          "internalType": "address",
          "name": "to",
          "type": "address"
        },
        {
          "internalType": "uint256",
          "name": "tokenId",
          "type": "uint256"
        }
      ],
      "name": "transferFrom",
      "outputs": [],
      "stateMutability": "nonpayable",
      "type": "function"
    },
    {
      "inputs": [
        {
          "internalType": "uint256",
          "name": "_listingPrice",
          "type": "uint256"
        }
      ],
      "name": "updateListingPrice",
      "outputs": [],
      "stateMutability": "payable",
      "type": "function"
    }
  ],
  "bytecode": "0x60806040526658d15e176280006008553480156200001c57600080fd5b506040518060400160405280601081526020017f4d657461766572736520546f6b656e73000000000000000000000000000000008152506040518060400160405280600481526020017f4d455454000000000000000000000000000000000000000000000000000000008152508160009080519060200190620000a192919062000104565b508060019080519060200190620000ba92919062000104565b50505033600960006101000a81548173ffffffffffffffffffffffffffffffffffffffff021916908373ffffffffffffffffffffffffffffffffffffffff16021790555062000219565b8280546200011290620001b4565b90600052602060002090601f01602090048101928262000136576000855562000182565b82601f106200015157805160ff191683800117855562000182565b8280016001018555821562000182579182015b828111156200018157825182559160200191906001019062000164565b5b50905062000191919062000195565b5090565b5b80821115620001b057600081600090555060010162000196565b5090565b60006002820490506001821680620001cd57607f821691505b60208210811415620001e457620001e3620001ea565b5b50919050565b7f4e487b7100000000000000000000000000000000000000000000000000000000600052602260045260246000fd5b6147dd80620002296000396000f3fe60806040526004361061014b5760003560e01c806345f8fa80116100b6578063ae677aa31161006f578063ae677aa314610495578063b88d4fde146104b1578063be9af536146104da578063c87b56dd146104f6578063e219fc7514610533578063e985e9c51461054f5761014b565b806345f8fa80146103735780636352211e1461039e5780636bb0ae10146103db57806370a082311461040457806395d89b4114610441578063a22cb4651461046c5761014b565b8063202e374011610108578063202e37401461027457806323b872dd1461029f5780632890e0d7146102c85780632a805069146102f157806342842e0e1461032157806342966c681461034a5761014b565b806301ffc9a71461015057806306fdde031461018d578063081812fc146101b8578063095ea7b3146101f55780630f08efe01461021e57806312e8558514610249575b600080fd5b34801561015c57600080fd5b506101776004803603810190610172919061361c565b61058c565b6040516101849190613c19565b60405180910390f35b34801561019957600080fd5b506101a261066e565b6040516101af9190613c6b565b60405180910390f35b3480156101c457600080fd5b506101df60048036038101906101da919061366e565b610700565b6040516101ec9190613b4b565b60405180910390f35b34801561020157600080fd5b5061021c600480360381019061021791906135e0565b610746565b005b34801561022a57600080fd5b5061023361085e565b6040516102409190613bf7565b60405180910390f35b34801561025557600080fd5b5061025e610b38565b60405161026b9190613ead565b60405180910390f35b34801561028057600080fd5b50610289610b42565b6040516102969190613bf7565b60405180910390f35b3480156102ab57600080fd5b506102c660048036038101906102c191906134da565b610ea1565b005b3480156102d457600080fd5b506102ef60048036038101906102ea919061366e565b610f01565b005b61030b60048036038101906103069190613697565b6112fd565b6040516103189190613ead565b60405180910390f35b34801561032d57600080fd5b50610348600480360381019061034391906134da565b61137d565b005b34801561035657600080fd5b50610371600480360381019061036c919061366e565b61139d565b005b34801561037f57600080fd5b506103886113f9565b6040516103959190613bf7565b60405180910390f35b3480156103aa57600080fd5b506103c560048036038101906103c0919061366e565b611796565b6040516103d29190613b4b565b60405180910390f35b3480156103e757600080fd5b5061040260048036038101906103fd919061366e565b611848565b005b34801561041057600080fd5b5061042b60048036038101906104269190613475565b61189a565b6040516104389190613ead565b60405180910390f35b34801561044d57600080fd5b50610456611952565b6040516104639190613c6b565b60405180910390f35b34801561047857600080fd5b50610493600480360381019061048e91906135a4565b6119e4565b005b6104af60048036038101906104aa919061366e565b6119fa565b005b3480156104bd57600080fd5b506104d860048036038101906104d39190613529565b611a94565b005b6104f460048036038101906104ef919061366e565b611af6565b005b34801561050257600080fd5b5061051d6004803603810190610518919061366e565b611d34565b60405161052a9190613c6b565b60405180910390f35b61054d60048036038101906105489190613697565b611d9c565b005b34801561055b57600080fd5b506105766004803603810190610571919061349e565b611f91565b6040516105839190613c19565b60405180910390f35b60007f80ac58cd000000000000000000000000000000000000000000000000000000007bffffffffffffffffffffffffffffffffffffffffffffffffffffffff1916827bffffffffffffffffffffffffffffffffffffffffffffffffffffffff1916148061065757507f5b5e139f000000000000000000000000000000000000000000000000000000007bffffffffffffffffffffffffffffffffffffffffffffffffffffffff1916827bffffffffffffffffffffffffffffffffffffffffffffffffffffffff1916145b80610667575061066682612025565b5b9050919050565b60606000805461067d90614146565b80601f01602080910402602001604051908101604052809291908181526020018280546106a990614146565b80156106f65780601f106106cb576101008083540402835291602001916106f6565b820191906000526020600020905b8154815290600101906020018083116106d957829003601f168201915b5050505050905090565b600061070b8261208f565b6004600083815260200190815260200160002060009054906101000a900473ffffffffffffffffffffffffffffffffffffffff169050919050565b600061075182611796565b90508073ffffffffffffffffffffffffffffffffffffffff168373ffffffffffffffffffffffffffffffffffffffff1614156107c2576040517f08c379a00000000000000000000000000000000000000000000000000000000081526004016107b990613e0d565b60405180910390fd5b8073ffffffffffffffffffffffffffffffffffffffff166107e16120da565b73ffffffffffffffffffffffffffffffffffffffff161480610810575061080f8161080a6120da565b611f91565b5b61084f576040517f08c379a000000000000000000000000000000000000000000000000000000000815260040161084690613d8d565b60405180910390fd5b61085983836120e2565b505050565b6060600061086c600661219b565b9050600061087a600761219b565b610884600661219b565b61088e919061404a565b90506000808267ffffffffffffffff8111156108d3577f4e487b7100000000000000000000000000000000000000000000000000000000600052604160045260246000fd5b60405190808252806020026020018201604052801561090c57816020015b6108f9613337565b8152602001906001900390816108f15790505b50905060005b84811015610b2d573073ffffffffffffffffffffffffffffffffffffffff16600a60006001846109429190613fc3565b815260200190815260200160002060020160009054906101000a900473ffffffffffffffffffffffffffffffffffffffff1673ffffffffffffffffffffffffffffffffffffffff161415610b1a57600060018261099f9190613fc3565b90506000600a60008381526020019081526020016000209050806040518060e0016040529081600082015481526020016001820160009054906101000a900473ffffffffffffffffffffffffffffffffffffffff1673ffffffffffffffffffffffffffffffffffffffff1673ffffffffffffffffffffffffffffffffffffffff1681526020016002820160009054906101000a900473ffffffffffffffffffffffffffffffffffffffff1673ffffffffffffffffffffffffffffffffffffffff1673ffffffffffffffffffffffffffffffffffffffff168152602001600382015481526020016004820160009054906101000a900460ff161515151581526020016004820160019054906101000a900460ff16151515158152602001600582015481525050848681518110610afd577f4e487b7100000000000000000000000000000000000000000000000000000000600052603260045260246000fd5b6020026020010181905250600185610b159190613fc3565b945050505b8080610b25906141a9565b915050610912565b508094505050505090565b6000600854905090565b60606000610b50600661219b565b905060008060005b83811015610bf9573373ffffffffffffffffffffffffffffffffffffffff16600a6000600184610b889190613fc3565b815260200190815260200160002060020160009054906101000a900473ffffffffffffffffffffffffffffffffffffffff1673ffffffffffffffffffffffffffffffffffffffff161415610be657600183610be39190613fc3565b92505b8080610bf1906141a9565b915050610b58565b5060008267ffffffffffffffff811115610c3c577f4e487b7100000000000000000000000000000000000000000000000000000000600052604160045260246000fd5b604051908082528060200260200182016040528015610c7557816020015b610c62613337565b815260200190600190039081610c5a5790505b50905060005b84811015610e96573373ffffffffffffffffffffffffffffffffffffffff16600a6000600184610cab9190613fc3565b815260200190815260200160002060020160009054906101000a900473ffffffffffffffffffffffffffffffffffffffff1673ffffffffffffffffffffffffffffffffffffffff161415610e83576000600182610d089190613fc3565b90506000600a60008381526020019081526020016000209050806040518060e0016040529081600082015481526020016001820160009054906101000a900473ffffffffffffffffffffffffffffffffffffffff1673ffffffffffffffffffffffffffffffffffffffff1673ffffffffffffffffffffffffffffffffffffffff1681526020016002820160009054906101000a900473ffffffffffffffffffffffffffffffffffffffff1673ffffffffffffffffffffffffffffffffffffffff1673ffffffffffffffffffffffffffffffffffffffff168152602001600382015481526020016004820160009054906101000a900460ff161515151581526020016004820160019054906101000a900460ff16151515158152602001600582015481525050848681518110610e66577f4e487b7100000000000000000000000000000000000000000000000000000000600052603260045260246000fd5b6020026020010181905250600185610e7e9190613fc3565b945050505b8080610e8e906141a9565b915050610c7b565b508094505050505090565b610eb2610eac6120da565b826121a9565b610ef1576040517f08c379a0000000000000000000000000000000000000000000000000000000008152600401610ee890613e6d565b60405180910390fd5b610efc83838361223e565b505050565b6000610f0d600661219b565b905060005b818110156112f857610fef3373ffffffffffffffffffffffffffffffffffffffff16600a6000600185610f459190613fc3565b815260200190815260200160002060020160009054906101000a900473ffffffffffffffffffffffffffffffffffffffff1673ffffffffffffffffffffffffffffffffffffffff1614600a6000600185610f9f9190613fc3565b815260200190815260200160002060050154851160001515600a6000600187610fc89190613fc3565b815260200190815260200160002060040160019054906101000a900460ff161515146124a5565b61101b83600a60006001856110049190613fc3565b815260200190815260200160002060050154612544565b3373ffffffffffffffffffffffffffffffffffffffff16600a60006001846110439190613fc3565b815260200190815260200160002060020160009054906101000a900473ffffffffffffffffffffffffffffffffffffffff1673ffffffffffffffffffffffffffffffffffffffff161480156110b95750600a60006001836110a49190613fc3565b81526020019081526020016000206005015483115b80156110f8575060001515600a60006001846110d59190613fc3565b815260200190815260200160002060040160019054906101000a900460ff161515145b156112e55761113b6040518060400160405280600381526020017f4f6e6500000000000000000000000000000000000000000000000000000000008152506125e0565b61115060018261114b9190613fc3565b61139d565b6000600a60006001846111639190613fc3565b815260200190815260200160002060020160006101000a81548173ffffffffffffffffffffffffffffffffffffffff021916908373ffffffffffffffffffffffffffffffffffffffff1602179055506000600a60006001846111c59190613fc3565b815260200190815260200160002060010160006101000a81548173ffffffffffffffffffffffffffffffffffffffff021916908373ffffffffffffffffffffffffffffffffffffffff1602179055506000600a60006001846112279190613fc3565b8152602001908152602001600020600301819055506000600a600060018461124f9190613fc3565b815260200190815260200160002060040160006101000a81548160ff0219169083151502179055506000600a600060018461128a9190613fc3565b8152602001908152602001600020600501819055506001600a60006001846112b29190613fc3565b815260200190815260200160002060040160016101000a81548160ff0219169083151502179055506112e46007612679565b5b80806112f0906141a9565b915050610f12565b505050565b600061130960066126d5565b6000611315600661219b565b905061132133826126eb565b61135f6040518060400160405280600e81526020017f4d696e7465642077697468203a200000000000000000000000000000000000008152506125e0565b611368816128c5565b61137381858561295e565b8091505092915050565b61139883838360405180602001604052806000815250611a94565b505050565b6113ae6113a86120da565b826121a9565b6113ed576040517f08c379a00000000000000000000000000000000000000000000000000000000081526004016113e490613e6d565b60405180910390fd5b6113f681612b9b565b50565b60606000611407600661219b565b905060008060005b838110156114ee573373ffffffffffffffffffffffffffffffffffffffff16600a600060018461143f9190613fc3565b815260200190815260200160002060010160009054906101000a900473ffffffffffffffffffffffffffffffffffffffff1673ffffffffffffffffffffffffffffffffffffffff1614156114db576114cb6040518060400160405280600481526020017f48657265000000000000000000000000000000000000000000000000000000008152506125e0565b6001836114d89190613fc3565b92505b80806114e6906141a9565b91505061140f565b5060008267ffffffffffffffff811115611531577f4e487b7100000000000000000000000000000000000000000000000000000000600052604160045260246000fd5b60405190808252806020026020018201604052801561156a57816020015b611557613337565b81526020019060019003908161154f5790505b50905060005b8481101561178b573373ffffffffffffffffffffffffffffffffffffffff16600a60006001846115a09190613fc3565b815260200190815260200160002060010160009054906101000a900473ffffffffffffffffffffffffffffffffffffffff1673ffffffffffffffffffffffffffffffffffffffff1614156117785760006001826115fd9190613fc3565b90506000600a60008381526020019081526020016000209050806040518060e0016040529081600082015481526020016001820160009054906101000a900473ffffffffffffffffffffffffffffffffffffffff1673ffffffffffffffffffffffffffffffffffffffff1673ffffffffffffffffffffffffffffffffffffffff1681526020016002820160009054906101000a900473ffffffffffffffffffffffffffffffffffffffff1673ffffffffffffffffffffffffffffffffffffffff1673ffffffffffffffffffffffffffffffffffffffff168152602001600382015481526020016004820160009054906101000a900460ff161515151581526020016004820160019054906101000a900460ff1615151515815260200160058201548152505084868151811061175b577f4e487b7100000000000000000000000000000000000000000000000000000000600052603260045260246000fd5b60200260200101819052506001856117739190613fc3565b945050505b8080611783906141a9565b915050611570565b508094505050505090565b6000806002600084815260200190815260200160002060009054906101000a900473ffffffffffffffffffffffffffffffffffffffff169050600073ffffffffffffffffffffffffffffffffffffffff168173ffffffffffffffffffffffffffffffffffffffff16141561183f576040517f08c379a000000000000000000000000000000000000000000000000000000000815260040161183690613ded565b60405180910390fd5b80915050919050565b6118866040518060400160405280601781526020017f4f776e6572206f662074686520746f6b656e2069733a200000000000000000008152506125e0565b61189761189282611796565b612cb8565b50565b60008073ffffffffffffffffffffffffffffffffffffffff168273ffffffffffffffffffffffffffffffffffffffff16141561190b576040517f08c379a000000000000000000000000000000000000000000000000000000000815260040161190290613d4d565b60405180910390fd5b600360008373ffffffffffffffffffffffffffffffffffffffff1673ffffffffffffffffffffffffffffffffffffffff168152602001908152602001600020549050919050565b60606001805461196190614146565b80601f016020809104026020016040519081016040528092919081815260200182805461198d90614146565b80156119da5780601f106119af576101008083540402835291602001916119da565b820191906000526020600020905b8154815290600101906020018083116119bd57829003601f168201915b5050505050905090565b6119f66119ef6120da565b8383612d51565b5050565b3373ffffffffffffffffffffffffffffffffffffffff16600960009054906101000a900473ffffffffffffffffffffffffffffffffffffffff1673ffffffffffffffffffffffffffffffffffffffff1614611a8a576040517f08c379a0000000000000000000000000000000000000000000000000000000008152600401611a8190613e4d565b60405180910390fd5b8060088190555050565b611aa5611a9f6120da565b836121a9565b611ae4576040517f08c379a0000000000000000000000000000000000000000000000000000000008152600401611adb90613e6d565b60405180910390fd5b611af084848484612ebe565b50505050565b6000600a60008381526020019081526020016000206003015490506000600a600084815260200190815260200160002060010160009054906101000a900473ffffffffffffffffffffffffffffffffffffffff169050813414611b8e576040517f08c379a0000000000000000000000000000000000000000000000000000000008152600401611b8590613d6d565b60405180910390fd5b33600a600085815260200190815260200160002060020160006101000a81548173ffffffffffffffffffffffffffffffffffffffff021916908373ffffffffffffffffffffffffffffffffffffffff1602179055506001600a600085815260200190815260200160002060040160006101000a81548160ff0219169083151502179055506000600a600085815260200190815260200160002060010160006101000a81548173ffffffffffffffffffffffffffffffffffffffff021916908373ffffffffffffffffffffffffffffffffffffffff160217905550611c7260076126d5565b611c7d30338561223e565b600960009054906101000a900473ffffffffffffffffffffffffffffffffffffffff1673ffffffffffffffffffffffffffffffffffffffff166108fc6008549081150290604051600060405180830381858888f19350505050158015611ce7573d6000803e3d6000fd5b508073ffffffffffffffffffffffffffffffffffffffff166108fc349081150290604051600060405180830381858888f19350505050158015611d2e573d6000803e3d6000fd5b50505050565b6060611d3f8261208f565b6000611d49612f1a565b90506000815111611d695760405180602001604052806000815250611d94565b80611d7384612f31565b604051602001611d84929190613b27565b6040516020818303038152906040525b915050919050565b3373ffffffffffffffffffffffffffffffffffffffff16600a600084815260200190815260200160002060020160009054906101000a900473ffffffffffffffffffffffffffffffffffffffff1673ffffffffffffffffffffffffffffffffffffffff1614611e40576040517f08c379a0000000000000000000000000000000000000000000000000000000008152600401611e3790613dcd565b60405180910390fd5b6008543414611e84576040517f08c379a0000000000000000000000000000000000000000000000000000000008152600401611e7b90613e2d565b60405180910390fd5b6000600a600084815260200190815260200160002060040160006101000a81548160ff02191690831515021790555080600a60008481526020019081526020016000206003018190555033600a600084815260200190815260200160002060010160006101000a81548173ffffffffffffffffffffffffffffffffffffffff021916908373ffffffffffffffffffffffffffffffffffffffff16021790555030600a600084815260200190815260200160002060020160006101000a81548173ffffffffffffffffffffffffffffffffffffffff021916908373ffffffffffffffffffffffffffffffffffffffff160217905550611f826007612679565b611f8d33308461223e565b5050565b6000600560008473ffffffffffffffffffffffffffffffffffffffff1673ffffffffffffffffffffffffffffffffffffffff16815260200190815260200160002060008373ffffffffffffffffffffffffffffffffffffffff1673ffffffffffffffffffffffffffffffffffffffff16815260200190815260200160002060009054906101000a900460ff16905092915050565b60007f01ffc9a7000000000000000000000000000000000000000000000000000000007bffffffffffffffffffffffffffffffffffffffffffffffffffffffff1916827bffffffffffffffffffffffffffffffffffffffffffffffffffffffff1916149050919050565b612098816130de565b6120d7576040517f08c379a00000000000000000000000000000000000000000000000000000000081526004016120ce90613ded565b60405180910390fd5b50565b600033905090565b816004600083815260200190815260200160002060006101000a81548173ffffffffffffffffffffffffffffffffffffffff021916908373ffffffffffffffffffffffffffffffffffffffff160217905550808273ffffffffffffffffffffffffffffffffffffffff1661215583611796565b73ffffffffffffffffffffffffffffffffffffffff167f8c5be1e5ebec7d5bd14f71427d1e84f3dd0314c0f7b2291e5b200ac8c7c3b92560405160405180910390a45050565b600081600001549050919050565b6000806121b583611796565b90508073ffffffffffffffffffffffffffffffffffffffff168473ffffffffffffffffffffffffffffffffffffffff1614806121f757506121f68185611f91565b5b8061223557508373ffffffffffffffffffffffffffffffffffffffff1661221d84610700565b73ffffffffffffffffffffffffffffffffffffffff16145b91505092915050565b8273ffffffffffffffffffffffffffffffffffffffff1661225e82611796565b73ffffffffffffffffffffffffffffffffffffffff16146122b4576040517f08c379a00000000000000000000000000000000000000000000000000000000081526004016122ab90613ccd565b60405180910390fd5b600073ffffffffffffffffffffffffffffffffffffffff168273ffffffffffffffffffffffffffffffffffffffff161415612324576040517f08c379a000000000000000000000000000000000000000000000000000000000815260040161231b90613d0d565b60405180910390fd5b61232f83838361314a565b61233a6000826120e2565b6001600360008573ffffffffffffffffffffffffffffffffffffffff1673ffffffffffffffffffffffffffffffffffffffff168152602001908152602001600020600082825461238a919061404a565b925050819055506001600360008473ffffffffffffffffffffffffffffffffffffffff1673ffffffffffffffffffffffffffffffffffffffff16815260200190815260200160002060008282546123e19190613fc3565b92505081905550816002600083815260200190815260200160002060006101000a81548173ffffffffffffffffffffffffffffffffffffffff021916908373ffffffffffffffffffffffffffffffffffffffff160217905550808273ffffffffffffffffffffffffffffffffffffffff168473ffffffffffffffffffffffffffffffffffffffff167fddf252ad1be2c89b69c2b068fc378daa952ba7f163c4a11628f55a4df523b3ef60405160405180910390a46124a083838361314f565b505050565b61253f8383836040516024016124bd93929190613c34565b6040516020818303038152906040527f50709698000000000000000000000000000000000000000000000000000000007bffffffffffffffffffffffffffffffffffffffffffffffffffffffff19166020820180517bffffffffffffffffffffffffffffffffffffffffffffffffffffffff8381831617835250505050613154565b505050565b6125dc828260405160240161255a929190613ec8565b6040516020818303038152906040527f6c0f6980000000000000000000000000000000000000000000000000000000007bffffffffffffffffffffffffffffffffffffffffffffffffffffffff19166020820180517bffffffffffffffffffffffffffffffffffffffffffffffffffffffff8381831617835250505050613154565b5050565b612676816040516024016125f49190613c6b565b6040516020818303038152906040527f41304fac000000000000000000000000000000000000000000000000000000007bffffffffffffffffffffffffffffffffffffffffffffffffffffffff19166020820180517bffffffffffffffffffffffffffffffffffffffffffffffffffffffff8381831617835250505050613154565b50565b600081600001549050600081116126c5576040517f08c379a00000000000000000000000000000000000000000000000000000000081526004016126bc90613c8d565b60405180910390fd5b6001810382600001819055505050565b6001816000016000828254019250508190555050565b600073ffffffffffffffffffffffffffffffffffffffff168273ffffffffffffffffffffffffffffffffffffffff16141561275b576040517f08c379a000000000000000000000000000000000000000000000000000000000815260040161275290613dad565b60405180910390fd5b612764816130de565b156127a4576040517f08c379a000000000000000000000000000000000000000000000000000000000815260040161279b90613ced565b60405180910390fd5b6127b06000838361314a565b6001600360008473ffffffffffffffffffffffffffffffffffffffff1673ffffffffffffffffffffffffffffffffffffffff16815260200190815260200160002060008282546128009190613fc3565b92505081905550816002600083815260200190815260200160002060006101000a81548173ffffffffffffffffffffffffffffffffffffffff021916908373ffffffffffffffffffffffffffffffffffffffff160217905550808273ffffffffffffffffffffffffffffffffffffffff16600073ffffffffffffffffffffffffffffffffffffffff167fddf252ad1be2c89b69c2b068fc378daa952ba7f163c4a11628f55a4df523b3ef60405160405180910390a46128c16000838361314f565b5050565b61295b816040516024016128d99190613ead565b6040516020818303038152906040527ff5b1bba9000000000000000000000000000000000000000000000000000000007bffffffffffffffffffffffffffffffffffffffffffffffffffffffff19166020820180517bffffffffffffffffffffffffffffffffffffffffffffffffffffffff8381831617835250505050613154565b50565b600082116129a1576040517f08c379a000000000000000000000000000000000000000000000000000000000815260040161299890613e8d565b60405180910390fd5b60085434146129e5576040517f08c379a00000000000000000000000000000000000000000000000000000000081526004016129dc90613e2d565b60405180910390fd5b6040518060e001604052808481526020013373ffffffffffffffffffffffffffffffffffffffff1681526020013373ffffffffffffffffffffffffffffffffffffffff16815260200183815260200160001515815260200160001515815260200182815250600a60008581526020019081526020016000206000820151816000015560208201518160010160006101000a81548173ffffffffffffffffffffffffffffffffffffffff021916908373ffffffffffffffffffffffffffffffffffffffff16021790555060408201518160020160006101000a81548173ffffffffffffffffffffffffffffffffffffffff021916908373ffffffffffffffffffffffffffffffffffffffff1602179055506060820151816003015560808201518160040160006101000a81548160ff02191690831515021790555060a08201518160040160016101000a81548160ff02191690831515021790555060c08201518160050155905050612b5733308561223e565b827fb640004f1d14576d0c209e240cad0410e0d8c0c33a09375861fbadae2588a98d3330856000604051612b8e9493929190613b66565b60405180910390a2505050565b6000612ba682611796565b9050612bb48160008461314a565b612bbf6000836120e2565b6001600360008373ffffffffffffffffffffffffffffffffffffffff1673ffffffffffffffffffffffffffffffffffffffff1681526020019081526020016000206000828254612c0f919061404a565b925050819055506002600083815260200190815260200160002060006101000a81549073ffffffffffffffffffffffffffffffffffffffff021916905581600073ffffffffffffffffffffffffffffffffffffffff168273ffffffffffffffffffffffffffffffffffffffff167fddf252ad1be2c89b69c2b068fc378daa952ba7f163c4a11628f55a4df523b3ef60405160405180910390a4612cb48160008461314f565b5050565b612d4e81604051602401612ccc9190613b4b565b6040516020818303038152906040527f2c2ecbc2000000000000000000000000000000000000000000000000000000007bffffffffffffffffffffffffffffffffffffffffffffffffffffffff19166020820180517bffffffffffffffffffffffffffffffffffffffffffffffffffffffff8381831617835250505050613154565b50565b8173ffffffffffffffffffffffffffffffffffffffff168373ffffffffffffffffffffffffffffffffffffffff161415612dc0576040517f08c379a0000000000000000000000000000000000000000000000000000000008152600401612db790613d2d565b60405180910390fd5b80600560008573ffffffffffffffffffffffffffffffffffffffff1673ffffffffffffffffffffffffffffffffffffffff16815260200190815260200160002060008473ffffffffffffffffffffffffffffffffffffffff1673ffffffffffffffffffffffffffffffffffffffff16815260200190815260200160002060006101000a81548160ff0219169083151502179055508173ffffffffffffffffffffffffffffffffffffffff168373ffffffffffffffffffffffffffffffffffffffff167f17307eab39ab6107e8899845ad3d59bd9653f200f220920489ca2b5937696c3183604051612eb19190613c19565b60405180910390a3505050565b612ec984848461223e565b612ed58484848461317d565b612f14576040517f08c379a0000000000000000000000000000000000000000000000000000000008152600401612f0b90613cad565b60405180910390fd5b50505050565b606060405180602001604052806000815250905090565b60606000821415612f79576040518060400160405280600181526020017f300000000000000000000000000000000000000000000000000000000000000081525090506130d9565b600082905060005b60008214612fab578080612f94906141a9565b915050600a82612fa49190614019565b9150612f81565b60008167ffffffffffffffff811115612fed577f4e487b7100000000000000000000000000000000000000000000000000000000600052604160045260246000fd5b6040519080825280601f01601f19166020018201604052801561301f5781602001600182028036833780820191505090505b5090505b600085146130d257600182613038919061404a565b9150600a8561304791906141f2565b60306130539190613fc3565b60f81b81838151811061308f577f4e487b7100000000000000000000000000000000000000000000000000000000600052603260045260246000fd5b60200101907effffffffffffffffffffffffffffffffffffffffffffffffffffffffffffff1916908160001a905350600a856130cb9190614019565b9450613023565b8093505050505b919050565b60008073ffffffffffffffffffffffffffffffffffffffff166002600084815260200190815260200160002060009054906101000a900473ffffffffffffffffffffffffffffffffffffffff1673ffffffffffffffffffffffffffffffffffffffff1614159050919050565b505050565b505050565b60008151905060006a636f6e736f6c652e6c6f679050602083016000808483855afa5050505050565b600061319e8473ffffffffffffffffffffffffffffffffffffffff16613314565b15613307578373ffffffffffffffffffffffffffffffffffffffff1663150b7a026131c76120da565b8786866040518563ffffffff1660e01b81526004016131e99493929190613bab565b602060405180830381600087803b15801561320357600080fd5b505af192505050801561323457506040513d601f19601f820116820180604052508101906132319190613645565b60015b6132b7573d8060008114613264576040519150601f19603f3d011682016040523d82523d6000602084013e613269565b606091505b506000815114156132af576040517f08c379a00000000000000000000000000000000000000000000000000000000081526004016132a690613cad565b60405180910390fd5b805181602001fd5b63150b7a0260e01b7bffffffffffffffffffffffffffffffffffffffffffffffffffffffff1916817bffffffffffffffffffffffffffffffffffffffffffffffffffffffff19161491505061330c565b600190505b949350505050565b6000808273ffffffffffffffffffffffffffffffffffffffff163b119050919050565b6040518060e0016040528060008152602001600073ffffffffffffffffffffffffffffffffffffffff168152602001600073ffffffffffffffffffffffffffffffffffffffff16815260200160008152602001600015158152602001600015158152602001600081525090565b60006133b76133b284613f16565b613ef1565b9050828152602081018484840111156133cf57600080fd5b6133da848285614104565b509392505050565b6000813590506133f18161474b565b92915050565b60008135905061340681614762565b92915050565b60008135905061341b81614779565b92915050565b60008151905061343081614779565b92915050565b600082601f83011261344757600080fd5b81356134578482602086016133a4565b91505092915050565b60008135905061346f81614790565b92915050565b60006020828403121561348757600080fd5b6000613495848285016133e2565b91505092915050565b600080604083850312156134b157600080fd5b60006134bf858286016133e2565b92505060206134d0858286016133e2565b9150509250929050565b6000806000606084860312156134ef57600080fd5b60006134fd868287016133e2565b935050602061350e868287016133e2565b925050604061351f86828701613460565b9150509250925092565b6000806000806080858703121561353f57600080fd5b600061354d878288016133e2565b945050602061355e878288016133e2565b935050604061356f87828801613460565b925050606085013567ffffffffffffffff81111561358c57600080fd5b61359887828801613436565b91505092959194509250565b600080604083850312156135b757600080fd5b60006135c5858286016133e2565b92505060206135d6858286016133f7565b9150509250929050565b600080604083850312156135f357600080fd5b6000613601858286016133e2565b925050602061361285828601613460565b9150509250929050565b60006020828403121561362e57600080fd5b600061363c8482850161340c565b91505092915050565b60006020828403121561365757600080fd5b600061366584828501613421565b91505092915050565b60006020828403121561368057600080fd5b600061368e84828501613460565b91505092915050565b600080604083850312156136aa57600080fd5b60006136b885828601613460565b92505060206136c985828601613460565b9150509250929050565b60006136df8383613a7b565b60e08301905092915050565b6136f481614090565b82525050565b6137038161407e565b82525050565b600061371482613f57565b61371e8185613f85565b935061372983613f47565b8060005b8381101561375a57815161374188826136d3565b975061374c83613f78565b92505060018101905061372d565b5085935050505092915050565b613770816140a2565b82525050565b61377f816140a2565b82525050565b600061379082613f62565b61379a8185613f96565b93506137aa818560208601614113565b6137b3816142df565b840191505092915050565b60006137c982613f6d565b6137d38185613fa7565b93506137e3818560208601614113565b6137ec816142df565b840191505092915050565b600061380282613f6d565b61380c8185613fb8565b935061381c818560208601614113565b80840191505092915050565b6000613835601b83613fa7565b9150613840826142f0565b602082019050919050565b6000613858603283613fa7565b915061386382614319565b604082019050919050565b600061387b602583613fa7565b915061388682614368565b604082019050919050565b600061389e601c83613fa7565b91506138a9826143b7565b602082019050919050565b60006138c1602483613fa7565b91506138cc826143e0565b604082019050919050565b60006138e4601983613fa7565b91506138ef8261442f565b602082019050919050565b6000613907602983613fa7565b915061391282614458565b604082019050919050565b600061392a604083613fa7565b9150613935826144a7565b604082019050919050565b600061394d603e83613fa7565b9150613958826144f6565b604082019050919050565b6000613970602083613fa7565b915061397b82614545565b602082019050919050565b6000613993602a83613fa7565b915061399e8261456e565b604082019050919050565b60006139b6601883613fa7565b91506139c1826145bd565b602082019050919050565b60006139d9602183613fa7565b91506139e4826145e6565b604082019050919050565b60006139fc602483613fa7565b9150613a0782614635565b604082019050919050565b6000613a1f603083613fa7565b9150613a2a82614684565b604082019050919050565b6000613a42602e83613fa7565b9150613a4d826146d3565b604082019050919050565b6000613a65601c83613fa7565b9150613a7082614722565b602082019050919050565b60e082016000820151613a916000850182613b09565b506020820151613aa460208501826136eb565b506040820151613ab760408501826136eb565b506060820151613aca6060850182613b09565b506080820151613add6080850182613767565b5060a0820151613af060a0850182613767565b5060c0820151613b0360c0850182613b09565b50505050565b613b12816140fa565b82525050565b613b21816140fa565b82525050565b6000613b3382856137f7565b9150613b3f82846137f7565b91508190509392505050565b6000602082019050613b6060008301846136fa565b92915050565b6000608082019050613b7b60008301876136fa565b613b8860208301866136fa565b613b956040830185613b18565b613ba26060830184613776565b95945050505050565b6000608082019050613bc060008301876136fa565b613bcd60208301866136fa565b613bda6040830185613b18565b8181036060830152613bec8184613785565b905095945050505050565b60006020820190508181036000830152613c118184613709565b905092915050565b6000602082019050613c2e6000830184613776565b92915050565b6000606082019050613c496000830186613776565b613c566020830185613776565b613c636040830184613776565b949350505050565b60006020820190508181036000830152613c8581846137be565b905092915050565b60006020820190508181036000830152613ca681613828565b9050919050565b60006020820190508181036000830152613cc68161384b565b9050919050565b60006020820190508181036000830152613ce68161386e565b9050919050565b60006020820190508181036000830152613d0681613891565b9050919050565b60006020820190508181036000830152613d26816138b4565b9050919050565b60006020820190508181036000830152613d46816138d7565b9050919050565b60006020820190508181036000830152613d66816138fa565b9050919050565b60006020820190508181036000830152613d868161391d565b9050919050565b60006020820190508181036000830152613da681613940565b9050919050565b60006020820190508181036000830152613dc681613963565b9050919050565b60006020820190508181036000830152613de681613986565b9050919050565b60006020820190508181036000830152613e06816139a9565b9050919050565b60006020820190508181036000830152613e26816139cc565b9050919050565b60006020820190508181036000830152613e46816139ef565b9050919050565b60006020820190508181036000830152613e6681613a12565b9050919050565b60006020820190508181036000830152613e8681613a35565b9050919050565b60006020820190508181036000830152613ea681613a58565b9050919050565b6000602082019050613ec26000830184613b18565b92915050565b6000604082019050613edd6000830185613b18565b613eea6020830184613b18565b9392505050565b6000613efb613f0c565b9050613f078282614178565b919050565b6000604051905090565b600067ffffffffffffffff821115613f3157613f306142b0565b5b613f3a826142df565b9050602081019050919050565b6000819050602082019050919050565b600081519050919050565b600081519050919050565b600081519050919050565b6000602082019050919050565b600082825260208201905092915050565b600082825260208201905092915050565b600082825260208201905092915050565b600081905092915050565b6000613fce826140fa565b9150613fd9836140fa565b9250827fffffffffffffffffffffffffffffffffffffffffffffffffffffffffffffffff0382111561400e5761400d614223565b5b828201905092915050565b6000614024826140fa565b915061402f836140fa565b92508261403f5761403e614252565b5b828204905092915050565b6000614055826140fa565b9150614060836140fa565b92508282101561407357614072614223565b5b828203905092915050565b6000614089826140da565b9050919050565b600061409b826140da565b9050919050565b60008115159050919050565b60007fffffffff0000000000000000000000000000000000000000000000000000000082169050919050565b600073ffffffffffffffffffffffffffffffffffffffff82169050919050565b6000819050919050565b82818337600083830152505050565b60005b83811015614131578082015181840152602081019050614116565b83811115614140576000848401525b50505050565b6000600282049050600182168061415e57607f821691505b6020821081141561417257614171614281565b5b50919050565b614181826142df565b810181811067ffffffffffffffff821117156141a05761419f6142b0565b5b80604052505050565b60006141b4826140fa565b91507fffffffffffffffffffffffffffffffffffffffffffffffffffffffffffffffff8214156141e7576141e6614223565b5b600182019050919050565b60006141fd826140fa565b9150614208836140fa565b92508261421857614217614252565b5b828206905092915050565b7f4e487b7100000000000000000000000000000000000000000000000000000000600052601160045260246000fd5b7f4e487b7100000000000000000000000000000000000000000000000000000000600052601260045260246000fd5b7f4e487b7100000000000000000000000000000000000000000000000000000000600052602260045260246000fd5b7f4e487b7100000000000000000000000000000000000000000000000000000000600052604160045260246000fd5b6000601f19601f8301169050919050565b7f436f756e7465723a2064656372656d656e74206f766572666c6f770000000000600082015250565b7f4552433732313a207472616e7366657220746f206e6f6e20455243373231526560008201527f63656976657220696d706c656d656e7465720000000000000000000000000000602082015250565b7f4552433732313a207472616e736665722066726f6d20696e636f72726563742060008201527f6f776e6572000000000000000000000000000000000000000000000000000000602082015250565b7f4552433732313a20746f6b656e20616c7265616479206d696e74656400000000600082015250565b7f4552433732313a207472616e7366657220746f20746865207a65726f2061646460008201527f7265737300000000000000000000000000000000000000000000000000000000602082015250565b7f4552433732313a20617070726f766520746f2063616c6c657200000000000000600082015250565b7f4552433732313a2061646472657373207a65726f206973206e6f74206120766160008201527f6c6964206f776e65720000000000000000000000000000000000000000000000602082015250565b7f506c65617365207375626d6974207468652061736b696e67207072696365206960008201527f6e206f7264657220746f20636f6d706c65746520746865207075726368617365602082015250565b7f4552433732313a20617070726f76652063616c6c6572206973206e6f7420746f60008201527f6b656e206f776e6572206e6f7220617070726f76656420666f7220616c6c0000602082015250565b7f4552433732313a206d696e7420746f20746865207a65726f2061646472657373600082015250565b7f4f6e6c79206974656d206f776e65722063616e20706572666f726d207468697360008201527f206f7065726174696f6e00000000000000000000000000000000000000000000602082015250565b7f4552433732313a20696e76616c696420746f6b656e2049440000000000000000600082015250565b7f4552433732313a20617070726f76616c20746f2063757272656e74206f776e6560008201527f7200000000000000000000000000000000000000000000000000000000000000602082015250565b7f5072696365206d75737420626520657175616c20746f206c697374696e67207060008201527f7269636500000000000000000000000000000000000000000000000000000000602082015250565b7f4f6e6c79206d61726b6574706c616365206f776e65722063616e20757064617460008201527f65206c697374696e672070726963652e00000000000000000000000000000000602082015250565b7f4552433732313a2063616c6c6572206973206e6f7420746f6b656e206f776e6560008201527f72206e6f7220617070726f766564000000000000000000000000000000000000602082015250565b7f5072696365206d757374206265206174206c6561737420312077656900000000600082015250565b6147548161407e565b811461475f57600080fd5b50565b61476b816140a2565b811461477657600080fd5b50565b614782816140ae565b811461478d57600080fd5b50565b614799816140fa565b81146147a457600080fd5b5056fea26469706673582212202ff2636556d2744ad41f838db350a33f40b3f84c9e487c8b8c2350103c6dc57264736f6c63430008040033",
  "linkReferences": {},
  "deployedLinkReferences": {}
}