{
  "_format": "hh-sol-artifact-1",
  "contractName": "Games",
  "sourceName": "contracts/Games.sol",
  "abi": [
    {
      "inputs": [],
      "stateMutability": "nonpayable",
      "type": "constructor"
    },
    {
      "anonymous": false,
      "inputs": [
        {
          "indexed": true,
          "internalType": "address",
          "name": "owner",
          "type": "address"
        },
        {
          "indexed": true,
          "internalType": "address",
          "name": "approved",
          "type": "address"
        },
        {
          "indexed": true,
          "internalType": "uint256",
          "name": "tokenId",
          "type": "uint256"
        }
      ],
      "name": "Approval",
      "type": "event"
    },
    {
      "anonymous": false,
      "inputs": [
        {
          "indexed": true,
          "internalType": "address",
          "name": "owner",
          "type": "address"
        },
        {
          "indexed": true,
          "internalType": "address",
          "name": "operator",
          "type": "address"
        },
        {
          "indexed": false,
          "internalType": "bool",
          "name": "approved",
          "type": "bool"
        }
      ],
      "name": "ApprovalForAll",
      "type": "event"
    },
    {
      "anonymous": false,
      "inputs": [
        {
          "indexed": true,
          "internalType": "address",
          "name": "from",
          "type": "address"
        },
        {
          "indexed": true,
          "internalType": "address",
          "name": "to",
          "type": "address"
        },
        {
          "indexed": true,
          "internalType": "uint256",
          "name": "tokenId",
          "type": "uint256"
        }
      ],
      "name": "Transfer",
      "type": "event"
    },
    {
      "inputs": [
        {
          "internalType": "address",
          "name": "to",
          "type": "address"
        },
        {
          "internalType": "uint256",
          "name": "tokenId",
          "type": "uint256"
        }
      ],
      "name": "approve",
      "outputs": [],
      "stateMutability": "nonpayable",
      "type": "function"
    },
    {
      "inputs": [
        {
          "internalType": "address",
          "name": "player",
          "type": "address"
        }
      ],
      "name": "awardItem",
      "outputs": [
        {
          "internalType": "uint256",
          "name": "",
          "type": "uint256"
        }
      ],
      "stateMutability": "nonpayable",
      "type": "function"
    },
    {
      "inputs": [
        {
          "internalType": "address",
          "name": "owner",
          "type": "address"
        }
      ],
      "name": "balanceOf",
      "outputs": [
        {
          "internalType": "uint256",
          "name": "",
          "type": "uint256"
        }
      ],
      "stateMutability": "view",
      "type": "function"
    },
    {
      "inputs": [
        {
          "internalType": "uint256",
          "name": "tokenId",
          "type": "uint256"
        }
      ],
      "name": "burn",
      "outputs": [],
      "stateMutability": "nonpayable",
      "type": "function"
    },
    {
      "inputs": [
        {
          "internalType": "uint256",
          "name": "tokenId",
          "type": "uint256"
        }
      ],
      "name": "getApproved",
      "outputs": [
        {
          "internalType": "address",
          "name": "",
          "type": "address"
        }
      ],
      "stateMutability": "view",
      "type": "function"
    },
    {
      "inputs": [
        {
          "internalType": "address",
          "name": "owner",
          "type": "address"
        },
        {
          "internalType": "address",
          "name": "operator",
          "type": "address"
        }
      ],
      "name": "isApprovedForAll",
      "outputs": [
        {
          "internalType": "bool",
          "name": "",
          "type": "bool"
        }
      ],
      "stateMutability": "view",
      "type": "function"
    },
    {
      "inputs": [],
      "name": "name",
      "outputs": [
        {
          "internalType": "string",
          "name": "",
          "type": "string"
        }
      ],
      "stateMutability": "view",
      "type": "function"
    },
    {
      "inputs": [
        {
          "internalType": "uint256",
          "name": "tokenId",
          "type": "uint256"
        }
      ],
      "name": "ownerOf",
      "outputs": [
        {
          "internalType": "address",
          "name": "",
          "type": "address"
        }
      ],
      "stateMutability": "view",
      "type": "function"
    },
    {
      "inputs": [
        {
          "internalType": "uint256",
          "name": "tokenId",
          "type": "uint256"
        }
      ],
      "name": "print",
      "outputs": [],
      "stateMutability": "view",
      "type": "function"
    },
    {
      "inputs": [
        {
          "internalType": "address",
          "name": "from",
          "type": "address"
        },
        {
          "internalType": "address",
          "name": "to",
          "type": "address"
        },
        {
          "internalType": "uint256",
          "name": "tokenId",
          "type": "uint256"
        }
      ],
      "name": "safeTransferFrom",
      "outputs": [],
      "stateMutability": "nonpayable",
      "type": "function"
    },
    {
      "inputs": [
        {
          "internalType": "address",
          "name": "from",
          "type": "address"
        },
        {
          "internalType": "address",
          "name": "to",
          "type": "address"
        },
        {
          "internalType": "uint256",
          "name": "tokenId",
          "type": "uint256"
        },
        {
          "internalType": "bytes",
          "name": "data",
          "type": "bytes"
        }
      ],
      "name": "safeTransferFrom",
      "outputs": [],
      "stateMutability": "nonpayable",
      "type": "function"
    },
    {
      "inputs": [
        {
          "internalType": "address",
          "name": "operator",
          "type": "address"
        },
        {
          "internalType": "bool",
          "name": "approved",
          "type": "bool"
        }
      ],
      "name": "setApprovalForAll",
      "outputs": [],
      "stateMutability": "nonpayable",
      "type": "function"
    },
    {
      "inputs": [
        {
          "internalType": "bytes4",
          "name": "interfaceId",
          "type": "bytes4"
        }
      ],
      "name": "supportsInterface",
      "outputs": [
        {
          "internalType": "bool",
          "name": "",
          "type": "bool"
        }
      ],
      "stateMutability": "view",
      "type": "function"
    },
    {
      "inputs": [],
      "name": "symbol",
      "outputs": [
        {
          "internalType": "string",
          "name": "",
          "type": "string"
        }
      ],
      "stateMutability": "view",
      "type": "function"
    },
    {
      "inputs": [
        {
          "internalType": "uint256",
          "name": "tokenId",
          "type": "uint256"
        }
      ],
      "name": "tokenURI",
      "outputs": [
        {
          "internalType": "string",
          "name": "",
          "type": "string"
        }
      ],
      "stateMutability": "view",
      "type": "function"
    },
    {
      "inputs": [
        {
          "internalType": "address",
          "name": "from",
          "type": "address"
        },
        {
          "internalType": "address",
          "name": "to",
          "type": "address"
        },
        {
          "internalType": "uint256",
          "name": "tokenId",
          "type": "uint256"
        }
      ],
      "name": "transferFrom",
      "outputs": [],
      "stateMutability": "nonpayable",
      "type": "function"
    }
  ],
  "bytecode": "0x60806040523480156200001157600080fd5b506040518060400160405280600881526020017f47616d654974656d0000000000000000000000000000000000000000000000008152506040518060400160405280600381526020017f49544d0000000000000000000000000000000000000000000000000000000000815250816000908051906020019062000096929190620000b8565b508060019080519060200190620000af929190620000b8565b505050620001cd565b828054620000c69062000168565b90600052602060002090601f016020900481019282620000ea576000855562000136565b82601f106200010557805160ff191683800117855562000136565b8280016001018555821562000136579182015b828111156200013557825182559160200191906001019062000118565b5b50905062000145919062000149565b5090565b5b80821115620001645760008160009055506001016200014a565b5090565b600060028204905060018216806200018157607f821691505b602082108114156200019857620001976200019e565b5b50919050565b7f4e487b7100000000000000000000000000000000000000000000000000000000600052602260045260246000fd5b61287a80620001dd6000396000f3fe608060405234801561001057600080fd5b50600436106101005760003560e01c80636bb0ae1011610097578063b88d4fde11610066578063b88d4fde146102a9578063c87b56dd146102c5578063e985e9c5146102f5578063f2fb21201461032557610100565b80636bb0ae101461022357806370a082311461023f57806395d89b411461026f578063a22cb4651461028d57610100565b806323b872dd116100d357806323b872dd1461019f57806342842e0e146101bb57806342966c68146101d75780636352211e146101f357610100565b806301ffc9a71461010557806306fdde0314610135578063081812fc14610153578063095ea7b314610183575b600080fd5b61011f600480360381019061011a9190611c2f565b610355565b60405161012c9190611faf565b60405180910390f35b61013d610437565b60405161014a9190611fca565b60405180910390f35b61016d60048036038101906101689190611c81565b6104c9565b60405161017a9190611f1f565b60405180910390f35b61019d60048036038101906101989190611bf3565b61050f565b005b6101b960048036038101906101b49190611aed565b610627565b005b6101d560048036038101906101d09190611aed565b610687565b005b6101f160048036038101906101ec9190611c81565b6106a7565b005b61020d60048036038101906102089190611c81565b610703565b60405161021a9190611f1f565b60405180910390f35b61023d60048036038101906102389190611c81565b6107b5565b005b61025960048036038101906102549190611a88565b610811565b604051610266919061214c565b60405180910390f35b6102776108c9565b6040516102849190611fca565b60405180910390f35b6102a760048036038101906102a29190611bb7565b61095b565b005b6102c360048036038101906102be9190611b3c565b610971565b005b6102df60048036038101906102da9190611c81565b6109d3565b6040516102ec9190611fca565b60405180910390f35b61030f600480360381019061030a9190611ab1565b610a3b565b60405161031c9190611faf565b60405180910390f35b61033f600480360381019061033a9190611a88565b610acf565b60405161034c919061214c565b60405180910390f35b60007f80ac58cd000000000000000000000000000000000000000000000000000000007bffffffffffffffffffffffffffffffffffffffffffffffffffffffff1916827bffffffffffffffffffffffffffffffffffffffffffffffffffffffff1916148061042057507f5b5e139f000000000000000000000000000000000000000000000000000000007bffffffffffffffffffffffffffffffffffffffffffffffffffffffff1916827bffffffffffffffffffffffffffffffffffffffffffffffffffffffff1916145b80610430575061042f82610b0f565b5b9050919050565b60606000805461044690612371565b80601f016020809104026020016040519081016040528092919081815260200182805461047290612371565b80156104bf5780601f10610494576101008083540402835291602001916104bf565b820191906000526020600020905b8154815290600101906020018083116104a257829003601f168201915b5050505050905090565b60006104d482610b79565b6004600083815260200190815260200160002060009054906101000a900473ffffffffffffffffffffffffffffffffffffffff169050919050565b600061051a82610703565b90508073ffffffffffffffffffffffffffffffffffffffff168373ffffffffffffffffffffffffffffffffffffffff16141561058b576040517f08c379a00000000000000000000000000000000000000000000000000000000081526004016105829061210c565b60405180910390fd5b8073ffffffffffffffffffffffffffffffffffffffff166105aa610bc4565b73ffffffffffffffffffffffffffffffffffffffff1614806105d957506105d8816105d3610bc4565b610a3b565b5b610618576040517f08c379a000000000000000000000000000000000000000000000000000000000815260040161060f906120ac565b60405180910390fd5b6106228383610bcc565b505050565b610638610632610bc4565b82610c85565b610677576040517f08c379a000000000000000000000000000000000000000000000000000000000815260040161066e9061212c565b60405180910390fd5b610682838383610d1a565b505050565b6106a283838360405180602001604052806000815250610971565b505050565b6106b86106b2610bc4565b82610c85565b6106f7576040517f08c379a00000000000000000000000000000000000000000000000000000000081526004016106ee9061212c565b60405180910390fd5b61070081610f81565b50565b6000806002600084815260200190815260200160002060009054906101000a900473ffffffffffffffffffffffffffffffffffffffff169050600073ffffffffffffffffffffffffffffffffffffffff168173ffffffffffffffffffffffffffffffffffffffff1614156107ac576040517f08c379a00000000000000000000000000000000000000000000000000000000081526004016107a3906120ec565b60405180910390fd5b80915050919050565b6107f36040518060400160405280601781526020017f4f776e6572206f662074686520746f6b656e2069733a2000000000000000000081525061109e565b61080e6107ff82610703565b6108096006611137565b611145565b50565b60008073ffffffffffffffffffffffffffffffffffffffff168273ffffffffffffffffffffffffffffffffffffffff161415610882576040517f08c379a00000000000000000000000000000000000000000000000000000000081526004016108799061208c565b60405180910390fd5b600360008373ffffffffffffffffffffffffffffffffffffffff1673ffffffffffffffffffffffffffffffffffffffff168152602001908152602001600020549050919050565b6060600180546108d890612371565b80601f016020809104026020016040519081016040528092919081815260200182805461090490612371565b80156109515780601f1061092657610100808354040283529160200191610951565b820191906000526020600020905b81548152906001019060200180831161093457829003601f168201915b5050505050905090565b61096d610966610bc4565b83836111e1565b5050565b61098261097c610bc4565b83610c85565b6109c1576040517f08c379a00000000000000000000000000000000000000000000000000000000081526004016109b89061212c565b60405180910390fd5b6109cd8484848461134e565b50505050565b60606109de82610b79565b60006109e86113aa565b90506000815111610a085760405180602001604052806000815250610a33565b80610a12846113c1565b604051602001610a23929190611efb565b6040516020818303038152906040525b915050919050565b6000600560008473ffffffffffffffffffffffffffffffffffffffff1673ffffffffffffffffffffffffffffffffffffffff16815260200190815260200160002060008373ffffffffffffffffffffffffffffffffffffffff1673ffffffffffffffffffffffffffffffffffffffff16815260200190815260200160002060009054906101000a900460ff16905092915050565b600080610adc6006611137565b9050610ae8838261156e565b610afb83610af66006611137565b611145565b610b056006611748565b6000915050919050565b60007f01ffc9a7000000000000000000000000000000000000000000000000000000007bffffffffffffffffffffffffffffffffffffffffffffffffffffffff1916827bffffffffffffffffffffffffffffffffffffffffffffffffffffffff1916149050919050565b610b828161175e565b610bc1576040517f08c379a0000000000000000000000000000000000000000000000000000000008152600401610bb8906120ec565b60405180910390fd5b50565b600033905090565b816004600083815260200190815260200160002060006101000a81548173ffffffffffffffffffffffffffffffffffffffff021916908373ffffffffffffffffffffffffffffffffffffffff160217905550808273ffffffffffffffffffffffffffffffffffffffff16610c3f83610703565b73ffffffffffffffffffffffffffffffffffffffff167f8c5be1e5ebec7d5bd14f71427d1e84f3dd0314c0f7b2291e5b200ac8c7c3b92560405160405180910390a45050565b600080610c9183610703565b90508073ffffffffffffffffffffffffffffffffffffffff168473ffffffffffffffffffffffffffffffffffffffff161480610cd35750610cd28185610a3b565b5b80610d1157508373ffffffffffffffffffffffffffffffffffffffff16610cf9846104c9565b73ffffffffffffffffffffffffffffffffffffffff16145b91505092915050565b8273ffffffffffffffffffffffffffffffffffffffff16610d3a82610703565b73ffffffffffffffffffffffffffffffffffffffff1614610d90576040517f08c379a0000000000000000000000000000000000000000000000000000000008152600401610d879061200c565b60405180910390fd5b600073ffffffffffffffffffffffffffffffffffffffff168273ffffffffffffffffffffffffffffffffffffffff161415610e00576040517f08c379a0000000000000000000000000000000000000000000000000000000008152600401610df79061204c565b60405180910390fd5b610e0b8383836117ca565b610e16600082610bcc565b6001600360008573ffffffffffffffffffffffffffffffffffffffff1673ffffffffffffffffffffffffffffffffffffffff1681526020019081526020016000206000828254610e669190612287565b925050819055506001600360008473ffffffffffffffffffffffffffffffffffffffff1673ffffffffffffffffffffffffffffffffffffffff1681526020019081526020016000206000828254610ebd9190612200565b92505081905550816002600083815260200190815260200160002060006101000a81548173ffffffffffffffffffffffffffffffffffffffff021916908373ffffffffffffffffffffffffffffffffffffffff160217905550808273ffffffffffffffffffffffffffffffffffffffff168473ffffffffffffffffffffffffffffffffffffffff167fddf252ad1be2c89b69c2b068fc378daa952ba7f163c4a11628f55a4df523b3ef60405160405180910390a4610f7c8383836117cf565b505050565b6000610f8c82610703565b9050610f9a816000846117ca565b610fa5600083610bcc565b6001600360008373ffffffffffffffffffffffffffffffffffffffff1673ffffffffffffffffffffffffffffffffffffffff1681526020019081526020016000206000828254610ff59190612287565b925050819055506002600083815260200190815260200160002060006101000a81549073ffffffffffffffffffffffffffffffffffffffff021916905581600073ffffffffffffffffffffffffffffffffffffffff168273ffffffffffffffffffffffffffffffffffffffff167fddf252ad1be2c89b69c2b068fc378daa952ba7f163c4a11628f55a4df523b3ef60405160405180910390a461109a816000846117cf565b5050565b611134816040516024016110b29190611fca565b6040516020818303038152906040527f41304fac000000000000000000000000000000000000000000000000000000007bffffffffffffffffffffffffffffffffffffffffffffffffffffffff19166020820180517bffffffffffffffffffffffffffffffffffffffffffffffffffffffff83818316178352505050506117d4565b50565b600081600001549050919050565b6111dd828260405160240161115b929190611f86565b6040516020818303038152906040527f2243cfa3000000000000000000000000000000000000000000000000000000007bffffffffffffffffffffffffffffffffffffffffffffffffffffffff19166020820180517bffffffffffffffffffffffffffffffffffffffffffffffffffffffff83818316178352505050506117d4565b5050565b8173ffffffffffffffffffffffffffffffffffffffff168373ffffffffffffffffffffffffffffffffffffffff161415611250576040517f08c379a00000000000000000000000000000000000000000000000000000000081526004016112479061206c565b60405180910390fd5b80600560008573ffffffffffffffffffffffffffffffffffffffff1673ffffffffffffffffffffffffffffffffffffffff16815260200190815260200160002060008473ffffffffffffffffffffffffffffffffffffffff1673ffffffffffffffffffffffffffffffffffffffff16815260200190815260200160002060006101000a81548160ff0219169083151502179055508173ffffffffffffffffffffffffffffffffffffffff168373ffffffffffffffffffffffffffffffffffffffff167f17307eab39ab6107e8899845ad3d59bd9653f200f220920489ca2b5937696c31836040516113419190611faf565b60405180910390a3505050565b611359848484610d1a565b611365848484846117fd565b6113a4576040517f08c379a000000000000000000000000000000000000000000000000000000000815260040161139b90611fec565b60405180910390fd5b50505050565b606060405180602001604052806000815250905090565b60606000821415611409576040518060400160405280600181526020017f30000000000000000000000000000000000000000000000000000000000000008152509050611569565b600082905060005b6000821461143b578080611424906123d4565b915050600a826114349190612256565b9150611411565b60008167ffffffffffffffff81111561147d577f4e487b7100000000000000000000000000000000000000000000000000000000600052604160045260246000fd5b6040519080825280601f01601f1916602001820160405280156114af5781602001600182028036833780820191505090505b5090505b60008514611562576001826114c89190612287565b9150600a856114d7919061241d565b60306114e39190612200565b60f81b81838151811061151f577f4e487b7100000000000000000000000000000000000000000000000000000000600052603260045260246000fd5b60200101907effffffffffffffffffffffffffffffffffffffffffffffffffffffffffffff1916908160001a905350600a8561155b9190612256565b94506114b3565b8093505050505b919050565b600073ffffffffffffffffffffffffffffffffffffffff168273ffffffffffffffffffffffffffffffffffffffff1614156115de576040517f08c379a00000000000000000000000000000000000000000000000000000000081526004016115d5906120cc565b60405180910390fd5b6115e78161175e565b15611627576040517f08c379a000000000000000000000000000000000000000000000000000000000815260040161161e9061202c565b60405180910390fd5b611633600083836117ca565b6001600360008473ffffffffffffffffffffffffffffffffffffffff1673ffffffffffffffffffffffffffffffffffffffff16815260200190815260200160002060008282546116839190612200565b92505081905550816002600083815260200190815260200160002060006101000a81548173ffffffffffffffffffffffffffffffffffffffff021916908373ffffffffffffffffffffffffffffffffffffffff160217905550808273ffffffffffffffffffffffffffffffffffffffff16600073ffffffffffffffffffffffffffffffffffffffff167fddf252ad1be2c89b69c2b068fc378daa952ba7f163c4a11628f55a4df523b3ef60405160405180910390a4611744600083836117cf565b5050565b6001816000016000828254019250508190555050565b60008073ffffffffffffffffffffffffffffffffffffffff166002600084815260200190815260200160002060009054906101000a900473ffffffffffffffffffffffffffffffffffffffff1673ffffffffffffffffffffffffffffffffffffffff1614159050919050565b505050565b505050565b60008151905060006a636f6e736f6c652e6c6f679050602083016000808483855afa5050505050565b600061181e8473ffffffffffffffffffffffffffffffffffffffff16611994565b15611987578373ffffffffffffffffffffffffffffffffffffffff1663150b7a02611847610bc4565b8786866040518563ffffffff1660e01b81526004016118699493929190611f3a565b602060405180830381600087803b15801561188357600080fd5b505af19250505080156118b457506040513d601f19601f820116820180604052508101906118b19190611c58565b60015b611937573d80600081146118e4576040519150601f19603f3d011682016040523d82523d6000602084013e6118e9565b606091505b5060008151141561192f576040517f08c379a000000000000000000000000000000000000000000000000000000000815260040161192690611fec565b60405180910390fd5b805181602001fd5b63150b7a0260e01b7bffffffffffffffffffffffffffffffffffffffffffffffffffffffff1916817bffffffffffffffffffffffffffffffffffffffffffffffffffffffff19161491505061198c565b600190505b949350505050565b6000808273ffffffffffffffffffffffffffffffffffffffff163b119050919050565b60006119ca6119c58461218c565b612167565b9050828152602081018484840111156119e257600080fd5b6119ed84828561232f565b509392505050565b600081359050611a04816127e8565b92915050565b600081359050611a19816127ff565b92915050565b600081359050611a2e81612816565b92915050565b600081519050611a4381612816565b92915050565b600082601f830112611a5a57600080fd5b8135611a6a8482602086016119b7565b91505092915050565b600081359050611a828161282d565b92915050565b600060208284031215611a9a57600080fd5b6000611aa8848285016119f5565b91505092915050565b60008060408385031215611ac457600080fd5b6000611ad2858286016119f5565b9250506020611ae3858286016119f5565b9150509250929050565b600080600060608486031215611b0257600080fd5b6000611b10868287016119f5565b9350506020611b21868287016119f5565b9250506040611b3286828701611a73565b9150509250925092565b60008060008060808587031215611b5257600080fd5b6000611b60878288016119f5565b9450506020611b71878288016119f5565b9350506040611b8287828801611a73565b925050606085013567ffffffffffffffff811115611b9f57600080fd5b611bab87828801611a49565b91505092959194509250565b60008060408385031215611bca57600080fd5b6000611bd8858286016119f5565b9250506020611be985828601611a0a565b9150509250929050565b60008060408385031215611c0657600080fd5b6000611c14858286016119f5565b9250506020611c2585828601611a73565b9150509250929050565b600060208284031215611c4157600080fd5b6000611c4f84828501611a1f565b91505092915050565b600060208284031215611c6a57600080fd5b6000611c7884828501611a34565b91505092915050565b600060208284031215611c9357600080fd5b6000611ca184828501611a73565b91505092915050565b611cb3816122bb565b82525050565b611cc2816122cd565b82525050565b6000611cd3826121bd565b611cdd81856121d3565b9350611ced81856020860161233e565b611cf68161250a565b840191505092915050565b6000611d0c826121c8565b611d1681856121e4565b9350611d2681856020860161233e565b611d2f8161250a565b840191505092915050565b6000611d45826121c8565b611d4f81856121f5565b9350611d5f81856020860161233e565b80840191505092915050565b6000611d786032836121e4565b9150611d838261251b565b604082019050919050565b6000611d9b6025836121e4565b9150611da68261256a565b604082019050919050565b6000611dbe601c836121e4565b9150611dc9826125b9565b602082019050919050565b6000611de16024836121e4565b9150611dec826125e2565b604082019050919050565b6000611e046019836121e4565b9150611e0f82612631565b602082019050919050565b6000611e276029836121e4565b9150611e328261265a565b604082019050919050565b6000611e4a603e836121e4565b9150611e55826126a9565b604082019050919050565b6000611e6d6020836121e4565b9150611e78826126f8565b602082019050919050565b6000611e906018836121e4565b9150611e9b82612721565b602082019050919050565b6000611eb36021836121e4565b9150611ebe8261274a565b604082019050919050565b6000611ed6602e836121e4565b9150611ee182612799565b604082019050919050565b611ef581612325565b82525050565b6000611f078285611d3a565b9150611f138284611d3a565b91508190509392505050565b6000602082019050611f346000830184611caa565b92915050565b6000608082019050611f4f6000830187611caa565b611f5c6020830186611caa565b611f696040830185611eec565b8181036060830152611f7b8184611cc8565b905095945050505050565b6000604082019050611f9b6000830185611caa565b611fa86020830184611eec565b9392505050565b6000602082019050611fc46000830184611cb9565b92915050565b60006020820190508181036000830152611fe48184611d01565b905092915050565b6000602082019050818103600083015261200581611d6b565b9050919050565b6000602082019050818103600083015261202581611d8e565b9050919050565b6000602082019050818103600083015261204581611db1565b9050919050565b6000602082019050818103600083015261206581611dd4565b9050919050565b6000602082019050818103600083015261208581611df7565b9050919050565b600060208201905081810360008301526120a581611e1a565b9050919050565b600060208201905081810360008301526120c581611e3d565b9050919050565b600060208201905081810360008301526120e581611e60565b9050919050565b6000602082019050818103600083015261210581611e83565b9050919050565b6000602082019050818103600083015261212581611ea6565b9050919050565b6000602082019050818103600083015261214581611ec9565b9050919050565b60006020820190506121616000830184611eec565b92915050565b6000612171612182565b905061217d82826123a3565b919050565b6000604051905090565b600067ffffffffffffffff8211156121a7576121a66124db565b5b6121b08261250a565b9050602081019050919050565b600081519050919050565b600081519050919050565b600082825260208201905092915050565b600082825260208201905092915050565b600081905092915050565b600061220b82612325565b915061221683612325565b9250827fffffffffffffffffffffffffffffffffffffffffffffffffffffffffffffffff0382111561224b5761224a61244e565b5b828201905092915050565b600061226182612325565b915061226c83612325565b92508261227c5761227b61247d565b5b828204905092915050565b600061229282612325565b915061229d83612325565b9250828210156122b0576122af61244e565b5b828203905092915050565b60006122c682612305565b9050919050565b60008115159050919050565b60007fffffffff0000000000000000000000000000000000000000000000000000000082169050919050565b600073ffffffffffffffffffffffffffffffffffffffff82169050919050565b6000819050919050565b82818337600083830152505050565b60005b8381101561235c578082015181840152602081019050612341565b8381111561236b576000848401525b50505050565b6000600282049050600182168061238957607f821691505b6020821081141561239d5761239c6124ac565b5b50919050565b6123ac8261250a565b810181811067ffffffffffffffff821117156123cb576123ca6124db565b5b80604052505050565b60006123df82612325565b91507fffffffffffffffffffffffffffffffffffffffffffffffffffffffffffffffff8214156124125761241161244e565b5b600182019050919050565b600061242882612325565b915061243383612325565b9250826124435761244261247d565b5b828206905092915050565b7f4e487b7100000000000000000000000000000000000000000000000000000000600052601160045260246000fd5b7f4e487b7100000000000000000000000000000000000000000000000000000000600052601260045260246000fd5b7f4e487b7100000000000000000000000000000000000000000000000000000000600052602260045260246000fd5b7f4e487b7100000000000000000000000000000000000000000000000000000000600052604160045260246000fd5b6000601f19601f8301169050919050565b7f4552433732313a207472616e7366657220746f206e6f6e20455243373231526560008201527f63656976657220696d706c656d656e7465720000000000000000000000000000602082015250565b7f4552433732313a207472616e736665722066726f6d20696e636f72726563742060008201527f6f776e6572000000000000000000000000000000000000000000000000000000602082015250565b7f4552433732313a20746f6b656e20616c7265616479206d696e74656400000000600082015250565b7f4552433732313a207472616e7366657220746f20746865207a65726f2061646460008201527f7265737300000000000000000000000000000000000000000000000000000000602082015250565b7f4552433732313a20617070726f766520746f2063616c6c657200000000000000600082015250565b7f4552433732313a2061646472657373207a65726f206973206e6f74206120766160008201527f6c6964206f776e65720000000000000000000000000000000000000000000000602082015250565b7f4552433732313a20617070726f76652063616c6c6572206973206e6f7420746f60008201527f6b656e206f776e6572206e6f7220617070726f76656420666f7220616c6c0000602082015250565b7f4552433732313a206d696e7420746f20746865207a65726f2061646472657373600082015250565b7f4552433732313a20696e76616c696420746f6b656e2049440000000000000000600082015250565b7f4552433732313a20617070726f76616c20746f2063757272656e74206f776e6560008201527f7200000000000000000000000000000000000000000000000000000000000000602082015250565b7f4552433732313a2063616c6c6572206973206e6f7420746f6b656e206f776e6560008201527f72206e6f7220617070726f766564000000000000000000000000000000000000602082015250565b6127f1816122bb565b81146127fc57600080fd5b50565b612808816122cd565b811461281357600080fd5b50565b61281f816122d9565b811461282a57600080fd5b50565b61283681612325565b811461284157600080fd5b5056fea2646970667358221220f6f8ac186b1259730679747099f2597bfd29ca63a873cc7d96b5e9fbd2783b4764736f6c63430008040033",
  "linkReferences": {},
  "deployedLinkReferences": {}
}