{
  "_format": "hh-sol-artifact-1",
  "contractName": "NFTMarketplace",
  "sourceName": "contracts/NFTMarketplace.sol",
  "abi": [
    {
      "inputs": [],
      "stateMutability": "nonpayable",
      "type": "constructor"
    },
    {
      "anonymous": false,
      "inputs": [
        {
          "indexed": true,
          "internalType": "address",
          "name": "owner",
          "type": "address"
        },
        {
          "indexed": true,
          "internalType": "address",
          "name": "approved",
          "type": "address"
        },
        {
          "indexed": true,
          "internalType": "uint256",
          "name": "tokenId",
          "type": "uint256"
        }
      ],
      "name": "Approval",
      "type": "event"
    },
    {
      "anonymous": false,
      "inputs": [
        {
          "indexed": true,
          "internalType": "address",
          "name": "owner",
          "type": "address"
        },
        {
          "indexed": true,
          "internalType": "address",
          "name": "operator",
          "type": "address"
        },
        {
          "indexed": false,
          "internalType": "bool",
          "name": "approved",
          "type": "bool"
        }
      ],
      "name": "ApprovalForAll",
      "type": "event"
    },
    {
      "anonymous": false,
      "inputs": [
        {
          "indexed": true,
          "internalType": "uint256",
          "name": "tokenId",
          "type": "uint256"
        },
        {
          "indexed": false,
          "internalType": "address",
          "name": "seller",
          "type": "address"
        },
        {
          "indexed": false,
          "internalType": "address",
          "name": "owner",
          "type": "address"
        },
        {
          "indexed": false,
          "internalType": "uint256",
          "name": "price",
          "type": "uint256"
        },
        {
          "indexed": false,
          "internalType": "bool",
          "name": "sold",
          "type": "bool"
        }
      ],
      "name": "MarketItemCreated",
      "type": "event"
    },
    {
      "anonymous": false,
      "inputs": [
        {
          "indexed": true,
          "internalType": "address",
          "name": "from",
          "type": "address"
        },
        {
          "indexed": true,
          "internalType": "address",
          "name": "to",
          "type": "address"
        },
        {
          "indexed": true,
          "internalType": "uint256",
          "name": "tokenId",
          "type": "uint256"
        }
      ],
      "name": "Transfer",
      "type": "event"
    },
    {
      "inputs": [
        {
          "internalType": "address",
          "name": "to",
          "type": "address"
        },
        {
          "internalType": "uint256",
          "name": "tokenId",
          "type": "uint256"
        }
      ],
      "name": "approve",
      "outputs": [],
      "stateMutability": "nonpayable",
      "type": "function"
    },
    {
      "inputs": [
        {
          "internalType": "address",
          "name": "owner",
          "type": "address"
        }
      ],
      "name": "balanceOf",
      "outputs": [
        {
          "internalType": "uint256",
          "name": "",
          "type": "uint256"
        }
      ],
      "stateMutability": "view",
      "type": "function"
    },
    {
      "inputs": [
        {
          "internalType": "uint256",
          "name": "tokenId",
          "type": "uint256"
        }
      ],
      "name": "burn",
      "outputs": [],
      "stateMutability": "nonpayable",
      "type": "function"
    },
    {
      "inputs": [
        {
          "internalType": "uint256",
          "name": "tokenId",
          "type": "uint256"
        }
      ],
      "name": "burnNFT",
      "outputs": [],
      "stateMutability": "nonpayable",
      "type": "function"
    },
    {
      "inputs": [
        {
          "internalType": "uint256",
          "name": "tokenId",
          "type": "uint256"
        }
      ],
      "name": "createMarketSale",
      "outputs": [],
      "stateMutability": "payable",
      "type": "function"
    },
    {
      "inputs": [
        {
          "internalType": "uint256",
          "name": "price",
          "type": "uint256"
        }
      ],
      "name": "createToken",
      "outputs": [
        {
          "internalType": "uint256",
          "name": "",
          "type": "uint256"
        }
      ],
      "stateMutability": "payable",
      "type": "function"
    },
    {
      "inputs": [],
      "name": "fetchItemsListed",
      "outputs": [
        {
          "components": [
            {
              "internalType": "uint256",
              "name": "tokenId",
              "type": "uint256"
            },
            {
              "internalType": "address payable",
              "name": "seller",
              "type": "address"
            },
            {
              "internalType": "address payable",
              "name": "owner",
              "type": "address"
            },
            {
              "internalType": "uint256",
              "name": "price",
              "type": "uint256"
            },
            {
              "internalType": "bool",
              "name": "sold",
              "type": "bool"
            }
          ],
          "internalType": "struct NFTMarketplace.MarketItem[]",
          "name": "",
          "type": "tuple[]"
        }
      ],
      "stateMutability": "view",
      "type": "function"
    },
    {
      "inputs": [],
      "name": "fetchMarketItems",
      "outputs": [
        {
          "components": [
            {
              "internalType": "uint256",
              "name": "tokenId",
              "type": "uint256"
            },
            {
              "internalType": "address payable",
              "name": "seller",
              "type": "address"
            },
            {
              "internalType": "address payable",
              "name": "owner",
              "type": "address"
            },
            {
              "internalType": "uint256",
              "name": "price",
              "type": "uint256"
            },
            {
              "internalType": "bool",
              "name": "sold",
              "type": "bool"
            }
          ],
          "internalType": "struct NFTMarketplace.MarketItem[]",
          "name": "",
          "type": "tuple[]"
        }
      ],
      "stateMutability": "view",
      "type": "function"
    },
    {
      "inputs": [],
      "name": "fetchMyNFTs",
      "outputs": [
        {
          "components": [
            {
              "internalType": "uint256",
              "name": "tokenId",
              "type": "uint256"
            },
            {
              "internalType": "address payable",
              "name": "seller",
              "type": "address"
            },
            {
              "internalType": "address payable",
              "name": "owner",
              "type": "address"
            },
            {
              "internalType": "uint256",
              "name": "price",
              "type": "uint256"
            },
            {
              "internalType": "bool",
              "name": "sold",
              "type": "bool"
            }
          ],
          "internalType": "struct NFTMarketplace.MarketItem[]",
          "name": "",
          "type": "tuple[]"
        }
      ],
      "stateMutability": "view",
      "type": "function"
    },
    {
      "inputs": [
        {
          "internalType": "uint256",
          "name": "tokenId",
          "type": "uint256"
        }
      ],
      "name": "getApproved",
      "outputs": [
        {
          "internalType": "address",
          "name": "",
          "type": "address"
        }
      ],
      "stateMutability": "view",
      "type": "function"
    },
    {
      "inputs": [],
      "name": "getListingPrice",
      "outputs": [
        {
          "internalType": "uint256",
          "name": "",
          "type": "uint256"
        }
      ],
      "stateMutability": "view",
      "type": "function"
    },
    {
      "inputs": [
        {
          "internalType": "address",
          "name": "owner",
          "type": "address"
        },
        {
          "internalType": "address",
          "name": "operator",
          "type": "address"
        }
      ],
      "name": "isApprovedForAll",
      "outputs": [
        {
          "internalType": "bool",
          "name": "",
          "type": "bool"
        }
      ],
      "stateMutability": "view",
      "type": "function"
    },
    {
      "inputs": [],
      "name": "name",
      "outputs": [
        {
          "internalType": "string",
          "name": "",
          "type": "string"
        }
      ],
      "stateMutability": "view",
      "type": "function"
    },
    {
      "inputs": [
        {
          "internalType": "uint256",
          "name": "tokenId",
          "type": "uint256"
        }
      ],
      "name": "ownerOf",
      "outputs": [
        {
          "internalType": "address",
          "name": "",
          "type": "address"
        }
      ],
      "stateMutability": "view",
      "type": "function"
    },
    {
      "inputs": [
        {
          "internalType": "uint256",
          "name": "tokenId",
          "type": "uint256"
        }
      ],
      "name": "print",
      "outputs": [],
      "stateMutability": "view",
      "type": "function"
    },
    {
      "inputs": [
        {
          "internalType": "uint256",
          "name": "tokenId",
          "type": "uint256"
        },
        {
          "internalType": "uint256",
          "name": "price",
          "type": "uint256"
        }
      ],
      "name": "resellToken",
      "outputs": [],
      "stateMutability": "payable",
      "type": "function"
    },
    {
      "inputs": [
        {
          "internalType": "address",
          "name": "from",
          "type": "address"
        },
        {
          "internalType": "address",
          "name": "to",
          "type": "address"
        },
        {
          "internalType": "uint256",
          "name": "tokenId",
          "type": "uint256"
        }
      ],
      "name": "safeTransferFrom",
      "outputs": [],
      "stateMutability": "nonpayable",
      "type": "function"
    },
    {
      "inputs": [
        {
          "internalType": "address",
          "name": "from",
          "type": "address"
        },
        {
          "internalType": "address",
          "name": "to",
          "type": "address"
        },
        {
          "internalType": "uint256",
          "name": "tokenId",
          "type": "uint256"
        },
        {
          "internalType": "bytes",
          "name": "data",
          "type": "bytes"
        }
      ],
      "name": "safeTransferFrom",
      "outputs": [],
      "stateMutability": "nonpayable",
      "type": "function"
    },
    {
      "inputs": [
        {
          "internalType": "address",
          "name": "operator",
          "type": "address"
        },
        {
          "internalType": "bool",
          "name": "approved",
          "type": "bool"
        }
      ],
      "name": "setApprovalForAll",
      "outputs": [],
      "stateMutability": "nonpayable",
      "type": "function"
    },
    {
      "inputs": [
        {
          "internalType": "bytes4",
          "name": "interfaceId",
          "type": "bytes4"
        }
      ],
      "name": "supportsInterface",
      "outputs": [
        {
          "internalType": "bool",
          "name": "",
          "type": "bool"
        }
      ],
      "stateMutability": "view",
      "type": "function"
    },
    {
      "inputs": [],
      "name": "symbol",
      "outputs": [
        {
          "internalType": "string",
          "name": "",
          "type": "string"
        }
      ],
      "stateMutability": "view",
      "type": "function"
    },
    {
      "inputs": [
        {
          "internalType": "uint256",
          "name": "tokenId",
          "type": "uint256"
        }
      ],
      "name": "tokenURI",
      "outputs": [
        {
          "internalType": "string",
          "name": "",
          "type": "string"
        }
      ],
      "stateMutability": "view",
      "type": "function"
    },
    {
      "inputs": [
        {
          "internalType": "address",
          "name": "from",
          "type": "address"
        },
        {
          "internalType": "address",
          "name": "to",
          "type": "address"
        },
        {
          "internalType": "uint256",
          "name": "tokenId",
          "type": "uint256"
        }
      ],
      "name": "transferFrom",
      "outputs": [],
      "stateMutability": "nonpayable",
      "type": "function"
    },
    {
      "inputs": [
        {
          "internalType": "uint256",
          "name": "_listingPrice",
          "type": "uint256"
        }
      ],
      "name": "updateListingPrice",
      "outputs": [],
      "stateMutability": "payable",
      "type": "function"
    }
  ],
  "bytecode": "0x60806040526658d15e176280006008553480156200001c57600080fd5b506040518060400160405280601081526020017f4d657461766572736520546f6b656e73000000000000000000000000000000008152506040518060400160405280600481526020017f4d455454000000000000000000000000000000000000000000000000000000008152508160009080519060200190620000a192919062000104565b508060019080519060200190620000ba92919062000104565b50505033600960006101000a81548173ffffffffffffffffffffffffffffffffffffffff021916908373ffffffffffffffffffffffffffffffffffffffff16021790555062000219565b8280546200011290620001b4565b90600052602060002090601f01602090048101928262000136576000855562000182565b82601f106200015157805160ff191683800117855562000182565b8280016001018555821562000182579182015b828111156200018157825182559160200191906001019062000164565b5b50905062000191919062000195565b5090565b5b80821115620001b057600081600090555060010162000196565b5090565b60006002820490506001821680620001cd57607f821691505b60208210811415620001e457620001e3620001ea565b5b50919050565b7f4e487b7100000000000000000000000000000000000000000000000000000000600052602260045260246000fd5b61413380620002296000396000f3fe60806040526004361061014b5760003560e01c806345f8fa80116100b6578063ae677aa31161006f578063ae677aa314610495578063b88d4fde146104b1578063be9af536146104da578063c87b56dd146104f6578063e219fc7514610533578063e985e9c51461054f5761014b565b806345f8fa80146103735780636352211e1461039e5780636bb0ae10146103db57806370a082311461040457806395d89b4114610441578063a22cb4651461046c5761014b565b8063202e374011610108578063202e37401461027457806323b872dd1461029f5780632890e0d7146102c85780632d571cc4146102f157806342842e0e1461032157806342966c681461034a5761014b565b806301ffc9a71461015057806306fdde031461018d578063081812fc146101b8578063095ea7b3146101f55780630f08efe01461021e57806312e8558514610249575b600080fd5b34801561015c57600080fd5b5061017760048036038101906101729190612ff8565b61058c565b60405161018491906135cf565b60405180910390f35b34801561019957600080fd5b506101a261066e565b6040516101af91906135ea565b60405180910390f35b3480156101c457600080fd5b506101df60048036038101906101da919061304a565b610700565b6040516101ec9190613501565b60405180910390f35b34801561020157600080fd5b5061021c60048036038101906102179190612fbc565b610746565b005b34801561022a57600080fd5b5061023361085e565b60405161024091906135ad565b60405180910390f35b34801561025557600080fd5b5061025e610b13565b60405161026b919061382c565b60405180910390f35b34801561028057600080fd5b50610289610b1d565b60405161029691906135ad565b60405180910390f35b3480156102ab57600080fd5b506102c660048036038101906102c19190612eb6565b610e57565b005b3480156102d457600080fd5b506102ef60048036038101906102ea919061304a565b610eb7565b005b61030b6004803603810190610306919061304a565b610ec3565b604051610318919061382c565b60405180910390f35b34801561032d57600080fd5b5061034860048036038101906103439190612eb6565b610f41565b005b34801561035657600080fd5b50610371600480360381019061036c919061304a565b610f61565b005b34801561037f57600080fd5b50610388610fbd565b60405161039591906135ad565b60405180910390f35b3480156103aa57600080fd5b506103c560048036038101906103c0919061304a565b6112f7565b6040516103d29190613501565b60405180910390f35b3480156103e757600080fd5b5061040260048036038101906103fd919061304a565b6113a9565b005b34801561041057600080fd5b5061042b60048036038101906104269190612e51565b6113fb565b604051610438919061382c565b60405180910390f35b34801561044d57600080fd5b506104566114b3565b60405161046391906135ea565b60405180910390f35b34801561047857600080fd5b50610493600480360381019061048e9190612f80565b611545565b005b6104af60048036038101906104aa919061304a565b61155b565b005b3480156104bd57600080fd5b506104d860048036038101906104d39190612f05565b6115f5565b005b6104f460048036038101906104ef919061304a565b611657565b005b34801561050257600080fd5b5061051d6004803603810190610518919061304a565b611895565b60405161052a91906135ea565b60405180910390f35b61054d60048036038101906105489190613073565b6118fd565b005b34801561055b57600080fd5b5061057660048036038101906105719190612e7a565b611af2565b60405161058391906135cf565b60405180910390f35b60007f80ac58cd000000000000000000000000000000000000000000000000000000007bffffffffffffffffffffffffffffffffffffffffffffffffffffffff1916827bffffffffffffffffffffffffffffffffffffffffffffffffffffffff1916148061065757507f5b5e139f000000000000000000000000000000000000000000000000000000007bffffffffffffffffffffffffffffffffffffffffffffffffffffffff1916827bffffffffffffffffffffffffffffffffffffffffffffffffffffffff1916145b80610667575061066682611b86565b5b9050919050565b60606000805461067d90613a9c565b80601f01602080910402602001604051908101604052809291908181526020018280546106a990613a9c565b80156106f65780601f106106cb576101008083540402835291602001916106f6565b820191906000526020600020905b8154815290600101906020018083116106d957829003601f168201915b5050505050905090565b600061070b82611bf0565b6004600083815260200190815260200160002060009054906101000a900473ffffffffffffffffffffffffffffffffffffffff169050919050565b6000610751826112f7565b90508073ffffffffffffffffffffffffffffffffffffffff168373ffffffffffffffffffffffffffffffffffffffff1614156107c2576040517f08c379a00000000000000000000000000000000000000000000000000000000081526004016107b99061378c565b60405180910390fd5b8073ffffffffffffffffffffffffffffffffffffffff166107e1611c3b565b73ffffffffffffffffffffffffffffffffffffffff161480610810575061080f8161080a611c3b565b611af2565b5b61084f576040517f08c379a00000000000000000000000000000000000000000000000000000000081526004016108469061370c565b60405180910390fd5b6108598383611c43565b505050565b6060600061086c6006611cfc565b9050600061087a6007611cfc565b6108846006611cfc565b61088e91906139a0565b90506000808267ffffffffffffffff8111156108d3577f4e487b7100000000000000000000000000000000000000000000000000000000600052604160045260246000fd5b60405190808252806020026020018201604052801561090c57816020015b6108f9612d23565b8152602001906001900390816108f15790505b50905060005b84811015610b08573073ffffffffffffffffffffffffffffffffffffffff16600a60006001846109429190613919565b815260200190815260200160002060020160009054906101000a900473ffffffffffffffffffffffffffffffffffffffff1673ffffffffffffffffffffffffffffffffffffffff161415610af557600060018261099f9190613919565b90506000600a60008381526020019081526020016000209050806040518060a0016040529081600082015481526020016001820160009054906101000a900473ffffffffffffffffffffffffffffffffffffffff1673ffffffffffffffffffffffffffffffffffffffff1673ffffffffffffffffffffffffffffffffffffffff1681526020016002820160009054906101000a900473ffffffffffffffffffffffffffffffffffffffff1673ffffffffffffffffffffffffffffffffffffffff1673ffffffffffffffffffffffffffffffffffffffff168152602001600382015481526020016004820160009054906101000a900460ff161515151581525050848681518110610ad8577f4e487b7100000000000000000000000000000000000000000000000000000000600052603260045260246000fd5b6020026020010181905250600185610af09190613919565b945050505b8080610b0090613aff565b915050610912565b508094505050505090565b6000600854905090565b60606000610b2b6006611cfc565b905060008060005b83811015610bd4573373ffffffffffffffffffffffffffffffffffffffff16600a6000600184610b639190613919565b815260200190815260200160002060020160009054906101000a900473ffffffffffffffffffffffffffffffffffffffff1673ffffffffffffffffffffffffffffffffffffffff161415610bc157600183610bbe9190613919565b92505b8080610bcc90613aff565b915050610b33565b5060008267ffffffffffffffff811115610c17577f4e487b7100000000000000000000000000000000000000000000000000000000600052604160045260246000fd5b604051908082528060200260200182016040528015610c5057816020015b610c3d612d23565b815260200190600190039081610c355790505b50905060005b84811015610e4c573373ffffffffffffffffffffffffffffffffffffffff16600a6000600184610c869190613919565b815260200190815260200160002060020160009054906101000a900473ffffffffffffffffffffffffffffffffffffffff1673ffffffffffffffffffffffffffffffffffffffff161415610e39576000600182610ce39190613919565b90506000600a60008381526020019081526020016000209050806040518060a0016040529081600082015481526020016001820160009054906101000a900473ffffffffffffffffffffffffffffffffffffffff1673ffffffffffffffffffffffffffffffffffffffff1673ffffffffffffffffffffffffffffffffffffffff1681526020016002820160009054906101000a900473ffffffffffffffffffffffffffffffffffffffff1673ffffffffffffffffffffffffffffffffffffffff1673ffffffffffffffffffffffffffffffffffffffff168152602001600382015481526020016004820160009054906101000a900460ff161515151581525050848681518110610e1c577f4e487b7100000000000000000000000000000000000000000000000000000000600052603260045260246000fd5b6020026020010181905250600185610e349190613919565b945050505b8080610e4490613aff565b915050610c56565b508094505050505090565b610e68610e62611c3b565b82611d0a565b610ea7576040517f08c379a0000000000000000000000000000000000000000000000000000000008152600401610e9e906137ec565b60405180910390fd5b610eb2838383611d9f565b505050565b610ec081610f61565b50565b6000610ecf6006612006565b6000610edb6006611cfc565b9050610ee7338261201c565b610f256040518060400160405280600e81526020017f4d696e7465642077697468203a200000000000000000000000000000000000008152506121f6565b610f2e8161228f565b610f388184612328565b80915050919050565b610f5c838383604051806020016040528060008152506115f5565b505050565b610f72610f6c611c3b565b82611d0a565b610fb1576040517f08c379a0000000000000000000000000000000000000000000000000000000008152600401610fa8906137ec565b60405180910390fd5b610fba8161252b565b50565b60606000610fcb6006611cfc565b905060008060005b83811015611074573373ffffffffffffffffffffffffffffffffffffffff16600a60006001846110039190613919565b815260200190815260200160002060010160009054906101000a900473ffffffffffffffffffffffffffffffffffffffff1673ffffffffffffffffffffffffffffffffffffffff1614156110615760018361105e9190613919565b92505b808061106c90613aff565b915050610fd3565b5060008267ffffffffffffffff8111156110b7577f4e487b7100000000000000000000000000000000000000000000000000000000600052604160045260246000fd5b6040519080825280602002602001820160405280156110f057816020015b6110dd612d23565b8152602001906001900390816110d55790505b50905060005b848110156112ec573373ffffffffffffffffffffffffffffffffffffffff16600a60006001846111269190613919565b815260200190815260200160002060010160009054906101000a900473ffffffffffffffffffffffffffffffffffffffff1673ffffffffffffffffffffffffffffffffffffffff1614156112d95760006001826111839190613919565b90506000600a60008381526020019081526020016000209050806040518060a0016040529081600082015481526020016001820160009054906101000a900473ffffffffffffffffffffffffffffffffffffffff1673ffffffffffffffffffffffffffffffffffffffff1673ffffffffffffffffffffffffffffffffffffffff1681526020016002820160009054906101000a900473ffffffffffffffffffffffffffffffffffffffff1673ffffffffffffffffffffffffffffffffffffffff1673ffffffffffffffffffffffffffffffffffffffff168152602001600382015481526020016004820160009054906101000a900460ff1615151515815250508486815181106112bc577f4e487b7100000000000000000000000000000000000000000000000000000000600052603260045260246000fd5b60200260200101819052506001856112d49190613919565b945050505b80806112e490613aff565b9150506110f6565b508094505050505090565b6000806002600084815260200190815260200160002060009054906101000a900473ffffffffffffffffffffffffffffffffffffffff169050600073ffffffffffffffffffffffffffffffffffffffff168173ffffffffffffffffffffffffffffffffffffffff1614156113a0576040517f08c379a00000000000000000000000000000000000000000000000000000000081526004016113979061376c565b60405180910390fd5b80915050919050565b6113e76040518060400160405280601781526020017f4f776e6572206f662074686520746f6b656e2069733a200000000000000000008152506121f6565b6113f86113f3826112f7565b612648565b50565b60008073ffffffffffffffffffffffffffffffffffffffff168273ffffffffffffffffffffffffffffffffffffffff16141561146c576040517f08c379a0000000000000000000000000000000000000000000000000000000008152600401611463906136cc565b60405180910390fd5b600360008373ffffffffffffffffffffffffffffffffffffffff1673ffffffffffffffffffffffffffffffffffffffff168152602001908152602001600020549050919050565b6060600180546114c290613a9c565b80601f01602080910402602001604051908101604052809291908181526020018280546114ee90613a9c565b801561153b5780601f106115105761010080835404028352916020019161153b565b820191906000526020600020905b81548152906001019060200180831161151e57829003601f168201915b5050505050905090565b611557611550611c3b565b83836126e1565b5050565b3373ffffffffffffffffffffffffffffffffffffffff16600960009054906101000a900473ffffffffffffffffffffffffffffffffffffffff1673ffffffffffffffffffffffffffffffffffffffff16146115eb576040517f08c379a00000000000000000000000000000000000000000000000000000000081526004016115e2906137cc565b60405180910390fd5b8060088190555050565b611606611600611c3b565b83611d0a565b611645576040517f08c379a000000000000000000000000000000000000000000000000000000000815260040161163c906137ec565b60405180910390fd5b6116518484848461284e565b50505050565b6000600a60008381526020019081526020016000206003015490506000600a600084815260200190815260200160002060010160009054906101000a900473ffffffffffffffffffffffffffffffffffffffff1690508134146116ef576040517f08c379a00000000000000000000000000000000000000000000000000000000081526004016116e6906136ec565b60405180910390fd5b33600a600085815260200190815260200160002060020160006101000a81548173ffffffffffffffffffffffffffffffffffffffff021916908373ffffffffffffffffffffffffffffffffffffffff1602179055506001600a600085815260200190815260200160002060040160006101000a81548160ff0219169083151502179055506000600a600085815260200190815260200160002060010160006101000a81548173ffffffffffffffffffffffffffffffffffffffff021916908373ffffffffffffffffffffffffffffffffffffffff1602179055506117d36007612006565b6117de303385611d9f565b600960009054906101000a900473ffffffffffffffffffffffffffffffffffffffff1673ffffffffffffffffffffffffffffffffffffffff166108fc6008549081150290604051600060405180830381858888f19350505050158015611848573d6000803e3d6000fd5b508073ffffffffffffffffffffffffffffffffffffffff166108fc349081150290604051600060405180830381858888f1935050505015801561188f573d6000803e3d6000fd5b50505050565b60606118a082611bf0565b60006118aa6128aa565b905060008151116118ca57604051806020016040528060008152506118f5565b806118d4846128c1565b6040516020016118e59291906134dd565b6040516020818303038152906040525b915050919050565b3373ffffffffffffffffffffffffffffffffffffffff16600a600084815260200190815260200160002060020160009054906101000a900473ffffffffffffffffffffffffffffffffffffffff1673ffffffffffffffffffffffffffffffffffffffff16146119a1576040517f08c379a00000000000000000000000000000000000000000000000000000000081526004016119989061374c565b60405180910390fd5b60085434146119e5576040517f08c379a00000000000000000000000000000000000000000000000000000000081526004016119dc906137ac565b60405180910390fd5b6000600a600084815260200190815260200160002060040160006101000a81548160ff02191690831515021790555080600a60008481526020019081526020016000206003018190555033600a600084815260200190815260200160002060010160006101000a81548173ffffffffffffffffffffffffffffffffffffffff021916908373ffffffffffffffffffffffffffffffffffffffff16021790555030600a600084815260200190815260200160002060020160006101000a81548173ffffffffffffffffffffffffffffffffffffffff021916908373ffffffffffffffffffffffffffffffffffffffff160217905550611ae36007612a6e565b611aee333084611d9f565b5050565b6000600560008473ffffffffffffffffffffffffffffffffffffffff1673ffffffffffffffffffffffffffffffffffffffff16815260200190815260200160002060008373ffffffffffffffffffffffffffffffffffffffff1673ffffffffffffffffffffffffffffffffffffffff16815260200190815260200160002060009054906101000a900460ff16905092915050565b60007f01ffc9a7000000000000000000000000000000000000000000000000000000007bffffffffffffffffffffffffffffffffffffffffffffffffffffffff1916827bffffffffffffffffffffffffffffffffffffffffffffffffffffffff1916149050919050565b611bf981612aca565b611c38576040517f08c379a0000000000000000000000000000000000000000000000000000000008152600401611c2f9061376c565b60405180910390fd5b50565b600033905090565b816004600083815260200190815260200160002060006101000a81548173ffffffffffffffffffffffffffffffffffffffff021916908373ffffffffffffffffffffffffffffffffffffffff160217905550808273ffffffffffffffffffffffffffffffffffffffff16611cb6836112f7565b73ffffffffffffffffffffffffffffffffffffffff167f8c5be1e5ebec7d5bd14f71427d1e84f3dd0314c0f7b2291e5b200ac8c7c3b92560405160405180910390a45050565b600081600001549050919050565b600080611d16836112f7565b90508073ffffffffffffffffffffffffffffffffffffffff168473ffffffffffffffffffffffffffffffffffffffff161480611d585750611d578185611af2565b5b80611d9657508373ffffffffffffffffffffffffffffffffffffffff16611d7e84610700565b73ffffffffffffffffffffffffffffffffffffffff16145b91505092915050565b8273ffffffffffffffffffffffffffffffffffffffff16611dbf826112f7565b73ffffffffffffffffffffffffffffffffffffffff1614611e15576040517f08c379a0000000000000000000000000000000000000000000000000000000008152600401611e0c9061364c565b60405180910390fd5b600073ffffffffffffffffffffffffffffffffffffffff168273ffffffffffffffffffffffffffffffffffffffff161415611e85576040517f08c379a0000000000000000000000000000000000000000000000000000000008152600401611e7c9061368c565b60405180910390fd5b611e90838383612b36565b611e9b600082611c43565b6001600360008573ffffffffffffffffffffffffffffffffffffffff1673ffffffffffffffffffffffffffffffffffffffff1681526020019081526020016000206000828254611eeb91906139a0565b925050819055506001600360008473ffffffffffffffffffffffffffffffffffffffff1673ffffffffffffffffffffffffffffffffffffffff1681526020019081526020016000206000828254611f429190613919565b92505081905550816002600083815260200190815260200160002060006101000a81548173ffffffffffffffffffffffffffffffffffffffff021916908373ffffffffffffffffffffffffffffffffffffffff160217905550808273ffffffffffffffffffffffffffffffffffffffff168473ffffffffffffffffffffffffffffffffffffffff167fddf252ad1be2c89b69c2b068fc378daa952ba7f163c4a11628f55a4df523b3ef60405160405180910390a4612001838383612b3b565b505050565b6001816000016000828254019250508190555050565b600073ffffffffffffffffffffffffffffffffffffffff168273ffffffffffffffffffffffffffffffffffffffff16141561208c576040517f08c379a00000000000000000000000000000000000000000000000000000000081526004016120839061372c565b60405180910390fd5b61209581612aca565b156120d5576040517f08c379a00000000000000000000000000000000000000000000000000000000081526004016120cc9061366c565b60405180910390fd5b6120e160008383612b36565b6001600360008473ffffffffffffffffffffffffffffffffffffffff1673ffffffffffffffffffffffffffffffffffffffff16815260200190815260200160002060008282546121319190613919565b92505081905550816002600083815260200190815260200160002060006101000a81548173ffffffffffffffffffffffffffffffffffffffff021916908373ffffffffffffffffffffffffffffffffffffffff160217905550808273ffffffffffffffffffffffffffffffffffffffff16600073ffffffffffffffffffffffffffffffffffffffff167fddf252ad1be2c89b69c2b068fc378daa952ba7f163c4a11628f55a4df523b3ef60405160405180910390a46121f260008383612b3b565b5050565b61228c8160405160240161220a91906135ea565b6040516020818303038152906040527f41304fac000000000000000000000000000000000000000000000000000000007bffffffffffffffffffffffffffffffffffffffffffffffffffffffff19166020820180517bffffffffffffffffffffffffffffffffffffffffffffffffffffffff8381831617835250505050612b40565b50565b612325816040516024016122a3919061382c565b6040516020818303038152906040527ff5b1bba9000000000000000000000000000000000000000000000000000000007bffffffffffffffffffffffffffffffffffffffffffffffffffffffff19166020820180517bffffffffffffffffffffffffffffffffffffffffffffffffffffffff8381831617835250505050612b40565b50565b6000811161236b576040517f08c379a00000000000000000000000000000000000000000000000000000000081526004016123629061380c565b60405180910390fd5b60085434146123af576040517f08c379a00000000000000000000000000000000000000000000000000000000081526004016123a6906137ac565b60405180910390fd5b6040518060a001604052808381526020013373ffffffffffffffffffffffffffffffffffffffff1681526020013073ffffffffffffffffffffffffffffffffffffffff16815260200182815260200160001515815250600a60008481526020019081526020016000206000820151816000015560208201518160010160006101000a81548173ffffffffffffffffffffffffffffffffffffffff021916908373ffffffffffffffffffffffffffffffffffffffff16021790555060408201518160020160006101000a81548173ffffffffffffffffffffffffffffffffffffffff021916908373ffffffffffffffffffffffffffffffffffffffff1602179055506060820151816003015560808201518160040160006101000a81548160ff0219169083151502179055509050506124e8333084611d9f565b817fb640004f1d14576d0c209e240cad0410e0d8c0c33a09375861fbadae2588a98d333084600060405161251f949392919061351c565b60405180910390a25050565b6000612536826112f7565b905061254481600084612b36565b61254f600083611c43565b6001600360008373ffffffffffffffffffffffffffffffffffffffff1673ffffffffffffffffffffffffffffffffffffffff168152602001908152602001600020600082825461259f91906139a0565b925050819055506002600083815260200190815260200160002060006101000a81549073ffffffffffffffffffffffffffffffffffffffff021916905581600073ffffffffffffffffffffffffffffffffffffffff168273ffffffffffffffffffffffffffffffffffffffff167fddf252ad1be2c89b69c2b068fc378daa952ba7f163c4a11628f55a4df523b3ef60405160405180910390a461264481600084612b3b565b5050565b6126de8160405160240161265c9190613501565b6040516020818303038152906040527f2c2ecbc2000000000000000000000000000000000000000000000000000000007bffffffffffffffffffffffffffffffffffffffffffffffffffffffff19166020820180517bffffffffffffffffffffffffffffffffffffffffffffffffffffffff8381831617835250505050612b40565b50565b8173ffffffffffffffffffffffffffffffffffffffff168373ffffffffffffffffffffffffffffffffffffffff161415612750576040517f08c379a0000000000000000000000000000000000000000000000000000000008152600401612747906136ac565b60405180910390fd5b80600560008573ffffffffffffffffffffffffffffffffffffffff1673ffffffffffffffffffffffffffffffffffffffff16815260200190815260200160002060008473ffffffffffffffffffffffffffffffffffffffff1673ffffffffffffffffffffffffffffffffffffffff16815260200190815260200160002060006101000a81548160ff0219169083151502179055508173ffffffffffffffffffffffffffffffffffffffff168373ffffffffffffffffffffffffffffffffffffffff167f17307eab39ab6107e8899845ad3d59bd9653f200f220920489ca2b5937696c318360405161284191906135cf565b60405180910390a3505050565b612859848484611d9f565b61286584848484612b69565b6128a4576040517f08c379a000000000000000000000000000000000000000000000000000000000815260040161289b9061362c565b60405180910390fd5b50505050565b606060405180602001604052806000815250905090565b60606000821415612909576040518060400160405280600181526020017f30000000000000000000000000000000000000000000000000000000000000008152509050612a69565b600082905060005b6000821461293b57808061292490613aff565b915050600a82612934919061396f565b9150612911565b60008167ffffffffffffffff81111561297d577f4e487b7100000000000000000000000000000000000000000000000000000000600052604160045260246000fd5b6040519080825280601f01601f1916602001820160405280156129af5781602001600182028036833780820191505090505b5090505b60008514612a62576001826129c891906139a0565b9150600a856129d79190613b48565b60306129e39190613919565b60f81b818381518110612a1f577f4e487b7100000000000000000000000000000000000000000000000000000000600052603260045260246000fd5b60200101907effffffffffffffffffffffffffffffffffffffffffffffffffffffffffffff1916908160001a905350600a85612a5b919061396f565b94506129b3565b8093505050505b919050565b60008160000154905060008111612aba576040517f08c379a0000000000000000000000000000000000000000000000000000000008152600401612ab19061360c565b60405180910390fd5b6001810382600001819055505050565b60008073ffffffffffffffffffffffffffffffffffffffff166002600084815260200190815260200160002060009054906101000a900473ffffffffffffffffffffffffffffffffffffffff1673ffffffffffffffffffffffffffffffffffffffff1614159050919050565b505050565b505050565b60008151905060006a636f6e736f6c652e6c6f679050602083016000808483855afa5050505050565b6000612b8a8473ffffffffffffffffffffffffffffffffffffffff16612d00565b15612cf3578373ffffffffffffffffffffffffffffffffffffffff1663150b7a02612bb3611c3b565b8786866040518563ffffffff1660e01b8152600401612bd59493929190613561565b602060405180830381600087803b158015612bef57600080fd5b505af1925050508015612c2057506040513d601f19601f82011682018060405250810190612c1d9190613021565b60015b612ca3573d8060008114612c50576040519150601f19603f3d011682016040523d82523d6000602084013e612c55565b606091505b50600081511415612c9b576040517f08c379a0000000000000000000000000000000000000000000000000000000008152600401612c929061362c565b60405180910390fd5b805181602001fd5b63150b7a0260e01b7bffffffffffffffffffffffffffffffffffffffffffffffffffffffff1916817bffffffffffffffffffffffffffffffffffffffffffffffffffffffff191614915050612cf8565b600190505b949350505050565b6000808273ffffffffffffffffffffffffffffffffffffffff163b119050919050565b6040518060a0016040528060008152602001600073ffffffffffffffffffffffffffffffffffffffff168152602001600073ffffffffffffffffffffffffffffffffffffffff168152602001600081526020016000151581525090565b6000612d93612d8e8461386c565b613847565b905082815260208101848484011115612dab57600080fd5b612db6848285613a5a565b509392505050565b600081359050612dcd816140a1565b92915050565b600081359050612de2816140b8565b92915050565b600081359050612df7816140cf565b92915050565b600081519050612e0c816140cf565b92915050565b600082601f830112612e2357600080fd5b8135612e33848260208601612d80565b91505092915050565b600081359050612e4b816140e6565b92915050565b600060208284031215612e6357600080fd5b6000612e7184828501612dbe565b91505092915050565b60008060408385031215612e8d57600080fd5b6000612e9b85828601612dbe565b9250506020612eac85828601612dbe565b9150509250929050565b600080600060608486031215612ecb57600080fd5b6000612ed986828701612dbe565b9350506020612eea86828701612dbe565b9250506040612efb86828701612e3c565b9150509250925092565b60008060008060808587031215612f1b57600080fd5b6000612f2987828801612dbe565b9450506020612f3a87828801612dbe565b9350506040612f4b87828801612e3c565b925050606085013567ffffffffffffffff811115612f6857600080fd5b612f7487828801612e12565b91505092959194509250565b60008060408385031215612f9357600080fd5b6000612fa185828601612dbe565b9250506020612fb285828601612dd3565b9150509250929050565b60008060408385031215612fcf57600080fd5b6000612fdd85828601612dbe565b9250506020612fee85828601612e3c565b9150509250929050565b60006020828403121561300a57600080fd5b600061301884828501612de8565b91505092915050565b60006020828403121561303357600080fd5b600061304184828501612dfd565b91505092915050565b60006020828403121561305c57600080fd5b600061306a84828501612e3c565b91505092915050565b6000806040838503121561308657600080fd5b600061309485828601612e3c565b92505060206130a585828601612e3c565b9150509250929050565b60006130bb8383613457565b60a08301905092915050565b6130d0816139e6565b82525050565b6130df816139d4565b82525050565b60006130f0826138ad565b6130fa81856138db565b93506131058361389d565b8060005b8381101561313657815161311d88826130af565b9750613128836138ce565b925050600181019050613109565b5085935050505092915050565b61314c816139f8565b82525050565b61315b816139f8565b82525050565b600061316c826138b8565b61317681856138ec565b9350613186818560208601613a69565b61318f81613c35565b840191505092915050565b60006131a5826138c3565b6131af81856138fd565b93506131bf818560208601613a69565b6131c881613c35565b840191505092915050565b60006131de826138c3565b6131e8818561390e565b93506131f8818560208601613a69565b80840191505092915050565b6000613211601b836138fd565b915061321c82613c46565b602082019050919050565b60006132346032836138fd565b915061323f82613c6f565b604082019050919050565b60006132576025836138fd565b915061326282613cbe565b604082019050919050565b600061327a601c836138fd565b915061328582613d0d565b602082019050919050565b600061329d6024836138fd565b91506132a882613d36565b604082019050919050565b60006132c06019836138fd565b91506132cb82613d85565b602082019050919050565b60006132e36029836138fd565b91506132ee82613dae565b604082019050919050565b60006133066040836138fd565b915061331182613dfd565b604082019050919050565b6000613329603e836138fd565b915061333482613e4c565b604082019050919050565b600061334c6020836138fd565b915061335782613e9b565b602082019050919050565b600061336f602a836138fd565b915061337a82613ec4565b604082019050919050565b60006133926018836138fd565b915061339d82613f13565b602082019050919050565b60006133b56021836138fd565b91506133c082613f3c565b604082019050919050565b60006133d86024836138fd565b91506133e382613f8b565b604082019050919050565b60006133fb6030836138fd565b915061340682613fda565b604082019050919050565b600061341e602e836138fd565b915061342982614029565b604082019050919050565b6000613441601c836138fd565b915061344c82614078565b602082019050919050565b60a08201600082015161346d60008501826134bf565b50602082015161348060208501826130c7565b50604082015161349360408501826130c7565b5060608201516134a660608501826134bf565b5060808201516134b96080850182613143565b50505050565b6134c881613a50565b82525050565b6134d781613a50565b82525050565b60006134e982856131d3565b91506134f582846131d3565b91508190509392505050565b600060208201905061351660008301846130d6565b92915050565b600060808201905061353160008301876130d6565b61353e60208301866130d6565b61354b60408301856134ce565b6135586060830184613152565b95945050505050565b600060808201905061357660008301876130d6565b61358360208301866130d6565b61359060408301856134ce565b81810360608301526135a28184613161565b905095945050505050565b600060208201905081810360008301526135c781846130e5565b905092915050565b60006020820190506135e46000830184613152565b92915050565b60006020820190508181036000830152613604818461319a565b905092915050565b6000602082019050818103600083015261362581613204565b9050919050565b6000602082019050818103600083015261364581613227565b9050919050565b600060208201905081810360008301526136658161324a565b9050919050565b600060208201905081810360008301526136858161326d565b9050919050565b600060208201905081810360008301526136a581613290565b9050919050565b600060208201905081810360008301526136c5816132b3565b9050919050565b600060208201905081810360008301526136e5816132d6565b9050919050565b60006020820190508181036000830152613705816132f9565b9050919050565b600060208201905081810360008301526137258161331c565b9050919050565b600060208201905081810360008301526137458161333f565b9050919050565b6000602082019050818103600083015261376581613362565b9050919050565b6000602082019050818103600083015261378581613385565b9050919050565b600060208201905081810360008301526137a5816133a8565b9050919050565b600060208201905081810360008301526137c5816133cb565b9050919050565b600060208201905081810360008301526137e5816133ee565b9050919050565b6000602082019050818103600083015261380581613411565b9050919050565b6000602082019050818103600083015261382581613434565b9050919050565b600060208201905061384160008301846134ce565b92915050565b6000613851613862565b905061385d8282613ace565b919050565b6000604051905090565b600067ffffffffffffffff82111561388757613886613c06565b5b61389082613c35565b9050602081019050919050565b6000819050602082019050919050565b600081519050919050565b600081519050919050565b600081519050919050565b6000602082019050919050565b600082825260208201905092915050565b600082825260208201905092915050565b600082825260208201905092915050565b600081905092915050565b600061392482613a50565b915061392f83613a50565b9250827fffffffffffffffffffffffffffffffffffffffffffffffffffffffffffffffff0382111561396457613963613b79565b5b828201905092915050565b600061397a82613a50565b915061398583613a50565b92508261399557613994613ba8565b5b828204905092915050565b60006139ab82613a50565b91506139b683613a50565b9250828210156139c9576139c8613b79565b5b828203905092915050565b60006139df82613a30565b9050919050565b60006139f182613a30565b9050919050565b60008115159050919050565b60007fffffffff0000000000000000000000000000000000000000000000000000000082169050919050565b600073ffffffffffffffffffffffffffffffffffffffff82169050919050565b6000819050919050565b82818337600083830152505050565b60005b83811015613a87578082015181840152602081019050613a6c565b83811115613a96576000848401525b50505050565b60006002820490506001821680613ab457607f821691505b60208210811415613ac857613ac7613bd7565b5b50919050565b613ad782613c35565b810181811067ffffffffffffffff82111715613af657613af5613c06565b5b80604052505050565b6000613b0a82613a50565b91507fffffffffffffffffffffffffffffffffffffffffffffffffffffffffffffffff821415613b3d57613b3c613b79565b5b600182019050919050565b6000613b5382613a50565b9150613b5e83613a50565b925082613b6e57613b6d613ba8565b5b828206905092915050565b7f4e487b7100000000000000000000000000000000000000000000000000000000600052601160045260246000fd5b7f4e487b7100000000000000000000000000000000000000000000000000000000600052601260045260246000fd5b7f4e487b7100000000000000000000000000000000000000000000000000000000600052602260045260246000fd5b7f4e487b7100000000000000000000000000000000000000000000000000000000600052604160045260246000fd5b6000601f19601f8301169050919050565b7f436f756e7465723a2064656372656d656e74206f766572666c6f770000000000600082015250565b7f4552433732313a207472616e7366657220746f206e6f6e20455243373231526560008201527f63656976657220696d706c656d656e7465720000000000000000000000000000602082015250565b7f4552433732313a207472616e736665722066726f6d20696e636f72726563742060008201527f6f776e6572000000000000000000000000000000000000000000000000000000602082015250565b7f4552433732313a20746f6b656e20616c7265616479206d696e74656400000000600082015250565b7f4552433732313a207472616e7366657220746f20746865207a65726f2061646460008201527f7265737300000000000000000000000000000000000000000000000000000000602082015250565b7f4552433732313a20617070726f766520746f2063616c6c657200000000000000600082015250565b7f4552433732313a2061646472657373207a65726f206973206e6f74206120766160008201527f6c6964206f776e65720000000000000000000000000000000000000000000000602082015250565b7f506c65617365207375626d6974207468652061736b696e67207072696365206960008201527f6e206f7264657220746f20636f6d706c65746520746865207075726368617365602082015250565b7f4552433732313a20617070726f76652063616c6c6572206973206e6f7420746f60008201527f6b656e206f776e6572206e6f7220617070726f76656420666f7220616c6c0000602082015250565b7f4552433732313a206d696e7420746f20746865207a65726f2061646472657373600082015250565b7f4f6e6c79206974656d206f776e65722063616e20706572666f726d207468697360008201527f206f7065726174696f6e00000000000000000000000000000000000000000000602082015250565b7f4552433732313a20696e76616c696420746f6b656e2049440000000000000000600082015250565b7f4552433732313a20617070726f76616c20746f2063757272656e74206f776e6560008201527f7200000000000000000000000000000000000000000000000000000000000000602082015250565b7f5072696365206d75737420626520657175616c20746f206c697374696e67207060008201527f7269636500000000000000000000000000000000000000000000000000000000602082015250565b7f4f6e6c79206d61726b6574706c616365206f776e65722063616e20757064617460008201527f65206c697374696e672070726963652e00000000000000000000000000000000602082015250565b7f4552433732313a2063616c6c6572206973206e6f7420746f6b656e206f776e6560008201527f72206e6f7220617070726f766564000000000000000000000000000000000000602082015250565b7f5072696365206d757374206265206174206c6561737420312077656900000000600082015250565b6140aa816139d4565b81146140b557600080fd5b50565b6140c1816139f8565b81146140cc57600080fd5b50565b6140d881613a04565b81146140e357600080fd5b50565b6140ef81613a50565b81146140fa57600080fd5b5056fea26469706673582212202bccfedb8e41bc44e4ded56a3f3dd080bf093729c748719ef25819e923001efe64736f6c63430008040033",
  "linkReferences": {},
  "deployedLinkReferences": {}
}