{
  "_format": "hh-sol-artifact-1",
  "contractName": "NFTMarketplace",
  "sourceName": "contracts/NFTMarketplace.sol",
  "abi": [
    {
      "inputs": [],
      "stateMutability": "nonpayable",
      "type": "constructor"
    },
    {
      "anonymous": false,
      "inputs": [
        {
          "indexed": true,
          "internalType": "uint256",
          "name": "itemId",
          "type": "uint256"
        },
        {
          "indexed": true,
          "internalType": "address",
          "name": "nftContract",
          "type": "address"
        },
        {
          "indexed": true,
          "internalType": "uint256",
          "name": "tokenId",
          "type": "uint256"
        },
        {
          "indexed": false,
          "internalType": "address",
          "name": "seller",
          "type": "address"
        },
        {
          "indexed": false,
          "internalType": "address",
          "name": "owner",
          "type": "address"
        },
        {
          "indexed": false,
          "internalType": "uint256",
          "name": "price",
          "type": "uint256"
        },
        {
          "indexed": false,
          "internalType": "bool",
          "name": "sold",
          "type": "bool"
        }
      ],
      "name": "MarketItemCreated",
      "type": "event"
    },
    {
      "inputs": [
        {
          "internalType": "address",
          "name": "nftContract",
          "type": "address"
        },
        {
          "internalType": "uint256",
          "name": "itemId",
          "type": "uint256"
        }
      ],
      "name": "burn",
      "outputs": [],
      "stateMutability": "payable",
      "type": "function"
    },
    {
      "inputs": [
        {
          "internalType": "address",
          "name": "nftContract",
          "type": "address"
        },
        {
          "internalType": "uint256",
          "name": "tokenId",
          "type": "uint256"
        },
        {
          "internalType": "uint256",
          "name": "price",
          "type": "uint256"
        }
      ],
      "name": "createMarketItem",
      "outputs": [],
      "stateMutability": "payable",
      "type": "function"
    },
    {
      "inputs": [
        {
          "internalType": "address",
          "name": "nftContract",
          "type": "address"
        },
        {
          "internalType": "uint256",
          "name": "itemId",
          "type": "uint256"
        }
      ],
      "name": "createMarketSale",
      "outputs": [],
      "stateMutability": "payable",
      "type": "function"
    },
    {
      "inputs": [],
      "name": "fetchItemsCreated",
      "outputs": [
        {
          "components": [
            {
              "internalType": "uint256",
              "name": "itemId",
              "type": "uint256"
            },
            {
              "internalType": "address",
              "name": "nftContract",
              "type": "address"
            },
            {
              "internalType": "uint256",
              "name": "tokenId",
              "type": "uint256"
            },
            {
              "internalType": "address payable",
              "name": "seller",
              "type": "address"
            },
            {
              "internalType": "address payable",
              "name": "owner",
              "type": "address"
            },
            {
              "internalType": "uint256",
              "name": "price",
              "type": "uint256"
            },
            {
              "internalType": "bool",
              "name": "sold",
              "type": "bool"
            }
          ],
          "internalType": "struct NFTMarketplace.MarketItem[]",
          "name": "",
          "type": "tuple[]"
        }
      ],
      "stateMutability": "view",
      "type": "function"
    },
    {
      "inputs": [],
      "name": "fetchMarketItems",
      "outputs": [
        {
          "components": [
            {
              "internalType": "uint256",
              "name": "itemId",
              "type": "uint256"
            },
            {
              "internalType": "address",
              "name": "nftContract",
              "type": "address"
            },
            {
              "internalType": "uint256",
              "name": "tokenId",
              "type": "uint256"
            },
            {
              "internalType": "address payable",
              "name": "seller",
              "type": "address"
            },
            {
              "internalType": "address payable",
              "name": "owner",
              "type": "address"
            },
            {
              "internalType": "uint256",
              "name": "price",
              "type": "uint256"
            },
            {
              "internalType": "bool",
              "name": "sold",
              "type": "bool"
            }
          ],
          "internalType": "struct NFTMarketplace.MarketItem[]",
          "name": "",
          "type": "tuple[]"
        }
      ],
      "stateMutability": "view",
      "type": "function"
    },
    {
      "inputs": [],
      "name": "fetchMyNFTs",
      "outputs": [
        {
          "components": [
            {
              "internalType": "uint256",
              "name": "itemId",
              "type": "uint256"
            },
            {
              "internalType": "address",
              "name": "nftContract",
              "type": "address"
            },
            {
              "internalType": "uint256",
              "name": "tokenId",
              "type": "uint256"
            },
            {
              "internalType": "address payable",
              "name": "seller",
              "type": "address"
            },
            {
              "internalType": "address payable",
              "name": "owner",
              "type": "address"
            },
            {
              "internalType": "uint256",
              "name": "price",
              "type": "uint256"
            },
            {
              "internalType": "bool",
              "name": "sold",
              "type": "bool"
            }
          ],
          "internalType": "struct NFTMarketplace.MarketItem[]",
          "name": "",
          "type": "tuple[]"
        }
      ],
      "stateMutability": "view",
      "type": "function"
    },
    {
      "inputs": [],
      "name": "getListingPrice",
      "outputs": [
        {
          "internalType": "uint256",
          "name": "",
          "type": "uint256"
        }
      ],
      "stateMutability": "view",
      "type": "function"
    }
  ],
  "bytecode": "0x60806040526658d15e1762800060045534801561001b57600080fd5b50600160008190555033600360006101000a81548173ffffffffffffffffffffffffffffffffffffffff021916908373ffffffffffffffffffffffffffffffffffffffff160217905550611bd0806100746000396000f3fe6080604052600436106100705760003560e01c806358eb2df51161004e57806358eb2df5146100f65780639dc29fac14610112578063c23b139e1461012e578063f064c32e1461014a57610070565b80630f08efe01461007557806312e85585146100a0578063202e3740146100cb575b600080fd5b34801561008157600080fd5b5061008a610175565b60405161009791906117aa565b60405180910390f35b3480156100ac57600080fd5b506100b5610466565b6040516100c2919061186c565b60405180910390f35b3480156100d757600080fd5b506100e0610470565b6040516100ed91906117aa565b60405180910390f35b610110600480360381019061010b91906114c3565b610820565b005b61012c60048036038101906101279190611487565b610b84565b005b61014860048036038101906101439190611487565b610cf3565b005b34801561015657600080fd5b5061015f610fac565b60405161016c91906117aa565b60405180910390f35b60606000610183600161135c565b90506000610191600261135c565b61019b600161135c565b6101a59190611927565b90506000808267ffffffffffffffff8111156101ea577f4e487b7100000000000000000000000000000000000000000000000000000000600052604160045260246000fd5b60405190808252806020026020018201604052801561022357816020015b6102106113dc565b8152602001906001900390816102085790505b50905060005b8481101561045b57600015156005600060018461024691906118d1565b815260200190815260200160002060060160009054906101000a900460ff16151514156104485760006005600060018461028091906118d1565b81526020019081526020016000206000015490506000600560008381526020019081526020016000209050806040518060e0016040529081600082015481526020016001820160009054906101000a900473ffffffffffffffffffffffffffffffffffffffff1673ffffffffffffffffffffffffffffffffffffffff1673ffffffffffffffffffffffffffffffffffffffff168152602001600282015481526020016003820160009054906101000a900473ffffffffffffffffffffffffffffffffffffffff1673ffffffffffffffffffffffffffffffffffffffff1673ffffffffffffffffffffffffffffffffffffffff1681526020016004820160009054906101000a900473ffffffffffffffffffffffffffffffffffffffff1673ffffffffffffffffffffffffffffffffffffffff1673ffffffffffffffffffffffffffffffffffffffff168152602001600582015481526020016006820160009054906101000a900460ff16151515158152505084868151811061042b577f4e487b7100000000000000000000000000000000000000000000000000000000600052603260045260246000fd5b602002602001018190525060018561044391906118d1565b945050505b8080610453906119b5565b915050610229565b508094505050505090565b6000600454905090565b6060600061047e600161135c565b905060008060005b83811015610527573373ffffffffffffffffffffffffffffffffffffffff16600560006001846104b691906118d1565b815260200190815260200160002060040160009054906101000a900473ffffffffffffffffffffffffffffffffffffffff1673ffffffffffffffffffffffffffffffffffffffff1614156105145760018361051191906118d1565b92505b808061051f906119b5565b915050610486565b5060008267ffffffffffffffff81111561056a577f4e487b7100000000000000000000000000000000000000000000000000000000600052604160045260246000fd5b6040519080825280602002602001820160405280156105a357816020015b6105906113dc565b8152602001906001900390816105885790505b50905060005b84811015610815573373ffffffffffffffffffffffffffffffffffffffff16600560006001846105d991906118d1565b815260200190815260200160002060040160009054906101000a900473ffffffffffffffffffffffffffffffffffffffff1673ffffffffffffffffffffffffffffffffffffffff1614156108025760006005600060018461063a91906118d1565b81526020019081526020016000206000015490506000600560008381526020019081526020016000209050806040518060e0016040529081600082015481526020016001820160009054906101000a900473ffffffffffffffffffffffffffffffffffffffff1673ffffffffffffffffffffffffffffffffffffffff1673ffffffffffffffffffffffffffffffffffffffff168152602001600282015481526020016003820160009054906101000a900473ffffffffffffffffffffffffffffffffffffffff1673ffffffffffffffffffffffffffffffffffffffff1673ffffffffffffffffffffffffffffffffffffffff1681526020016004820160009054906101000a900473ffffffffffffffffffffffffffffffffffffffff1673ffffffffffffffffffffffffffffffffffffffff1673ffffffffffffffffffffffffffffffffffffffff168152602001600582015481526020016006820160009054906101000a900460ff1615151515815250508486815181106107e5577f4e487b7100000000000000000000000000000000000000000000000000000000600052603260045260246000fd5b60200260200101819052506001856107fd91906118d1565b945050505b808061080d906119b5565b9150506105a9565b508094505050505090565b60026000541415610866576040517f08c379a000000000000000000000000000000000000000000000000000000000815260040161085d9061184c565b60405180910390fd5b6002600081905550600081116108b1576040517f08c379a00000000000000000000000000000000000000000000000000000000081526004016108a8906117cc565b60405180910390fd5b60045434146108f5576040517f08c379a00000000000000000000000000000000000000000000000000000000081526004016108ec9061182c565b60405180910390fd5b6108ff600161136a565b600061090b600161135c565b90506040518060e001604052808281526020018573ffffffffffffffffffffffffffffffffffffffff1681526020018481526020013373ffffffffffffffffffffffffffffffffffffffff168152602001600073ffffffffffffffffffffffffffffffffffffffff16815260200183815260200160001515815250600560008381526020019081526020016000206000820151816000015560208201518160010160006101000a81548173ffffffffffffffffffffffffffffffffffffffff021916908373ffffffffffffffffffffffffffffffffffffffff1602179055506040820151816002015560608201518160030160006101000a81548173ffffffffffffffffffffffffffffffffffffffff021916908373ffffffffffffffffffffffffffffffffffffffff16021790555060808201518160040160006101000a81548173ffffffffffffffffffffffffffffffffffffffff021916908373ffffffffffffffffffffffffffffffffffffffff16021790555060a0820151816005015560c08201518160060160006101000a81548160ff0219169083151502179055509050508373ffffffffffffffffffffffffffffffffffffffff166323b872dd3330866040518463ffffffff1660e01b8152600401610aec9392919061172e565b600060405180830381600087803b158015610b0657600080fd5b505af1158015610b1a573d6000803e3d6000fd5b50505050828473ffffffffffffffffffffffffffffffffffffffff16827f045dfa01dcba2b36aba1d3dc4a874f4b0c5d2fbeb8d2c4b34a7d88c8d8f929d1336000876000604051610b6e9493929190611765565b60405180910390a4506001600081905550505050565b60026000541415610bca576040517f08c379a0000000000000000000000000000000000000000000000000000000008152600401610bc19061184c565b60405180910390fd5b60026000819055508173ffffffffffffffffffffffffffffffffffffffff166323b872dd303060056000868152602001908152602001600020600201546040518463ffffffff1660e01b8152600401610c259392919061172e565b600060405180830381600087803b158015610c3f57600080fd5b505af1158015610c53573d6000803e3d6000fd5b5050505061dead6005600083815260200190815260200160002060040160006101000a81548173ffffffffffffffffffffffffffffffffffffffff021916908373ffffffffffffffffffffffffffffffffffffffff16021790555060006005600083815260200190815260200160002060060160006101000a81548160ff021916908315150217905550610ce76002611380565b60016000819055505050565b60026000541415610d39576040517f08c379a0000000000000000000000000000000000000000000000000000000008152600401610d309061184c565b60405180910390fd5b6002600081905550600060056000838152602001908152602001600020600501549050600060056000848152602001908152602001600020600201549050813414610db9576040517f08c379a0000000000000000000000000000000000000000000000000000000008152600401610db09061180c565b60405180910390fd5b6005600084815260200190815260200160002060030160009054906101000a900473ffffffffffffffffffffffffffffffffffffffff1673ffffffffffffffffffffffffffffffffffffffff166108fc349081150290604051600060405180830381858888f19350505050158015610e35573d6000803e3d6000fd5b508373ffffffffffffffffffffffffffffffffffffffff166323b872dd3033846040518463ffffffff1660e01b8152600401610e739392919061172e565b600060405180830381600087803b158015610e8d57600080fd5b505af1158015610ea1573d6000803e3d6000fd5b50505050336005600085815260200190815260200160002060040160006101000a81548173ffffffffffffffffffffffffffffffffffffffff021916908373ffffffffffffffffffffffffffffffffffffffff16021790555060016005600085815260200190815260200160002060060160006101000a81548160ff021916908315150217905550610f33600261136a565b600360009054906101000a900473ffffffffffffffffffffffffffffffffffffffff1673ffffffffffffffffffffffffffffffffffffffff166108fc6004549081150290604051600060405180830381858888f19350505050158015610f9d573d6000803e3d6000fd5b50505060016000819055505050565b60606000610fba600161135c565b905060008060005b83811015611063573373ffffffffffffffffffffffffffffffffffffffff1660056000600184610ff291906118d1565b815260200190815260200160002060030160009054906101000a900473ffffffffffffffffffffffffffffffffffffffff1673ffffffffffffffffffffffffffffffffffffffff1614156110505760018361104d91906118d1565b92505b808061105b906119b5565b915050610fc2565b5060008267ffffffffffffffff8111156110a6577f4e487b7100000000000000000000000000000000000000000000000000000000600052604160045260246000fd5b6040519080825280602002602001820160405280156110df57816020015b6110cc6113dc565b8152602001906001900390816110c45790505b50905060005b84811015611351573373ffffffffffffffffffffffffffffffffffffffff166005600060018461111591906118d1565b815260200190815260200160002060030160009054906101000a900473ffffffffffffffffffffffffffffffffffffffff1673ffffffffffffffffffffffffffffffffffffffff16141561133e5760006005600060018461117691906118d1565b81526020019081526020016000206000015490506000600560008381526020019081526020016000209050806040518060e0016040529081600082015481526020016001820160009054906101000a900473ffffffffffffffffffffffffffffffffffffffff1673ffffffffffffffffffffffffffffffffffffffff1673ffffffffffffffffffffffffffffffffffffffff168152602001600282015481526020016003820160009054906101000a900473ffffffffffffffffffffffffffffffffffffffff1673ffffffffffffffffffffffffffffffffffffffff1673ffffffffffffffffffffffffffffffffffffffff1681526020016004820160009054906101000a900473ffffffffffffffffffffffffffffffffffffffff1673ffffffffffffffffffffffffffffffffffffffff1673ffffffffffffffffffffffffffffffffffffffff168152602001600582015481526020016006820160009054906101000a900460ff161515151581525050848681518110611321577f4e487b7100000000000000000000000000000000000000000000000000000000600052603260045260246000fd5b602002602001018190525060018561133991906118d1565b945050505b8080611349906119b5565b9150506110e5565b508094505050505090565b600081600001549050919050565b6001816000016000828254019250508190555050565b600081600001549050600081116113cc576040517f08c379a00000000000000000000000000000000000000000000000000000000081526004016113c3906117ec565b60405180910390fd5b6001810382600001819055505050565b6040518060e0016040528060008152602001600073ffffffffffffffffffffffffffffffffffffffff16815260200160008152602001600073ffffffffffffffffffffffffffffffffffffffff168152602001600073ffffffffffffffffffffffffffffffffffffffff168152602001600081526020016000151581525090565b60008135905061146c81611b6c565b92915050565b60008135905061148181611b83565b92915050565b6000806040838503121561149a57600080fd5b60006114a88582860161145d565b92505060206114b985828601611472565b9150509250929050565b6000806000606084860312156114d857600080fd5b60006114e68682870161145d565b93505060206114f786828701611472565b925050604061150886828701611472565b9150509250925092565b600061151e8383611682565b60e08301905092915050565b6115338161196d565b82525050565b6115428161195b565b82525050565b6115518161195b565b82525050565b600061156282611897565b61156c81856118af565b935061157783611887565b8060005b838110156115a857815161158f8882611512565b975061159a836118a2565b92505060018101905061157b565b5085935050505092915050565b6115be8161197f565b82525050565b6115cd8161197f565b82525050565b60006115e0601b836118c0565b91506115eb82611a2d565b602082019050919050565b6000611603601b836118c0565b915061160e82611a56565b602082019050919050565b60006116266043836118c0565b915061163182611a7f565b606082019050919050565b60006116496024836118c0565b915061165482611af4565b604082019050919050565b600061166c601f836118c0565b915061167782611b43565b602082019050919050565b60e0820160008201516116986000850182611710565b5060208201516116ab6020850182611539565b5060408201516116be6040850182611710565b5060608201516116d1606085018261152a565b5060808201516116e4608085018261152a565b5060a08201516116f760a0850182611710565b5060c082015161170a60c08501826115b5565b50505050565b611719816119ab565b82525050565b611728816119ab565b82525050565b60006060820190506117436000830186611548565b6117506020830185611548565b61175d604083018461171f565b949350505050565b600060808201905061177a6000830187611548565b6117876020830186611548565b611794604083018561171f565b6117a160608301846115c4565b95945050505050565b600060208201905081810360008301526117c48184611557565b905092915050565b600060208201905081810360008301526117e5816115d3565b9050919050565b60006020820190508181036000830152611805816115f6565b9050919050565b6000602082019050818103600083015261182581611619565b9050919050565b600060208201905081810360008301526118458161163c565b9050919050565b600060208201905081810360008301526118658161165f565b9050919050565b6000602082019050611881600083018461171f565b92915050565b6000819050602082019050919050565b600081519050919050565b6000602082019050919050565b600082825260208201905092915050565b600082825260208201905092915050565b60006118dc826119ab565b91506118e7836119ab565b9250827fffffffffffffffffffffffffffffffffffffffffffffffffffffffffffffffff0382111561191c5761191b6119fe565b5b828201905092915050565b6000611932826119ab565b915061193d836119ab565b9250828210156119505761194f6119fe565b5b828203905092915050565b60006119668261198b565b9050919050565b60006119788261198b565b9050919050565b60008115159050919050565b600073ffffffffffffffffffffffffffffffffffffffff82169050919050565b6000819050919050565b60006119c0826119ab565b91507fffffffffffffffffffffffffffffffffffffffffffffffffffffffffffffffff8214156119f3576119f26119fe565b5b600182019050919050565b7f4e487b7100000000000000000000000000000000000000000000000000000000600052601160045260246000fd5b7f5072696365206d7573742062652061746c656173742031207765690000000000600082015250565b7f436f756e7465723a2064656372656d656e74206f766572666c6f770000000000600082015250565b7f506c65617365207375626d6974207468652061736b696e67207072696365206960008201527f6e206f7264657220746f20636f6d706c65746520746865207472616e7361637460208201527f696f6e0000000000000000000000000000000000000000000000000000000000604082015250565b7f7072696365206d75737420626520657175616c20746f206c697374696e67207060008201527f7269636500000000000000000000000000000000000000000000000000000000602082015250565b7f5265656e7472616e637947756172643a207265656e7472616e742063616c6c00600082015250565b611b758161195b565b8114611b8057600080fd5b50565b611b8c816119ab565b8114611b9757600080fd5b5056fea2646970667358221220e3f2bba14dbd8ff7e1cb7b500ed59d1b41382420fbbc23e67a5b6773f83618dc64736f6c63430008040033",
  "linkReferences": {},
  "deployedLinkReferences": {}
}