{
  "_format": "hh-sol-artifact-1",
  "contractName": "NFTMarketplace",
  "sourceName": "contracts/NFTMarketplace.sol",
  "abi": [
    {
      "inputs": [],
      "stateMutability": "nonpayable",
      "type": "constructor"
    },
    {
      "anonymous": false,
      "inputs": [
        {
          "indexed": true,
          "internalType": "address",
          "name": "owner",
          "type": "address"
        },
        {
          "indexed": true,
          "internalType": "address",
          "name": "approved",
          "type": "address"
        },
        {
          "indexed": true,
          "internalType": "uint256",
          "name": "tokenId",
          "type": "uint256"
        }
      ],
      "name": "Approval",
      "type": "event"
    },
    {
      "anonymous": false,
      "inputs": [
        {
          "indexed": true,
          "internalType": "address",
          "name": "owner",
          "type": "address"
        },
        {
          "indexed": true,
          "internalType": "address",
          "name": "operator",
          "type": "address"
        },
        {
          "indexed": false,
          "internalType": "bool",
          "name": "approved",
          "type": "bool"
        }
      ],
      "name": "ApprovalForAll",
      "type": "event"
    },
    {
      "anonymous": false,
      "inputs": [
        {
          "indexed": true,
          "internalType": "uint256",
          "name": "tokenId",
          "type": "uint256"
        },
        {
          "indexed": false,
          "internalType": "address",
          "name": "seller",
          "type": "address"
        },
        {
          "indexed": false,
          "internalType": "address",
          "name": "owner",
          "type": "address"
        },
        {
          "indexed": false,
          "internalType": "uint256",
          "name": "price",
          "type": "uint256"
        },
        {
          "indexed": false,
          "internalType": "bool",
          "name": "sold",
          "type": "bool"
        },
        {
          "indexed": false,
          "internalType": "bool",
          "name": "burn",
          "type": "bool"
        },
        {
          "indexed": false,
          "internalType": "uint256",
          "name": "date",
          "type": "uint256"
        },
        {
          "indexed": false,
          "internalType": "string",
          "name": "mongoid",
          "type": "string"
        }
      ],
      "name": "MarketItemCreated",
      "type": "event"
    },
    {
      "anonymous": false,
      "inputs": [
        {
          "indexed": true,
          "internalType": "address",
          "name": "from",
          "type": "address"
        },
        {
          "indexed": true,
          "internalType": "address",
          "name": "to",
          "type": "address"
        },
        {
          "indexed": true,
          "internalType": "uint256",
          "name": "tokenId",
          "type": "uint256"
        }
      ],
      "name": "Transfer",
      "type": "event"
    },
    {
      "inputs": [
        {
          "internalType": "address",
          "name": "to",
          "type": "address"
        },
        {
          "internalType": "uint256",
          "name": "tokenId",
          "type": "uint256"
        }
      ],
      "name": "approve",
      "outputs": [],
      "stateMutability": "nonpayable",
      "type": "function"
    },
    {
      "inputs": [
        {
          "internalType": "address",
          "name": "owner",
          "type": "address"
        }
      ],
      "name": "balanceOf",
      "outputs": [
        {
          "internalType": "uint256",
          "name": "",
          "type": "uint256"
        }
      ],
      "stateMutability": "view",
      "type": "function"
    },
    {
      "inputs": [
        {
          "internalType": "uint256",
          "name": "tokenId",
          "type": "uint256"
        }
      ],
      "name": "burn",
      "outputs": [],
      "stateMutability": "nonpayable",
      "type": "function"
    },
    {
      "inputs": [
        {
          "internalType": "uint256",
          "name": "currentDate",
          "type": "uint256"
        }
      ],
      "name": "burnNFT",
      "outputs": [],
      "stateMutability": "nonpayable",
      "type": "function"
    },
    {
      "inputs": [
        {
          "internalType": "uint256",
          "name": "tokenId",
          "type": "uint256"
        },
        {
          "internalType": "uint256",
          "name": "date",
          "type": "uint256"
        }
      ],
      "name": "createMarketSale",
      "outputs": [],
      "stateMutability": "payable",
      "type": "function"
    },
    {
      "inputs": [
        {
          "internalType": "string",
          "name": "tokenURI",
          "type": "string"
        },
        {
          "internalType": "uint256",
          "name": "price",
          "type": "uint256"
        },
        {
          "internalType": "string",
          "name": "mongoId",
          "type": "string"
        }
      ],
      "name": "createToken",
      "outputs": [
        {
          "internalType": "uint256",
          "name": "",
          "type": "uint256"
        }
      ],
      "stateMutability": "payable",
      "type": "function"
    },
    {
      "inputs": [],
      "name": "fetchItemsListed",
      "outputs": [
        {
          "components": [
            {
              "internalType": "uint256",
              "name": "tokenId",
              "type": "uint256"
            },
            {
              "internalType": "address payable",
              "name": "seller",
              "type": "address"
            },
            {
              "internalType": "address payable",
              "name": "owner",
              "type": "address"
            },
            {
              "internalType": "uint256",
              "name": "price",
              "type": "uint256"
            },
            {
              "internalType": "bool",
              "name": "sold",
              "type": "bool"
            },
            {
              "internalType": "bool",
              "name": "burn",
              "type": "bool"
            },
            {
              "internalType": "uint256",
              "name": "date",
              "type": "uint256"
            },
            {
              "internalType": "string",
              "name": "mongoid",
              "type": "string"
            }
          ],
          "internalType": "struct NFTMarketplace.MarketItem[]",
          "name": "",
          "type": "tuple[]"
        }
      ],
      "stateMutability": "view",
      "type": "function"
    },
    {
      "inputs": [],
      "name": "fetchMarketItems",
      "outputs": [
        {
          "components": [
            {
              "internalType": "uint256",
              "name": "tokenId",
              "type": "uint256"
            },
            {
              "internalType": "address payable",
              "name": "seller",
              "type": "address"
            },
            {
              "internalType": "address payable",
              "name": "owner",
              "type": "address"
            },
            {
              "internalType": "uint256",
              "name": "price",
              "type": "uint256"
            },
            {
              "internalType": "bool",
              "name": "sold",
              "type": "bool"
            },
            {
              "internalType": "bool",
              "name": "burn",
              "type": "bool"
            },
            {
              "internalType": "uint256",
              "name": "date",
              "type": "uint256"
            },
            {
              "internalType": "string",
              "name": "mongoid",
              "type": "string"
            }
          ],
          "internalType": "struct NFTMarketplace.MarketItem[]",
          "name": "",
          "type": "tuple[]"
        }
      ],
      "stateMutability": "view",
      "type": "function"
    },
    {
      "inputs": [],
      "name": "fetchMyNFTs",
      "outputs": [
        {
          "components": [
            {
              "internalType": "uint256",
              "name": "tokenId",
              "type": "uint256"
            },
            {
              "internalType": "address payable",
              "name": "seller",
              "type": "address"
            },
            {
              "internalType": "address payable",
              "name": "owner",
              "type": "address"
            },
            {
              "internalType": "uint256",
              "name": "price",
              "type": "uint256"
            },
            {
              "internalType": "bool",
              "name": "sold",
              "type": "bool"
            },
            {
              "internalType": "bool",
              "name": "burn",
              "type": "bool"
            },
            {
              "internalType": "uint256",
              "name": "date",
              "type": "uint256"
            },
            {
              "internalType": "string",
              "name": "mongoid",
              "type": "string"
            }
          ],
          "internalType": "struct NFTMarketplace.MarketItem[]",
          "name": "",
          "type": "tuple[]"
        }
      ],
      "stateMutability": "view",
      "type": "function"
    },
    {
      "inputs": [
        {
          "internalType": "uint256",
          "name": "tokenId",
          "type": "uint256"
        }
      ],
      "name": "getApproved",
      "outputs": [
        {
          "internalType": "address",
          "name": "",
          "type": "address"
        }
      ],
      "stateMutability": "view",
      "type": "function"
    },
    {
      "inputs": [],
      "name": "getListingPrice",
      "outputs": [
        {
          "internalType": "uint256",
          "name": "",
          "type": "uint256"
        }
      ],
      "stateMutability": "view",
      "type": "function"
    },
    {
      "inputs": [
        {
          "internalType": "address",
          "name": "owner",
          "type": "address"
        },
        {
          "internalType": "address",
          "name": "operator",
          "type": "address"
        }
      ],
      "name": "isApprovedForAll",
      "outputs": [
        {
          "internalType": "bool",
          "name": "",
          "type": "bool"
        }
      ],
      "stateMutability": "view",
      "type": "function"
    },
    {
      "inputs": [],
      "name": "name",
      "outputs": [
        {
          "internalType": "string",
          "name": "",
          "type": "string"
        }
      ],
      "stateMutability": "view",
      "type": "function"
    },
    {
      "inputs": [
        {
          "internalType": "uint256",
          "name": "tokenId",
          "type": "uint256"
        }
      ],
      "name": "ownerOf",
      "outputs": [
        {
          "internalType": "address",
          "name": "",
          "type": "address"
        }
      ],
      "stateMutability": "view",
      "type": "function"
    },
    {
      "inputs": [
        {
          "internalType": "uint256",
          "name": "tokenId",
          "type": "uint256"
        },
        {
          "internalType": "uint256",
          "name": "price",
          "type": "uint256"
        },
        {
          "internalType": "uint256",
          "name": "date",
          "type": "uint256"
        }
      ],
      "name": "resellToken",
      "outputs": [],
      "stateMutability": "payable",
      "type": "function"
    },
    {
      "inputs": [
        {
          "internalType": "address",
          "name": "from",
          "type": "address"
        },
        {
          "internalType": "address",
          "name": "to",
          "type": "address"
        },
        {
          "internalType": "uint256",
          "name": "tokenId",
          "type": "uint256"
        }
      ],
      "name": "safeTransferFrom",
      "outputs": [],
      "stateMutability": "nonpayable",
      "type": "function"
    },
    {
      "inputs": [
        {
          "internalType": "address",
          "name": "from",
          "type": "address"
        },
        {
          "internalType": "address",
          "name": "to",
          "type": "address"
        },
        {
          "internalType": "uint256",
          "name": "tokenId",
          "type": "uint256"
        },
        {
          "internalType": "bytes",
          "name": "data",
          "type": "bytes"
        }
      ],
      "name": "safeTransferFrom",
      "outputs": [],
      "stateMutability": "nonpayable",
      "type": "function"
    },
    {
      "inputs": [
        {
          "internalType": "address",
          "name": "operator",
          "type": "address"
        },
        {
          "internalType": "bool",
          "name": "approved",
          "type": "bool"
        }
      ],
      "name": "setApprovalForAll",
      "outputs": [],
      "stateMutability": "nonpayable",
      "type": "function"
    },
    {
      "inputs": [
        {
          "internalType": "uint256",
          "name": "tokenId",
          "type": "uint256"
        },
        {
          "internalType": "uint256",
          "name": "currentDate",
          "type": "uint256"
        }
      ],
      "name": "specificBurn",
      "outputs": [
        {
          "internalType": "bool",
          "name": "",
          "type": "bool"
        }
      ],
      "stateMutability": "nonpayable",
      "type": "function"
    },
    {
      "inputs": [
        {
          "internalType": "bytes4",
          "name": "interfaceId",
          "type": "bytes4"
        }
      ],
      "name": "supportsInterface",
      "outputs": [
        {
          "internalType": "bool",
          "name": "",
          "type": "bool"
        }
      ],
      "stateMutability": "view",
      "type": "function"
    },
    {
      "inputs": [],
      "name": "symbol",
      "outputs": [
        {
          "internalType": "string",
          "name": "",
          "type": "string"
        }
      ],
      "stateMutability": "view",
      "type": "function"
    },
    {
      "inputs": [
        {
          "internalType": "uint256",
          "name": "tokenId",
          "type": "uint256"
        }
      ],
      "name": "tokenURI",
      "outputs": [
        {
          "internalType": "string",
          "name": "",
          "type": "string"
        }
      ],
      "stateMutability": "view",
      "type": "function"
    },
    {
      "inputs": [
        {
          "internalType": "address",
          "name": "from",
          "type": "address"
        },
        {
          "internalType": "address",
          "name": "to",
          "type": "address"
        },
        {
          "internalType": "uint256",
          "name": "tokenId",
          "type": "uint256"
        }
      ],
      "name": "transferFrom",
      "outputs": [],
      "stateMutability": "nonpayable",
      "type": "function"
    },
    {
      "inputs": [
        {
          "internalType": "uint256",
          "name": "_listingPrice",
          "type": "uint256"
        }
      ],
      "name": "updateListingPrice",
      "outputs": [],
      "stateMutability": "payable",
      "type": "function"
    }
  ],
  "bytecode": "0x60806040526658d15e176280006008553480156200001c57600080fd5b506040518060400160405280601081526020017f4d657461766572736520546f6b656e73000000000000000000000000000000008152506040518060400160405280600481526020017f4d455454000000000000000000000000000000000000000000000000000000008152508160009080519060200190620000a192919062000104565b508060019080519060200190620000ba92919062000104565b50505033600960006101000a81548173ffffffffffffffffffffffffffffffffffffffff021916908373ffffffffffffffffffffffffffffffffffffffff16021790555062000219565b8280546200011290620001b4565b90600052602060002090601f01602090048101928262000136576000855562000182565b82601f106200015157805160ff191683800117855562000182565b8280016001018555821562000182579182015b828111156200018157825182559160200191906001019062000164565b5b50905062000191919062000195565b5090565b5b80821115620001b057600081600090555060010162000196565b5090565b60006002820490506001821680620001cd57607f821691505b60208210811415620001e457620001e3620001ea565b5b50919050565b7f4e487b7100000000000000000000000000000000000000000000000000000000600052602260045260246000fd5b614efe80620002296000396000f3fe60806040526004361061014b5760003560e01c80636352211e116100b6578063b88d4fde1161006f578063b88d4fde14610474578063c6c9b5b11461049d578063c87b56dd146104cd578063db0d674d1461050a578063e985e9c514610547578063ea31247a146105845761014b565b80636352211e1461036e57806370a08231146103ab57806395d89b41146103e8578063a1c11ca814610413578063a22cb4651461042f578063ae677aa3146104585761014b565b8063202e374011610108578063202e37401461027457806323b872dd1461029f5780632890e0d7146102c857806342842e0e146102f157806342966c681461031a57806345f8fa80146103435761014b565b806301ffc9a71461015057806306fdde031461018d578063081812fc146101b8578063095ea7b3146101f55780630f08efe01461021e57806312e8558514610249575b600080fd5b34801561015c57600080fd5b5061017760048036038101906101729190613abb565b6105a0565b6040516101849190614257565b60405180910390f35b34801561019957600080fd5b506101a2610682565b6040516101af91906142a9565b60405180910390f35b3480156101c457600080fd5b506101df60048036038101906101da9190613b8c565b610714565b6040516101ec9190614158565b60405180910390f35b34801561020157600080fd5b5061021c60048036038101906102179190613a7f565b61075a565b005b34801561022a57600080fd5b50610233610872565b6040516102409190614235565b60405180910390f35b34801561025557600080fd5b5061025e610bdf565b60405161026b919061450b565b60405180910390f35b34801561028057600080fd5b50610289610be9565b6040516102969190614235565b60405180910390f35b3480156102ab57600080fd5b506102c660048036038101906102c19190613979565b610fdb565b005b3480156102d457600080fd5b506102ef60048036038101906102ea9190613b8c565b61103b565b005b3480156102fd57600080fd5b5061031860048036038101906103139190613979565b6113b7565b005b34801561032657600080fd5b50610341600480360381019061033c9190613b8c565b6113d7565b005b34801561034f57600080fd5b50610358611433565b6040516103659190614235565b60405180910390f35b34801561037a57600080fd5b5061039560048036038101906103909190613b8c565b611825565b6040516103a29190614158565b60405180910390f35b3480156103b757600080fd5b506103d260048036038101906103cd9190613914565b6118d7565b6040516103df919061450b565b60405180910390f35b3480156103f457600080fd5b506103fd61198f565b60405161040a91906142a9565b60405180910390f35b61042d60048036038101906104289190613bb5565b611a21565b005b34801561043b57600080fd5b5061045660048036038101906104519190613a43565b611c7b565b005b610472600480360381019061046d9190613b8c565b611c91565b005b34801561048057600080fd5b5061049b600480360381019061049691906139c8565b611d2b565b005b6104b760048036038101906104b29190613b0d565b611d8d565b6040516104c4919061450b565b60405180910390f35b3480156104d957600080fd5b506104f460048036038101906104ef9190613b8c565b611dc7565b60405161050191906142a9565b60405180910390f35b34801561051657600080fd5b50610531600480360381019061052c9190613bb5565b611e2f565b60405161053e9190614257565b60405180910390f35b34801561055357600080fd5b5061056e6004803603810190610569919061393d565b61215e565b60405161057b9190614257565b60405180910390f35b61059e60048036038101906105999190613bf1565b6121f2565b005b60007f80ac58cd000000000000000000000000000000000000000000000000000000007bffffffffffffffffffffffffffffffffffffffffffffffffffffffff1916827bffffffffffffffffffffffffffffffffffffffffffffffffffffffff1916148061066b57507f5b5e139f000000000000000000000000000000000000000000000000000000007bffffffffffffffffffffffffffffffffffffffffffffffffffffffff1916827bffffffffffffffffffffffffffffffffffffffffffffffffffffffff1916145b8061067b575061067a8261241e565b5b9050919050565b606060008054610691906147f8565b80601f01602080910402602001604051908101604052809291908181526020018280546106bd906147f8565b801561070a5780601f106106df5761010080835404028352916020019161070a565b820191906000526020600020905b8154815290600101906020018083116106ed57829003601f168201915b5050505050905090565b600061071f82612488565b6004600083815260200190815260200160002060009054906101000a900473ffffffffffffffffffffffffffffffffffffffff169050919050565b600061076582611825565b90508073ffffffffffffffffffffffffffffffffffffffff168373ffffffffffffffffffffffffffffffffffffffff1614156107d6576040517f08c379a00000000000000000000000000000000000000000000000000000000081526004016107cd9061446b565b60405180910390fd5b8073ffffffffffffffffffffffffffffffffffffffff166107f56124d3565b73ffffffffffffffffffffffffffffffffffffffff16148061082457506108238161081e6124d3565b61215e565b5b610863576040517f08c379a000000000000000000000000000000000000000000000000000000000815260040161085a906143eb565b60405180910390fd5b61086d83836124db565b505050565b606060006108806006612594565b9050600061088e6007612594565b6108986006612594565b6108a291906146ea565b90506000808267ffffffffffffffff8111156108e7577f4e487b7100000000000000000000000000000000000000000000000000000000600052604160045260246000fd5b60405190808252806020026020018201604052801561092057816020015b61090d6136c3565b8152602001906001900390816109055790505b50905060005b84811015610bd4573073ffffffffffffffffffffffffffffffffffffffff16600a60006001846109569190614663565b815260200190815260200160002060020160009054906101000a900473ffffffffffffffffffffffffffffffffffffffff1673ffffffffffffffffffffffffffffffffffffffff161415610bc15760006001826109b39190614663565b90506000600a600083815260200190815260200160002090508060405180610100016040529081600082015481526020016001820160009054906101000a900473ffffffffffffffffffffffffffffffffffffffff1673ffffffffffffffffffffffffffffffffffffffff1673ffffffffffffffffffffffffffffffffffffffff1681526020016002820160009054906101000a900473ffffffffffffffffffffffffffffffffffffffff1673ffffffffffffffffffffffffffffffffffffffff1673ffffffffffffffffffffffffffffffffffffffff168152602001600382015481526020016004820160009054906101000a900460ff161515151581526020016004820160019054906101000a900460ff1615151515815260200160058201548152602001600682018054610ae9906147f8565b80601f0160208091040260200160405190810160405280929190818152602001828054610b15906147f8565b8015610b625780601f10610b3757610100808354040283529160200191610b62565b820191906000526020600020905b815481529060010190602001808311610b4557829003601f168201915b505050505081525050848681518110610ba4577f4e487b7100000000000000000000000000000000000000000000000000000000600052603260045260246000fd5b6020026020010181905250600185610bbc9190614663565b945050505b8080610bcc9061485b565b915050610926565b508094505050505090565b6000600854905090565b60606000610bf76006612594565b905060008060005b83811015610ca0573373ffffffffffffffffffffffffffffffffffffffff16600a6000600184610c2f9190614663565b815260200190815260200160002060020160009054906101000a900473ffffffffffffffffffffffffffffffffffffffff1673ffffffffffffffffffffffffffffffffffffffff161415610c8d57600183610c8a9190614663565b92505b8080610c989061485b565b915050610bff565b5060008267ffffffffffffffff811115610ce3577f4e487b7100000000000000000000000000000000000000000000000000000000600052604160045260246000fd5b604051908082528060200260200182016040528015610d1c57816020015b610d096136c3565b815260200190600190039081610d015790505b50905060005b84811015610fd0573373ffffffffffffffffffffffffffffffffffffffff16600a6000600184610d529190614663565b815260200190815260200160002060020160009054906101000a900473ffffffffffffffffffffffffffffffffffffffff1673ffffffffffffffffffffffffffffffffffffffff161415610fbd576000600182610daf9190614663565b90506000600a600083815260200190815260200160002090508060405180610100016040529081600082015481526020016001820160009054906101000a900473ffffffffffffffffffffffffffffffffffffffff1673ffffffffffffffffffffffffffffffffffffffff1673ffffffffffffffffffffffffffffffffffffffff1681526020016002820160009054906101000a900473ffffffffffffffffffffffffffffffffffffffff1673ffffffffffffffffffffffffffffffffffffffff1673ffffffffffffffffffffffffffffffffffffffff168152602001600382015481526020016004820160009054906101000a900460ff161515151581526020016004820160019054906101000a900460ff1615151515815260200160058201548152602001600682018054610ee5906147f8565b80601f0160208091040260200160405190810160405280929190818152602001828054610f11906147f8565b8015610f5e5780601f10610f3357610100808354040283529160200191610f5e565b820191906000526020600020905b815481529060010190602001808311610f4157829003601f168201915b505050505081525050848681518110610fa0577f4e487b7100000000000000000000000000000000000000000000000000000000600052603260045260246000fd5b6020026020010181905250600185610fb89190614663565b945050505b8080610fc89061485b565b915050610d22565b508094505050505090565b610fec610fe66124d3565b826125a2565b61102b576040517f08c379a0000000000000000000000000000000000000000000000000000000008152600401611022906144cb565b60405180910390fd5b611036838383612637565b505050565b60006110476006612594565b90506000600190505b8181116113b2576111083373ffffffffffffffffffffffffffffffffffffffff16600a600084815260200190815260200160002060020160009054906101000a900473ffffffffffffffffffffffffffffffffffffffff1673ffffffffffffffffffffffffffffffffffffffff1614600a600084815260200190815260200160002060050154851160001515600a600086815260200190815260200160002060040160019054906101000a900460ff1615151461289e565b61112883600a60008481526020019081526020016000206005015461293d565b6000600a600083815260200190815260200160002060050154141561114c5761139f565b3373ffffffffffffffffffffffffffffffffffffffff16600a600083815260200190815260200160002060020160009054906101000a900473ffffffffffffffffffffffffffffffffffffffff1673ffffffffffffffffffffffffffffffffffffffff161480156111d25750600a60008281526020019081526020016000206005015483115b8015611205575060001515600a600083815260200190815260200160002060040160019054906101000a900460ff161515145b1561139e576112486040518060400160405280600381526020017f4f6e6500000000000000000000000000000000000000000000000000000000008152506129d9565b611251816113d7565b6000600a600083815260200190815260200160002060020160006101000a81548173ffffffffffffffffffffffffffffffffffffffff021916908373ffffffffffffffffffffffffffffffffffffffff1602179055506000600a600083815260200190815260200160002060010160006101000a81548173ffffffffffffffffffffffffffffffffffffffff021916908373ffffffffffffffffffffffffffffffffffffffff1602179055506000600a6000838152602001908152602001600020600301819055506000600a600083815260200190815260200160002060040160006101000a81548160ff0219169083151502179055506000600a6000838152602001908152602001600020600501819055506001600a600083815260200190815260200160002060040160016101000a81548160ff02191690831515021790555061139d6007612a72565b5b5b80806113aa9061485b565b915050611050565b505050565b6113d283838360405180602001604052806000815250611d2b565b505050565b6113e86113e26124d3565b826125a2565b611427576040517f08c379a000000000000000000000000000000000000000000000000000000000815260040161141e906144cb565b60405180910390fd5b61143081612ace565b50565b606060006114416006612594565b905060008060005b838110156114ea573373ffffffffffffffffffffffffffffffffffffffff16600a60006001846114799190614663565b815260200190815260200160002060010160009054906101000a900473ffffffffffffffffffffffffffffffffffffffff1673ffffffffffffffffffffffffffffffffffffffff1614156114d7576001836114d49190614663565b92505b80806114e29061485b565b915050611449565b5060008267ffffffffffffffff81111561152d577f4e487b7100000000000000000000000000000000000000000000000000000000600052604160045260246000fd5b60405190808252806020026020018201604052801561156657816020015b6115536136c3565b81526020019060019003908161154b5790505b50905060005b8481101561181a573373ffffffffffffffffffffffffffffffffffffffff16600a600060018461159c9190614663565b815260200190815260200160002060010160009054906101000a900473ffffffffffffffffffffffffffffffffffffffff1673ffffffffffffffffffffffffffffffffffffffff1614156118075760006001826115f99190614663565b90506000600a600083815260200190815260200160002090508060405180610100016040529081600082015481526020016001820160009054906101000a900473ffffffffffffffffffffffffffffffffffffffff1673ffffffffffffffffffffffffffffffffffffffff1673ffffffffffffffffffffffffffffffffffffffff1681526020016002820160009054906101000a900473ffffffffffffffffffffffffffffffffffffffff1673ffffffffffffffffffffffffffffffffffffffff1673ffffffffffffffffffffffffffffffffffffffff168152602001600382015481526020016004820160009054906101000a900460ff161515151581526020016004820160019054906101000a900460ff161515151581526020016005820154815260200160068201805461172f906147f8565b80601f016020809104026020016040519081016040528092919081815260200182805461175b906147f8565b80156117a85780601f1061177d576101008083540402835291602001916117a8565b820191906000526020600020905b81548152906001019060200180831161178b57829003601f168201915b5050505050815250508486815181106117ea577f4e487b7100000000000000000000000000000000000000000000000000000000600052603260045260246000fd5b60200260200101819052506001856118029190614663565b945050505b80806118129061485b565b91505061156c565b508094505050505090565b6000806002600084815260200190815260200160002060009054906101000a900473ffffffffffffffffffffffffffffffffffffffff169050600073ffffffffffffffffffffffffffffffffffffffff168173ffffffffffffffffffffffffffffffffffffffff1614156118ce576040517f08c379a00000000000000000000000000000000000000000000000000000000081526004016118c59061444b565b60405180910390fd5b80915050919050565b60008073ffffffffffffffffffffffffffffffffffffffff168273ffffffffffffffffffffffffffffffffffffffff161415611948576040517f08c379a000000000000000000000000000000000000000000000000000000000815260040161193f906143ab565b60405180910390fd5b600360008373ffffffffffffffffffffffffffffffffffffffff1673ffffffffffffffffffffffffffffffffffffffff168152602001908152602001600020549050919050565b60606001805461199e906147f8565b80601f01602080910402602001604051908101604052809291908181526020018280546119ca906147f8565b8015611a175780601f106119ec57610100808354040283529160200191611a17565b820191906000526020600020905b8154815290600101906020018083116119fa57829003601f168201915b5050505050905090565b6000600a60008481526020019081526020016000206003015490506000600a600085815260200190815260200160002060010160009054906101000a900473ffffffffffffffffffffffffffffffffffffffff169050813414611ab9576040517f08c379a0000000000000000000000000000000000000000000000000000000008152600401611ab0906143cb565b60405180910390fd5b33600a600086815260200190815260200160002060020160006101000a81548173ffffffffffffffffffffffffffffffffffffffff021916908373ffffffffffffffffffffffffffffffffffffffff1602179055506001600a600086815260200190815260200160002060040160006101000a81548160ff0219169083151502179055506000600a600086815260200190815260200160002060010160006101000a81548173ffffffffffffffffffffffffffffffffffffffff021916908373ffffffffffffffffffffffffffffffffffffffff16021790555082600a600086815260200190815260200160002060050181905550611bb86007612beb565b611bc3303386612637565b600960009054906101000a900473ffffffffffffffffffffffffffffffffffffffff1673ffffffffffffffffffffffffffffffffffffffff166108fc6008549081150290604051600060405180830381858888f19350505050158015611c2d573d6000803e3d6000fd5b508073ffffffffffffffffffffffffffffffffffffffff166108fc349081150290604051600060405180830381858888f19350505050158015611c74573d6000803e3d6000fd5b5050505050565b611c8d611c866124d3565b8383612c01565b5050565b3373ffffffffffffffffffffffffffffffffffffffff16600960009054906101000a900473ffffffffffffffffffffffffffffffffffffffff1673ffffffffffffffffffffffffffffffffffffffff1614611d21576040517f08c379a0000000000000000000000000000000000000000000000000000000008152600401611d18906144ab565b60405180910390fd5b8060088190555050565b611d3c611d366124d3565b836125a2565b611d7b576040517f08c379a0000000000000000000000000000000000000000000000000000000008152600401611d72906144cb565b60405180910390fd5b611d8784848484612d6e565b50505050565b6000611d996006612beb565b6000611da56006612594565b9050611db13382612dca565b611dbc818585612fa4565b809150509392505050565b6060611dd282612488565b6000611ddc61320d565b90506000815111611dfc5760405180602001604052806000815250611e27565b80611e0684613224565b604051602001611e17929190614134565b6040516020818303038152906040525b915050919050565b60003373ffffffffffffffffffffffffffffffffffffffff16600a600085815260200190815260200160002060020160009054906101000a900473ffffffffffffffffffffffffffffffffffffffff1673ffffffffffffffffffffffffffffffffffffffff1614611ed5576040517f08c379a0000000000000000000000000000000000000000000000000000000008152600401611ecc9061434b565b60405180910390fd5b611f136040518060400160405280601381526020017f496e206275726e696e672066756e6374696f6e000000000000000000000000008152506129d9565b6000600a6000858152602001908152602001600020600501541415611f3b5760009050612158565b600a60008481526020019081526020016000206005015482118015611f87575060001515600a600085815260200190815260200160002060040160019054906101000a900460ff161515145b1561215357611fca6040518060400160405280600d81526020017f4275726e696e6720746f6b656e000000000000000000000000000000000000008152506129d9565b611fd3836113d7565b6000600a600085815260200190815260200160002060020160006101000a81548173ffffffffffffffffffffffffffffffffffffffff021916908373ffffffffffffffffffffffffffffffffffffffff16021790555030600a600085815260200190815260200160002060010160006101000a81548173ffffffffffffffffffffffffffffffffffffffff021916908373ffffffffffffffffffffffffffffffffffffffff1602179055506000600a6000858152602001908152602001600020600301819055506000600a600085815260200190815260200160002060040160006101000a81548160ff0219169083151502179055506000600a6000858152602001908152602001600020600501819055506001600a600085815260200190815260200160002060040160016101000a81548160ff02191690831515021790555061211e6007612a72565b61214a600a600085815260200190815260200160002060040160019054906101000a900460ff166133d1565b60019050612158565b600090505b92915050565b6000600560008473ffffffffffffffffffffffffffffffffffffffff1673ffffffffffffffffffffffffffffffffffffffff16815260200190815260200160002060008373ffffffffffffffffffffffffffffffffffffffff1673ffffffffffffffffffffffffffffffffffffffff16815260200190815260200160002060009054906101000a900460ff16905092915050565b3373ffffffffffffffffffffffffffffffffffffffff16600a600085815260200190815260200160002060020160009054906101000a900473ffffffffffffffffffffffffffffffffffffffff1673ffffffffffffffffffffffffffffffffffffffff1614612296576040517f08c379a000000000000000000000000000000000000000000000000000000000815260040161228d9061442b565b60405180910390fd5b6122a08382611e2f565b156122cb576122c6604051806080016040528060468152602001614e83604691396129d9565b612419565b600854341461230f576040517f08c379a00000000000000000000000000000000000000000000000000000000081526004016123069061448b565b60405180910390fd5b6000600a600085815260200190815260200160002060040160006101000a81548160ff02191690831515021790555081600a60008581526020019081526020016000206003018190555033600a600085815260200190815260200160002060010160006101000a81548173ffffffffffffffffffffffffffffffffffffffff021916908373ffffffffffffffffffffffffffffffffffffffff16021790555030600a600085815260200190815260200160002060020160006101000a81548173ffffffffffffffffffffffffffffffffffffffff021916908373ffffffffffffffffffffffffffffffffffffffff16021790555061240d6007612a72565b612418333085612637565b5b505050565b60007f01ffc9a7000000000000000000000000000000000000000000000000000000007bffffffffffffffffffffffffffffffffffffffffffffffffffffffff1916827bffffffffffffffffffffffffffffffffffffffffffffffffffffffff1916149050919050565b6124918161346a565b6124d0576040517f08c379a00000000000000000000000000000000000000000000000000000000081526004016124c79061444b565b60405180910390fd5b50565b600033905090565b816004600083815260200190815260200160002060006101000a81548173ffffffffffffffffffffffffffffffffffffffff021916908373ffffffffffffffffffffffffffffffffffffffff160217905550808273ffffffffffffffffffffffffffffffffffffffff1661254e83611825565b73ffffffffffffffffffffffffffffffffffffffff167f8c5be1e5ebec7d5bd14f71427d1e84f3dd0314c0f7b2291e5b200ac8c7c3b92560405160405180910390a45050565b600081600001549050919050565b6000806125ae83611825565b90508073ffffffffffffffffffffffffffffffffffffffff168473ffffffffffffffffffffffffffffffffffffffff1614806125f057506125ef818561215e565b5b8061262e57508373ffffffffffffffffffffffffffffffffffffffff1661261684610714565b73ffffffffffffffffffffffffffffffffffffffff16145b91505092915050565b8273ffffffffffffffffffffffffffffffffffffffff1661265782611825565b73ffffffffffffffffffffffffffffffffffffffff16146126ad576040517f08c379a00000000000000000000000000000000000000000000000000000000081526004016126a49061430b565b60405180910390fd5b600073ffffffffffffffffffffffffffffffffffffffff168273ffffffffffffffffffffffffffffffffffffffff16141561271d576040517f08c379a00000000000000000000000000000000000000000000000000000000081526004016127149061436b565b60405180910390fd5b6127288383836134d6565b6127336000826124db565b6001600360008573ffffffffffffffffffffffffffffffffffffffff1673ffffffffffffffffffffffffffffffffffffffff168152602001908152602001600020600082825461278391906146ea565b925050819055506001600360008473ffffffffffffffffffffffffffffffffffffffff1673ffffffffffffffffffffffffffffffffffffffff16815260200190815260200160002060008282546127da9190614663565b92505081905550816002600083815260200190815260200160002060006101000a81548173ffffffffffffffffffffffffffffffffffffffff021916908373ffffffffffffffffffffffffffffffffffffffff160217905550808273ffffffffffffffffffffffffffffffffffffffff168473ffffffffffffffffffffffffffffffffffffffff167fddf252ad1be2c89b69c2b068fc378daa952ba7f163c4a11628f55a4df523b3ef60405160405180910390a46128998383836134db565b505050565b6129388383836040516024016128b693929190614272565b6040516020818303038152906040527f50709698000000000000000000000000000000000000000000000000000000007bffffffffffffffffffffffffffffffffffffffffffffffffffffffff19166020820180517bffffffffffffffffffffffffffffffffffffffffffffffffffffffff83818316178352505050506134e0565b505050565b6129d58282604051602401612953929190614526565b6040516020818303038152906040527f6c0f6980000000000000000000000000000000000000000000000000000000007bffffffffffffffffffffffffffffffffffffffffffffffffffffffff19166020820180517bffffffffffffffffffffffffffffffffffffffffffffffffffffffff83818316178352505050506134e0565b5050565b612a6f816040516024016129ed91906142a9565b6040516020818303038152906040527f41304fac000000000000000000000000000000000000000000000000000000007bffffffffffffffffffffffffffffffffffffffffffffffffffffffff19166020820180517bffffffffffffffffffffffffffffffffffffffffffffffffffffffff83818316178352505050506134e0565b50565b60008160000154905060008111612abe576040517f08c379a0000000000000000000000000000000000000000000000000000000008152600401612ab5906142cb565b60405180910390fd5b6001810382600001819055505050565b6000612ad982611825565b9050612ae7816000846134d6565b612af26000836124db565b6001600360008373ffffffffffffffffffffffffffffffffffffffff1673ffffffffffffffffffffffffffffffffffffffff1681526020019081526020016000206000828254612b4291906146ea565b925050819055506002600083815260200190815260200160002060006101000a81549073ffffffffffffffffffffffffffffffffffffffff021916905581600073ffffffffffffffffffffffffffffffffffffffff168273ffffffffffffffffffffffffffffffffffffffff167fddf252ad1be2c89b69c2b068fc378daa952ba7f163c4a11628f55a4df523b3ef60405160405180910390a4612be7816000846134db565b5050565b6001816000016000828254019250508190555050565b8173ffffffffffffffffffffffffffffffffffffffff168373ffffffffffffffffffffffffffffffffffffffff161415612c70576040517f08c379a0000000000000000000000000000000000000000000000000000000008152600401612c679061438b565b60405180910390fd5b80600560008573ffffffffffffffffffffffffffffffffffffffff1673ffffffffffffffffffffffffffffffffffffffff16815260200190815260200160002060008473ffffffffffffffffffffffffffffffffffffffff1673ffffffffffffffffffffffffffffffffffffffff16815260200190815260200160002060006101000a81548160ff0219169083151502179055508173ffffffffffffffffffffffffffffffffffffffff168373ffffffffffffffffffffffffffffffffffffffff167f17307eab39ab6107e8899845ad3d59bd9653f200f220920489ca2b5937696c3183604051612d619190614257565b60405180910390a3505050565b612d79848484612637565b612d8584848484613509565b612dc4576040517f08c379a0000000000000000000000000000000000000000000000000000000008152600401612dbb906142eb565b60405180910390fd5b50505050565b600073ffffffffffffffffffffffffffffffffffffffff168273ffffffffffffffffffffffffffffffffffffffff161415612e3a576040517f08c379a0000000000000000000000000000000000000000000000000000000008152600401612e319061440b565b60405180910390fd5b612e438161346a565b15612e83576040517f08c379a0000000000000000000000000000000000000000000000000000000008152600401612e7a9061432b565b60405180910390fd5b612e8f600083836134d6565b6001600360008473ffffffffffffffffffffffffffffffffffffffff1673ffffffffffffffffffffffffffffffffffffffff1681526020019081526020016000206000828254612edf9190614663565b92505081905550816002600083815260200190815260200160002060006101000a81548173ffffffffffffffffffffffffffffffffffffffff021916908373ffffffffffffffffffffffffffffffffffffffff160217905550808273ffffffffffffffffffffffffffffffffffffffff16600073ffffffffffffffffffffffffffffffffffffffff167fddf252ad1be2c89b69c2b068fc378daa952ba7f163c4a11628f55a4df523b3ef60405160405180910390a4612fa0600083836134db565b5050565b60008211612fe7576040517f08c379a0000000000000000000000000000000000000000000000000000000008152600401612fde906144eb565b60405180910390fd5b600854341461302b576040517f08c379a00000000000000000000000000000000000000000000000000000000081526004016130229061448b565b60405180910390fd5b6040518061010001604052808481526020013373ffffffffffffffffffffffffffffffffffffffff1681526020013073ffffffffffffffffffffffffffffffffffffffff1681526020018381526020016000151581526020016000151581526020016000815260200182815250600a60008581526020019081526020016000206000820151816000015560208201518160010160006101000a81548173ffffffffffffffffffffffffffffffffffffffff021916908373ffffffffffffffffffffffffffffffffffffffff16021790555060408201518160020160006101000a81548173ffffffffffffffffffffffffffffffffffffffff021916908373ffffffffffffffffffffffffffffffffffffffff1602179055506060820151816003015560808201518160040160006101000a81548160ff02191690831515021790555060a08201518160040160016101000a81548160ff02191690831515021790555060c0820151816005015560e08201518160060190805190602001906131b3929190613738565b509050506131c2333085612637565b827fa4f6bdb8b1d8152eb9461de93f599598dc8a16b417f21e423c238fc078d432ff3330856000806000886040516132009796959493929190614173565b60405180910390a2505050565b606060405180602001604052806000815250905090565b6060600082141561326c576040518060400160405280600181526020017f300000000000000000000000000000000000000000000000000000000000000081525090506133cc565b600082905060005b6000821461329e5780806132879061485b565b915050600a8261329791906146b9565b9150613274565b60008167ffffffffffffffff8111156132e0577f4e487b7100000000000000000000000000000000000000000000000000000000600052604160045260246000fd5b6040519080825280601f01601f1916602001820160405280156133125781602001600182028036833780820191505090505b5090505b600085146133c55760018261332b91906146ea565b9150600a8561333a91906148a4565b60306133469190614663565b60f81b818381518110613382577f4e487b7100000000000000000000000000000000000000000000000000000000600052603260045260246000fd5b60200101907effffffffffffffffffffffffffffffffffffffffffffffffffffffffffffff1916908160001a905350600a856133be91906146b9565b9450613316565b8093505050505b919050565b613467816040516024016133e59190614257565b6040516020818303038152906040527f32458eed000000000000000000000000000000000000000000000000000000007bffffffffffffffffffffffffffffffffffffffffffffffffffffffff19166020820180517bffffffffffffffffffffffffffffffffffffffffffffffffffffffff83818316178352505050506134e0565b50565b60008073ffffffffffffffffffffffffffffffffffffffff166002600084815260200190815260200160002060009054906101000a900473ffffffffffffffffffffffffffffffffffffffff1673ffffffffffffffffffffffffffffffffffffffff1614159050919050565b505050565b505050565b60008151905060006a636f6e736f6c652e6c6f679050602083016000808483855afa5050505050565b600061352a8473ffffffffffffffffffffffffffffffffffffffff166136a0565b15613693578373ffffffffffffffffffffffffffffffffffffffff1663150b7a026135536124d3565b8786866040518563ffffffff1660e01b815260040161357594939291906141e9565b602060405180830381600087803b15801561358f57600080fd5b505af19250505080156135c057506040513d601f19601f820116820180604052508101906135bd9190613ae4565b60015b613643573d80600081146135f0576040519150601f19603f3d011682016040523d82523d6000602084013e6135f5565b606091505b5060008151141561363b576040517f08c379a0000000000000000000000000000000000000000000000000000000008152600401613632906142eb565b60405180910390fd5b805181602001fd5b63150b7a0260e01b7bffffffffffffffffffffffffffffffffffffffffffffffffffffffff1916817bffffffffffffffffffffffffffffffffffffffffffffffffffffffff191614915050613698565b600190505b949350505050565b6000808273ffffffffffffffffffffffffffffffffffffffff163b119050919050565b60405180610100016040528060008152602001600073ffffffffffffffffffffffffffffffffffffffff168152602001600073ffffffffffffffffffffffffffffffffffffffff1681526020016000815260200160001515815260200160001515815260200160008152602001606081525090565b828054613744906147f8565b90600052602060002090601f01602090048101928261376657600085556137ad565b82601f1061377f57805160ff19168380011785556137ad565b828001600101855582156137ad579182015b828111156137ac578251825591602001919060010190613791565b5b5090506137ba91906137be565b5090565b5b808211156137d75760008160009055506001016137bf565b5090565b60006137ee6137e984614574565b61454f565b90508281526020810184848401111561380657600080fd5b6138118482856147b6565b509392505050565b600061382c613827846145a5565b61454f565b90508281526020810184848401111561384457600080fd5b61384f8482856147b6565b509392505050565b60008135905061386681614e26565b92915050565b60008135905061387b81614e3d565b92915050565b60008135905061389081614e54565b92915050565b6000815190506138a581614e54565b92915050565b600082601f8301126138bc57600080fd5b81356138cc8482602086016137db565b91505092915050565b600082601f8301126138e657600080fd5b81356138f6848260208601613819565b91505092915050565b60008135905061390e81614e6b565b92915050565b60006020828403121561392657600080fd5b600061393484828501613857565b91505092915050565b6000806040838503121561395057600080fd5b600061395e85828601613857565b925050602061396f85828601613857565b9150509250929050565b60008060006060848603121561398e57600080fd5b600061399c86828701613857565b93505060206139ad86828701613857565b92505060406139be868287016138ff565b9150509250925092565b600080600080608085870312156139de57600080fd5b60006139ec87828801613857565b94505060206139fd87828801613857565b9350506040613a0e878288016138ff565b925050606085013567ffffffffffffffff811115613a2b57600080fd5b613a37878288016138ab565b91505092959194509250565b60008060408385031215613a5657600080fd5b6000613a6485828601613857565b9250506020613a758582860161386c565b9150509250929050565b60008060408385031215613a9257600080fd5b6000613aa085828601613857565b9250506020613ab1858286016138ff565b9150509250929050565b600060208284031215613acd57600080fd5b6000613adb84828501613881565b91505092915050565b600060208284031215613af657600080fd5b6000613b0484828501613896565b91505092915050565b600080600060608486031215613b2257600080fd5b600084013567ffffffffffffffff811115613b3c57600080fd5b613b48868287016138d5565b9350506020613b59868287016138ff565b925050604084013567ffffffffffffffff811115613b7657600080fd5b613b82868287016138d5565b9150509250925092565b600060208284031215613b9e57600080fd5b6000613bac848285016138ff565b91505092915050565b60008060408385031215613bc857600080fd5b6000613bd6858286016138ff565b9250506020613be7858286016138ff565b9150509250929050565b600080600060608486031215613c0657600080fd5b6000613c14868287016138ff565b9350506020613c25868287016138ff565b9250506040613c36868287016138ff565b9150509250925092565b6000613c4c8383614066565b905092915050565b613c5d81614730565b82525050565b613c6c8161471e565b82525050565b6000613c7d826145e6565b613c878185614614565b935083602082028501613c99856145d6565b8060005b85811015613cd55784840389528151613cb68582613c40565b9450613cc183614607565b925060208a01995050600181019050613c9d565b50829750879550505050505092915050565b613cf081614742565b82525050565b613cff81614742565b82525050565b6000613d10826145f1565b613d1a8185614625565b9350613d2a8185602086016147c5565b613d3381614991565b840191505092915050565b613d47816147a4565b82525050565b6000613d58826145fc565b613d628185614636565b9350613d728185602086016147c5565b613d7b81614991565b840191505092915050565b6000613d91826145fc565b613d9b8185614647565b9350613dab8185602086016147c5565b613db481614991565b840191505092915050565b6000613dca826145fc565b613dd48185614658565b9350613de48185602086016147c5565b80840191505092915050565b6000613dfd601b83614647565b9150613e08826149a2565b602082019050919050565b6000613e20603283614647565b9150613e2b826149cb565b604082019050919050565b6000613e43602583614647565b9150613e4e82614a1a565b604082019050919050565b6000613e66601c83614647565b9150613e7182614a69565b602082019050919050565b6000613e89601983614647565b9150613e9482614a92565b602082019050919050565b6000613eac602483614647565b9150613eb782614abb565b604082019050919050565b6000613ecf601983614647565b9150613eda82614b0a565b602082019050919050565b6000613ef2602983614647565b9150613efd82614b33565b604082019050919050565b6000613f15604083614647565b9150613f2082614b82565b604082019050919050565b6000613f38603e83614647565b9150613f4382614bd1565b604082019050919050565b6000613f5b602083614647565b9150613f6682614c20565b602082019050919050565b6000613f7e602a83614647565b9150613f8982614c49565b604082019050919050565b6000613fa1601883614647565b9150613fac82614c98565b602082019050919050565b6000613fc4602183614647565b9150613fcf82614cc1565b604082019050919050565b6000613fe7602483614647565b9150613ff282614d10565b604082019050919050565b600061400a603083614647565b915061401582614d5f565b604082019050919050565b600061402d602e83614647565b915061403882614dae565b604082019050919050565b6000614050601c83614647565b915061405b82614dfd565b602082019050919050565b60006101008301600083015161407f6000860182614116565b5060208301516140926020860182613c54565b5060408301516140a56040860182613c54565b5060608301516140b86060860182614116565b5060808301516140cb6080860182613ce7565b5060a08301516140de60a0860182613ce7565b5060c08301516140f160c0860182614116565b5060e083015184820360e08601526141098282613d4d565b9150508091505092915050565b61411f8161479a565b82525050565b61412e8161479a565b82525050565b60006141408285613dbf565b915061414c8284613dbf565b91508190509392505050565b600060208201905061416d6000830184613c63565b92915050565b600060e082019050614188600083018a613c63565b6141956020830189613c63565b6141a26040830188614125565b6141af6060830187613cf6565b6141bc6080830186613cf6565b6141c960a0830185613d3e565b81810360c08301526141db8184613d86565b905098975050505050505050565b60006080820190506141fe6000830187613c63565b61420b6020830186613c63565b6142186040830185614125565b818103606083015261422a8184613d05565b905095945050505050565b6000602082019050818103600083015261424f8184613c72565b905092915050565b600060208201905061426c6000830184613cf6565b92915050565b60006060820190506142876000830186613cf6565b6142946020830185613cf6565b6142a16040830184613cf6565b949350505050565b600060208201905081810360008301526142c38184613d86565b905092915050565b600060208201905081810360008301526142e481613df0565b9050919050565b6000602082019050818103600083015261430481613e13565b9050919050565b6000602082019050818103600083015261432481613e36565b9050919050565b6000602082019050818103600083015261434481613e59565b9050919050565b6000602082019050818103600083015261436481613e7c565b9050919050565b6000602082019050818103600083015261438481613e9f565b9050919050565b600060208201905081810360008301526143a481613ec2565b9050919050565b600060208201905081810360008301526143c481613ee5565b9050919050565b600060208201905081810360008301526143e481613f08565b9050919050565b6000602082019050818103600083015261440481613f2b565b9050919050565b6000602082019050818103600083015261442481613f4e565b9050919050565b6000602082019050818103600083015261444481613f71565b9050919050565b6000602082019050818103600083015261446481613f94565b9050919050565b6000602082019050818103600083015261448481613fb7565b9050919050565b600060208201905081810360008301526144a481613fda565b9050919050565b600060208201905081810360008301526144c481613ffd565b9050919050565b600060208201905081810360008301526144e481614020565b9050919050565b6000602082019050818103600083015261450481614043565b9050919050565b60006020820190506145206000830184614125565b92915050565b600060408201905061453b6000830185614125565b6145486020830184614125565b9392505050565b600061455961456a565b9050614565828261482a565b919050565b6000604051905090565b600067ffffffffffffffff82111561458f5761458e614962565b5b61459882614991565b9050602081019050919050565b600067ffffffffffffffff8211156145c0576145bf614962565b5b6145c982614991565b9050602081019050919050565b6000819050602082019050919050565b600081519050919050565b600081519050919050565b600081519050919050565b6000602082019050919050565b600082825260208201905092915050565b600082825260208201905092915050565b600082825260208201905092915050565b600082825260208201905092915050565b600081905092915050565b600061466e8261479a565b91506146798361479a565b9250827fffffffffffffffffffffffffffffffffffffffffffffffffffffffffffffffff038211156146ae576146ad6148d5565b5b828201905092915050565b60006146c48261479a565b91506146cf8361479a565b9250826146df576146de614904565b5b828204905092915050565b60006146f58261479a565b91506147008361479a565b925082821015614713576147126148d5565b5b828203905092915050565b60006147298261477a565b9050919050565b600061473b8261477a565b9050919050565b60008115159050919050565b60007fffffffff0000000000000000000000000000000000000000000000000000000082169050919050565b600073ffffffffffffffffffffffffffffffffffffffff82169050919050565b6000819050919050565b60006147af8261479a565b9050919050565b82818337600083830152505050565b60005b838110156147e35780820151818401526020810190506147c8565b838111156147f2576000848401525b50505050565b6000600282049050600182168061481057607f821691505b6020821081141561482457614823614933565b5b50919050565b61483382614991565b810181811067ffffffffffffffff8211171561485257614851614962565b5b80604052505050565b60006148668261479a565b91507fffffffffffffffffffffffffffffffffffffffffffffffffffffffffffffffff821415614899576148986148d5565b5b600182019050919050565b60006148af8261479a565b91506148ba8361479a565b9250826148ca576148c9614904565b5b828206905092915050565b7f4e487b7100000000000000000000000000000000000000000000000000000000600052601160045260246000fd5b7f4e487b7100000000000000000000000000000000000000000000000000000000600052601260045260246000fd5b7f4e487b7100000000000000000000000000000000000000000000000000000000600052602260045260246000fd5b7f4e487b7100000000000000000000000000000000000000000000000000000000600052604160045260246000fd5b6000601f19601f8301169050919050565b7f436f756e7465723a2064656372656d656e74206f766572666c6f770000000000600082015250565b7f4552433732313a207472616e7366657220746f206e6f6e20455243373231526560008201527f63656976657220696d706c656d656e7465720000000000000000000000000000602082015250565b7f4552433732313a207472616e736665722066726f6d20696e636f72726563742060008201527f6f776e6572000000000000000000000000000000000000000000000000000000602082015250565b7f4552433732313a20746f6b656e20616c7265616479206d696e74656400000000600082015250565b7f4f6e6c79206f776e65722063616e206275726e20746f6b656e00000000000000600082015250565b7f4552433732313a207472616e7366657220746f20746865207a65726f2061646460008201527f7265737300000000000000000000000000000000000000000000000000000000602082015250565b7f4552433732313a20617070726f766520746f2063616c6c657200000000000000600082015250565b7f4552433732313a2061646472657373207a65726f206973206e6f74206120766160008201527f6c6964206f776e65720000000000000000000000000000000000000000000000602082015250565b7f506c65617365207375626d6974207468652061736b696e67207072696365206960008201527f6e206f7264657220746f20636f6d706c65746520746865207075726368617365602082015250565b7f4552433732313a20617070726f76652063616c6c6572206973206e6f7420746f60008201527f6b656e206f776e6572206e6f7220617070726f76656420666f7220616c6c0000602082015250565b7f4552433732313a206d696e7420746f20746865207a65726f2061646472657373600082015250565b7f4f6e6c79206974656d206f776e65722063616e20706572666f726d207468697360008201527f206f7065726174696f6e00000000000000000000000000000000000000000000602082015250565b7f4552433732313a20696e76616c696420746f6b656e2049440000000000000000600082015250565b7f4552433732313a20617070726f76616c20746f2063757272656e74206f776e6560008201527f7200000000000000000000000000000000000000000000000000000000000000602082015250565b7f5072696365206d75737420626520657175616c20746f206c697374696e67207060008201527f7269636500000000000000000000000000000000000000000000000000000000602082015250565b7f4f6e6c79206d61726b6574706c616365206f776e65722063616e20757064617460008201527f65206c697374696e672070726963652e00000000000000000000000000000000602082015250565b7f4552433732313a2063616c6c6572206973206e6f7420746f6b656e206f776e6560008201527f72206e6f7220617070726f766564000000000000000000000000000000000000602082015250565b7f5072696365206d757374206265206174206c6561737420312077656900000000600082015250565b614e2f8161471e565b8114614e3a57600080fd5b50565b614e4681614742565b8114614e5157600080fd5b50565b614e5d8161474e565b8114614e6857600080fd5b50565b614e748161479a565b8114614e7f57600080fd5b5056fe50617373206d65737361676520746861742057617272616e747920416c726561647920657870697265642068656e63652063616e6e6f74206265207472616e73666572656564a264697066735822122050666d2f77321fc4d0990f427f50d0538dfb1dbf2eb32ac52f175c7adc7b74d564736f6c63430008040033",
  "linkReferences": {},
  "deployedLinkReferences": {}
}