{
  "_format": "hh-sol-artifact-1",
  "contractName": "NFTMarketplace",
  "sourceName": "contracts/NFTMarketplace.sol",
  "abi": [
    {
      "inputs": [],
      "stateMutability": "nonpayable",
      "type": "constructor"
    },
    {
      "anonymous": false,
      "inputs": [
        {
          "indexed": true,
          "internalType": "address",
          "name": "owner",
          "type": "address"
        },
        {
          "indexed": true,
          "internalType": "address",
          "name": "approved",
          "type": "address"
        },
        {
          "indexed": true,
          "internalType": "uint256",
          "name": "tokenId",
          "type": "uint256"
        }
      ],
      "name": "Approval",
      "type": "event"
    },
    {
      "anonymous": false,
      "inputs": [
        {
          "indexed": true,
          "internalType": "address",
          "name": "owner",
          "type": "address"
        },
        {
          "indexed": true,
          "internalType": "address",
          "name": "operator",
          "type": "address"
        },
        {
          "indexed": false,
          "internalType": "bool",
          "name": "approved",
          "type": "bool"
        }
      ],
      "name": "ApprovalForAll",
      "type": "event"
    },
    {
      "anonymous": false,
      "inputs": [
        {
          "indexed": true,
          "internalType": "uint256",
          "name": "tokenId",
          "type": "uint256"
        },
        {
          "indexed": false,
          "internalType": "address",
          "name": "seller",
          "type": "address"
        },
        {
          "indexed": false,
          "internalType": "address",
          "name": "owner",
          "type": "address"
        },
        {
          "indexed": false,
          "internalType": "uint256",
          "name": "price",
          "type": "uint256"
        },
        {
          "indexed": false,
          "internalType": "bool",
          "name": "sold",
          "type": "bool"
        },
        {
          "indexed": false,
          "internalType": "bool",
          "name": "burn",
          "type": "bool"
        },
        {
          "indexed": false,
          "internalType": "uint256",
          "name": "date",
          "type": "uint256"
        },
        {
          "indexed": false,
          "internalType": "string",
          "name": "mongoId",
          "type": "string"
        }
      ],
      "name": "MarketItemCreated",
      "type": "event"
    },
    {
      "anonymous": false,
      "inputs": [
        {
          "indexed": true,
          "internalType": "address",
          "name": "from",
          "type": "address"
        },
        {
          "indexed": true,
          "internalType": "address",
          "name": "to",
          "type": "address"
        },
        {
          "indexed": true,
          "internalType": "uint256",
          "name": "tokenId",
          "type": "uint256"
        }
      ],
      "name": "Transfer",
      "type": "event"
    },
    {
      "inputs": [
        {
          "internalType": "address",
          "name": "to",
          "type": "address"
        },
        {
          "internalType": "uint256",
          "name": "tokenId",
          "type": "uint256"
        }
      ],
      "name": "approve",
      "outputs": [],
      "stateMutability": "nonpayable",
      "type": "function"
    },
    {
      "inputs": [
        {
          "internalType": "address",
          "name": "owner",
          "type": "address"
        }
      ],
      "name": "balanceOf",
      "outputs": [
        {
          "internalType": "uint256",
          "name": "",
          "type": "uint256"
        }
      ],
      "stateMutability": "view",
      "type": "function"
    },
    {
      "inputs": [],
      "name": "burnNFT",
      "outputs": [],
      "stateMutability": "nonpayable",
      "type": "function"
    },
    {
      "inputs": [
        {
          "internalType": "uint256",
          "name": "tokenId",
          "type": "uint256"
        }
      ],
      "name": "createMarketSale",
      "outputs": [],
      "stateMutability": "payable",
      "type": "function"
    },
    {
      "inputs": [
        {
          "internalType": "string",
          "name": "tokenURI",
          "type": "string"
        },
        {
          "internalType": "uint256",
          "name": "price",
          "type": "uint256"
        }
      ],
      "name": "createToken",
      "outputs": [
        {
          "internalType": "uint256",
          "name": "",
          "type": "uint256"
        }
      ],
      "stateMutability": "payable",
      "type": "function"
    },
    {
      "inputs": [],
      "name": "fetchItemsListed",
      "outputs": [
        {
          "components": [
            {
              "internalType": "uint256",
              "name": "tokenId",
              "type": "uint256"
            },
            {
              "internalType": "address payable",
              "name": "seller",
              "type": "address"
            },
            {
              "internalType": "address payable",
              "name": "owner",
              "type": "address"
            },
            {
              "internalType": "uint256",
              "name": "price",
              "type": "uint256"
            },
            {
              "internalType": "bool",
              "name": "sold",
              "type": "bool"
            },
            {
              "internalType": "bool",
              "name": "burn",
              "type": "bool"
            },
            {
              "internalType": "uint256",
              "name": "date",
              "type": "uint256"
            },
            {
              "internalType": "string",
              "name": "mongoId",
              "type": "string"
            }
          ],
          "internalType": "struct NFTMarketplace.MarketItem[]",
          "name": "",
          "type": "tuple[]"
        }
      ],
      "stateMutability": "view",
      "type": "function"
    },
    {
      "inputs": [],
      "name": "fetchMarketItems",
      "outputs": [
        {
          "components": [
            {
              "internalType": "uint256",
              "name": "tokenId",
              "type": "uint256"
            },
            {
              "internalType": "address payable",
              "name": "seller",
              "type": "address"
            },
            {
              "internalType": "address payable",
              "name": "owner",
              "type": "address"
            },
            {
              "internalType": "uint256",
              "name": "price",
              "type": "uint256"
            },
            {
              "internalType": "bool",
              "name": "sold",
              "type": "bool"
            },
            {
              "internalType": "bool",
              "name": "burn",
              "type": "bool"
            },
            {
              "internalType": "uint256",
              "name": "date",
              "type": "uint256"
            },
            {
              "internalType": "string",
              "name": "mongoId",
              "type": "string"
            }
          ],
          "internalType": "struct NFTMarketplace.MarketItem[]",
          "name": "",
          "type": "tuple[]"
        }
      ],
      "stateMutability": "view",
      "type": "function"
    },
    {
      "inputs": [],
      "name": "fetchMyNFTs",
      "outputs": [
        {
          "components": [
            {
              "internalType": "uint256",
              "name": "tokenId",
              "type": "uint256"
            },
            {
              "internalType": "address payable",
              "name": "seller",
              "type": "address"
            },
            {
              "internalType": "address payable",
              "name": "owner",
              "type": "address"
            },
            {
              "internalType": "uint256",
              "name": "price",
              "type": "uint256"
            },
            {
              "internalType": "bool",
              "name": "sold",
              "type": "bool"
            },
            {
              "internalType": "bool",
              "name": "burn",
              "type": "bool"
            },
            {
              "internalType": "uint256",
              "name": "date",
              "type": "uint256"
            },
            {
              "internalType": "string",
              "name": "mongoId",
              "type": "string"
            }
          ],
          "internalType": "struct NFTMarketplace.MarketItem[]",
          "name": "",
          "type": "tuple[]"
        }
      ],
      "stateMutability": "view",
      "type": "function"
    },
    {
      "inputs": [
        {
          "internalType": "uint256",
          "name": "tokenId",
          "type": "uint256"
        }
      ],
      "name": "getApproved",
      "outputs": [
        {
          "internalType": "address",
          "name": "",
          "type": "address"
        }
      ],
      "stateMutability": "view",
      "type": "function"
    },
    {
      "inputs": [],
      "name": "getListingPrice",
      "outputs": [
        {
          "internalType": "uint256",
          "name": "",
          "type": "uint256"
        }
      ],
      "stateMutability": "view",
      "type": "function"
    },
    {
      "inputs": [
        {
          "internalType": "address",
          "name": "owner",
          "type": "address"
        },
        {
          "internalType": "address",
          "name": "operator",
          "type": "address"
        }
      ],
      "name": "isApprovedForAll",
      "outputs": [
        {
          "internalType": "bool",
          "name": "",
          "type": "bool"
        }
      ],
      "stateMutability": "view",
      "type": "function"
    },
    {
      "inputs": [],
      "name": "name",
      "outputs": [
        {
          "internalType": "string",
          "name": "",
          "type": "string"
        }
      ],
      "stateMutability": "view",
      "type": "function"
    },
    {
      "inputs": [
        {
          "internalType": "uint256",
          "name": "tokenId",
          "type": "uint256"
        }
      ],
      "name": "ownerOf",
      "outputs": [
        {
          "internalType": "address",
          "name": "",
          "type": "address"
        }
      ],
      "stateMutability": "view",
      "type": "function"
    },
    {
      "inputs": [
        {
          "internalType": "uint256",
          "name": "tokenId",
          "type": "uint256"
        },
        {
          "internalType": "uint256",
          "name": "price",
          "type": "uint256"
        }
      ],
      "name": "resellToken",
      "outputs": [],
      "stateMutability": "payable",
      "type": "function"
    },
    {
      "inputs": [],
      "name": "returnFalse",
      "outputs": [
        {
          "internalType": "bool",
          "name": "",
          "type": "bool"
        }
      ],
      "stateMutability": "view",
      "type": "function"
    },
    {
      "inputs": [],
      "name": "returnTrue",
      "outputs": [
        {
          "internalType": "bool",
          "name": "",
          "type": "bool"
        }
      ],
      "stateMutability": "view",
      "type": "function"
    },
    {
      "inputs": [
        {
          "internalType": "address",
          "name": "from",
          "type": "address"
        },
        {
          "internalType": "address",
          "name": "to",
          "type": "address"
        },
        {
          "internalType": "uint256",
          "name": "tokenId",
          "type": "uint256"
        }
      ],
      "name": "safeTransferFrom",
      "outputs": [],
      "stateMutability": "nonpayable",
      "type": "function"
    },
    {
      "inputs": [
        {
          "internalType": "address",
          "name": "from",
          "type": "address"
        },
        {
          "internalType": "address",
          "name": "to",
          "type": "address"
        },
        {
          "internalType": "uint256",
          "name": "tokenId",
          "type": "uint256"
        },
        {
          "internalType": "bytes",
          "name": "data",
          "type": "bytes"
        }
      ],
      "name": "safeTransferFrom",
      "outputs": [],
      "stateMutability": "nonpayable",
      "type": "function"
    },
    {
      "inputs": [
        {
          "internalType": "address",
          "name": "operator",
          "type": "address"
        },
        {
          "internalType": "bool",
          "name": "approved",
          "type": "bool"
        }
      ],
      "name": "setApprovalForAll",
      "outputs": [],
      "stateMutability": "nonpayable",
      "type": "function"
    },
    {
      "inputs": [
        {
          "internalType": "uint256",
          "name": "tokenId",
          "type": "uint256"
        }
      ],
      "name": "specificBurn",
      "outputs": [
        {
          "internalType": "bool",
          "name": "",
          "type": "bool"
        }
      ],
      "stateMutability": "nonpayable",
      "type": "function"
    },
    {
      "inputs": [
        {
          "internalType": "bytes4",
          "name": "interfaceId",
          "type": "bytes4"
        }
      ],
      "name": "supportsInterface",
      "outputs": [
        {
          "internalType": "bool",
          "name": "",
          "type": "bool"
        }
      ],
      "stateMutability": "view",
      "type": "function"
    },
    {
      "inputs": [],
      "name": "symbol",
      "outputs": [
        {
          "internalType": "string",
          "name": "",
          "type": "string"
        }
      ],
      "stateMutability": "view",
      "type": "function"
    },
    {
      "inputs": [
        {
          "internalType": "uint256",
          "name": "tokenId",
          "type": "uint256"
        }
      ],
      "name": "tokenURI",
      "outputs": [
        {
          "internalType": "string",
          "name": "",
          "type": "string"
        }
      ],
      "stateMutability": "view",
      "type": "function"
    },
    {
      "inputs": [
        {
          "internalType": "address",
          "name": "from",
          "type": "address"
        },
        {
          "internalType": "address",
          "name": "to",
          "type": "address"
        },
        {
          "internalType": "uint256",
          "name": "tokenId",
          "type": "uint256"
        }
      ],
      "name": "transferFrom",
      "outputs": [],
      "stateMutability": "nonpayable",
      "type": "function"
    },
    {
      "inputs": [
        {
          "internalType": "uint256",
          "name": "_listingPrice",
          "type": "uint256"
        }
      ],
      "name": "updateListingPrice",
      "outputs": [],
      "stateMutability": "payable",
      "type": "function"
    }
  ],
  "bytecode": "0x60806040526658d15e176280006009553480156200001c57600080fd5b50604080518082018252601081526f4d657461766572736520546f6b656e7360801b6020808301918252835180850190945260048452631351551560e21b9084015281519192916200007191600091620000a2565b50805162000087906001906020840190620000a2565b5050600a80546001600160a01b031916331790555062000185565b828054620000b09062000148565b90600052602060002090601f016020900481019282620000d457600085556200011f565b82601f10620000ef57805160ff19168380011785556200011f565b828001600101855582156200011f579182015b828111156200011f57825182559160200191906001019062000102565b506200012d92915062000131565b5090565b5b808211156200012d576000815560010162000132565b600181811c908216806200015d57607f821691505b602082108114156200017f57634e487b7160e01b600052602260045260246000fd5b50919050565b612bbc80620001956000396000f3fe6080604052600436106101665760003560e01c80636352211e116100d1578063ae677aa31161008a578063c87b56dd11610064578063c87b56dd146103de578063e219fc75146103fe578063e985e9c514610411578063f613a6871461045a57600080fd5b8063ae677aa314610398578063b88d4fde146103ab578063be9af536146103cb57600080fd5b80636352211e146102fb57806370a082311461031b57806372b3b6201461033b578063740ea8ab1461034e57806395d89b4114610363578063a22cb4651461037857600080fd5b80631471cb1c116101235780631471cb1c1461025d578063202e37401461027d57806323b872dd1461029257806329c14766146102b257806342842e0e146102c657806345f8fa80146102e657600080fd5b806301ffc9a71461016b57806306fdde03146101a0578063081812fc146101c2578063095ea7b3146101fa5780630f08efe01461021c57806312e855851461023e575b600080fd5b34801561017757600080fd5b5061018b6101863660046126e8565b61046e565b60405190151581526020015b60405180910390f35b3480156101ac57600080fd5b506101b56104c0565b6040516101979190612918565b3480156101ce57600080fd5b506101e26101dd366004612776565b610552565b6040516001600160a01b039091168152602001610197565b34801561020657600080fd5b5061021a6102153660046126bf565b610579565b005b34801561022857600080fd5b50610231610694565b6040516101979190612847565b34801561024a57600080fd5b506009545b604051908152602001610197565b34801561026957600080fd5b5061018b610278366004612776565b6108d9565b34801561028957600080fd5b50610231610a96565b34801561029e57600080fd5b5061021a6102ad3660046125d1565b610d19565b3480156102be57600080fd5b50600061018b565b3480156102d257600080fd5b5061021a6102e13660046125d1565b610d4a565b3480156102f257600080fd5b50610231610d65565b34801561030757600080fd5b506101e2610316366004612776565b610fe8565b34801561032757600080fd5b5061024f610336366004612585565b611048565b61024f610349366004612720565b6110ce565b34801561035a57600080fd5b5061021a611110565b34801561036f57600080fd5b506101b561129d565b34801561038457600080fd5b5061021a610393366004612685565b6112ac565b61021a6103a6366004612776565b6112bb565b3480156103b757600080fd5b5061021a6103c636600461260c565b611333565b61021a6103d9366004612776565b61136b565b3480156103ea57600080fd5b506101b56103f9366004612776565b6114d0565b61021a61040c36600461278e565b6115e1565b34801561041d57600080fd5b5061018b61042c36600461259f565b6001600160a01b03918216600090815260056020908152604080832093909416825291909152205460ff1690565b34801561046657600080fd5b50600161018b565b60006001600160e01b031982166380ac58cd60e01b148061049f57506001600160e01b03198216635b5e139f60e01b145b806104ba57506301ffc9a760e01b6001600160e01b03198316145b92915050565b6060600080546104cf90612a7e565b80601f01602080910402602001604051908101604052809291908181526020018280546104fb90612a7e565b80156105485780601f1061051d57610100808354040283529160200191610548565b820191906000526020600020905b81548152906001019060200180831161052b57829003601f168201915b5050505050905090565b600061055d82611708565b506000908152600460205260409020546001600160a01b031690565b600061058482610fe8565b9050806001600160a01b0316836001600160a01b031614156105f75760405162461bcd60e51b815260206004820152602160248201527f4552433732313a20617070726f76616c20746f2063757272656e74206f776e656044820152603960f91b60648201526084015b60405180910390fd5b336001600160a01b03821614806106135750610613813361042c565b6106855760405162461bcd60e51b815260206004820152603e60248201527f4552433732313a20617070726f76652063616c6c6572206973206e6f7420746f60448201527f6b656e206f776e6572206e6f7220617070726f76656420666f7220616c6c000060648201526084016105ee565b61068f838361176a565b505050565b606060006106a160075490565b905060006106ae60085490565b6007546106bb9190612a3b565b90506000808267ffffffffffffffff8111156106e757634e487b7160e01b600052604160045260246000fd5b60405190808252806020026020018201604052801561072057816020015b61070d6123c5565b8152602001906001900390816107055790505b50905060005b848110156108d05730600b600061073e846001612a0f565b81526020810191909152604001600020600201546001600160a01b031614156108be57600061076e826001612a0f565b6000818152600b6020908152604091829020825161010080820185528254825260018301546001600160a01b039081169483019490945260028301549093169381019390935260038101546060840152600481015460ff80821615156080860152929004909116151560a0830152600581015460c08301526006810180549394509092839160e084019161080190612a7e565b80601f016020809104026020016040519081016040528092919081815260200182805461082d90612a7e565b801561087a5780601f1061084f5761010080835404028352916020019161087a565b820191906000526020600020905b81548152906001019060200180831161085d57829003601f168201915b5050505050815250508486815181106108a357634e487b7160e01b600052603260045260246000fd5b60209081029190910101526108b9600186612a0f565b945050505b806108c881612ab9565b915050610726565b50949350505050565b6000818152600b60205260408120600201546001600160a01b031633146109425760405162461bcd60e51b815260206004820152601960248201527f4f6e6c79206f776e65722063616e206275726e20746f6b656e0000000000000060448201526064016105ee565b6109766040518060400160405280601381526020017224b710313ab93734b73390333ab731ba34b7b760691b8152506117d8565b6000828152600b602052604090206005015461099457506000919050565b6000828152600b602052604090206005015460031180156109cc57506000828152600b6020526040902060040154610100900460ff16155b15610a8e576109ff6040518060400160405280600d81526020016c213ab93734b733903a37b5b2b760991b8152506117d8565b610a088261181b565b6000828152600b602052604081206002810180546001600160a01b0319908116909155600182018054909116301790556003810182905560048101805460059092019290925561ffff1916610100179055610a63600861185b565b6000828152600b6020526040902060040154610a8690610100900460ff166118b2565b506001919050565b506000919050565b60606000610aa360075490565b905060008060005b83811015610b065733600b6000610ac3846001612a0f565b81526020810191909152604001600020600201546001600160a01b03161415610af457610af1600184612a0f565b92505b80610afe81612ab9565b915050610aab565b5060008267ffffffffffffffff811115610b3057634e487b7160e01b600052604160045260246000fd5b604051908082528060200260200182016040528015610b6957816020015b610b566123c5565b815260200190600190039081610b4e5790505b50905060005b848110156108d05733600b6000610b87846001612a0f565b81526020810191909152604001600020600201546001600160a01b03161415610d07576000610bb7826001612a0f565b6000818152600b6020908152604091829020825161010080820185528254825260018301546001600160a01b039081169483019490945260028301549093169381019390935260038101546060840152600481015460ff80821615156080860152929004909116151560a0830152600581015460c08301526006810180549394509092839160e0840191610c4a90612a7e565b80601f0160208091040260200160405190810160405280929190818152602001828054610c7690612a7e565b8015610cc35780601f10610c9857610100808354040283529160200191610cc3565b820191906000526020600020905b815481529060010190602001808311610ca657829003601f168201915b505050505081525050848681518110610cec57634e487b7160e01b600052603260045260246000fd5b6020908102919091010152610d02600186612a0f565b945050505b80610d1181612ab9565b915050610b6f565b610d2333826118f3565b610d3f5760405162461bcd60e51b81526004016105ee906129c1565b61068f838383611971565b61068f83838360405180602001604052806000815250611333565b60606000610d7260075490565b905060008060005b83811015610dd55733600b6000610d92846001612a0f565b81526020810191909152604001600020600101546001600160a01b03161415610dc357610dc0600184612a0f565b92505b80610dcd81612ab9565b915050610d7a565b5060008267ffffffffffffffff811115610dff57634e487b7160e01b600052604160045260246000fd5b604051908082528060200260200182016040528015610e3857816020015b610e256123c5565b815260200190600190039081610e1d5790505b50905060005b848110156108d05733600b6000610e56846001612a0f565b81526020810191909152604001600020600101546001600160a01b03161415610fd6576000610e86826001612a0f565b6000818152600b6020908152604091829020825161010080820185528254825260018301546001600160a01b039081169483019490945260028301549093169381019390935260038101546060840152600481015460ff80821615156080860152929004909116151560a0830152600581015460c08301526006810180549394509092839160e0840191610f1990612a7e565b80601f0160208091040260200160405190810160405280929190818152602001828054610f4590612a7e565b8015610f925780601f10610f6757610100808354040283529160200191610f92565b820191906000526020600020905b815481529060010190602001808311610f7557829003601f168201915b505050505081525050848681518110610fbb57634e487b7160e01b600052603260045260246000fd5b6020908102919091010152610fd1600186612a0f565b945050505b80610fe081612ab9565b915050610e3e565b6000818152600260205260408120546001600160a01b0316806104ba5760405162461bcd60e51b8152602060048201526018602482015277115490cdcc8c4e881a5b9d985b1a59081d1bdad95b88125160421b60448201526064016105ee565b60006001600160a01b0382166110b25760405162461bcd60e51b815260206004820152602960248201527f4552433732313a2061646472657373207a65726f206973206e6f7420612076616044820152683634b21037bbb732b960b91b60648201526084016105ee565b506001600160a01b031660009081526003602052604090205490565b60006110de600780546001019055565b60006110e960075490565b90506110f53382611b0d565b6110ff8185611c4f565b6111098184611ce9565b9392505050565b6003600061111d60075490565b905060015b81811161068f576000818152600b602052604090206002810154600582015460049092015461116c926001600160a01b039290921633149186119060ff6101009091041615611ed6565b6000818152600b6020526040902060050154611189908490611f27565b6000818152600b60205260409020600501546111a45761128b565b6000818152600b60205260409020600201546001600160a01b0316331480156111dd57506000818152600b602052604090206005015483115b801561120057506000818152600b6020526040902060040154610100900460ff16155b1561128b57611229604051806040016040528060038152602001624f6e6560e81b8152506117d8565b6112328161181b565b6000818152600b602052604081206002810180546001600160a01b031990811690915560018201805490911690556003810182905560048101805460059092019290925561ffff191661010017905561128b600861185b565b8061129581612ab9565b915050611122565b6060600180546104cf90612a7e565b6112b7338383611f6d565b5050565b600a546001600160a01b0316331461132e5760405162461bcd60e51b815260206004820152603060248201527f4f6e6c79206d61726b6574706c616365206f776e65722063616e20757064617460448201526f32903634b9ba34b73390383934b1b29760811b60648201526084016105ee565b600955565b61133d33836118f3565b6113595760405162461bcd60e51b81526004016105ee906129c1565b6113658484848461203c565b50505050565b6000818152600b6020526040902060038101546001909101546001600160a01b0316348214611404576040805162461bcd60e51b81526020600482015260248101919091527f506c65617365207375626d6974207468652061736b696e67207072696365206960448201527f6e206f7264657220746f20636f6d706c6574652074686520707572636861736560648201526084016105ee565b6000838152600b602052604090206002810180546001600160a01b0319908116331790915560048201805460ff1916600190811790915590910180549091169055611453600880546001019055565b61145e303385611971565b600a546009546040516001600160a01b039092169181156108fc0291906000818181858888f1935050505015801561149a573d6000803e3d6000fd5b506040516001600160a01b038216903480156108fc02916000818181858888f19350505050158015611365573d6000803e3d6000fd5b60606114db82611708565b600082815260066020526040812080546114f490612a7e565b80601f016020809104026020016040519081016040528092919081815260200182805461152090612a7e565b801561156d5780601f106115425761010080835404028352916020019161156d565b820191906000526020600020905b81548152906001019060200180831161155057829003601f168201915b50505050509050600061158b60408051602081019091526000815290565b905080516000141561159e575092915050565b8151156115d05780826040516020016115b89291906127db565b60405160208183030381529060405292505050919050565b6115d98461206f565b949350505050565b6000828152600b60205260409020600201546001600160a01b0316331461165d5760405162461bcd60e51b815260206004820152602a60248201527f4f6e6c79206974656d206f776e65722063616e20706572666f726d20746869736044820152691037b832b930ba34b7b760b11b60648201526084016105ee565b600954341461167e5760405162461bcd60e51b81526004016105ee9061297d565b611687826108d9565b156116ad576112b7604051806080016040528060468152602001612b41604691396117d8565b6000828152600b6020526040902060048101805460ff19169055600381018290556001810180546001600160a01b0319908116331790915560029091018054909116301790556116fd600861185b565b6112b7333084611971565b6000818152600260205260409020546001600160a01b03166117675760405162461bcd60e51b8152602060048201526018602482015277115490cdcc8c4e881a5b9d985b1a59081d1bdad95b88125160421b60448201526064016105ee565b50565b600081815260046020526040902080546001600160a01b0319166001600160a01b038416908117909155819061179f82610fe8565b6001600160a01b03167f8c5be1e5ebec7d5bd14f71427d1e84f3dd0314c0f7b2291e5b200ac8c7c3b92560405160405180910390a45050565b611767816040516024016117ec9190612918565b60408051601f198184030181529190526020810180516001600160e01b031663104c13eb60e21b1790526120e2565b61182481612103565b6000818152600660205260409020805461183d90612a7e565b15905061176757600081815260066020526040812061176791612420565b8054806118aa5760405162461bcd60e51b815260206004820152601b60248201527f436f756e7465723a2064656372656d656e74206f766572666c6f77000000000060448201526064016105ee565b600019019055565b60405181151560248201526117679060440160408051601f198184030181529190526020810180516001600160e01b03166332458eed60e01b1790526120e2565b6000806118ff83610fe8565b9050806001600160a01b0316846001600160a01b0316148061194657506001600160a01b0380821660009081526005602090815260408083209388168352929052205460ff165b806115d95750836001600160a01b031661195f84610552565b6001600160a01b031614949350505050565b826001600160a01b031661198482610fe8565b6001600160a01b0316146119e85760405162461bcd60e51b815260206004820152602560248201527f4552433732313a207472616e736665722066726f6d20696e636f72726563742060448201526437bbb732b960d91b60648201526084016105ee565b6001600160a01b038216611a4a5760405162461bcd60e51b8152602060048201526024808201527f4552433732313a207472616e7366657220746f20746865207a65726f206164646044820152637265737360e01b60648201526084016105ee565b611a5560008261176a565b6001600160a01b0383166000908152600360205260408120805460019290611a7e908490612a3b565b90915550506001600160a01b0382166000908152600360205260408120805460019290611aac908490612a0f565b909155505060008181526002602052604080822080546001600160a01b0319166001600160a01b0386811691821790925591518493918716917fddf252ad1be2c89b69c2b068fc378daa952ba7f163c4a11628f55a4df523b3ef91a4505050565b6001600160a01b038216611b635760405162461bcd60e51b815260206004820181905260248201527f4552433732313a206d696e7420746f20746865207a65726f206164647265737360448201526064016105ee565b6000818152600260205260409020546001600160a01b031615611bc85760405162461bcd60e51b815260206004820152601c60248201527f4552433732313a20746f6b656e20616c7265616479206d696e7465640000000060448201526064016105ee565b6001600160a01b0382166000908152600360205260408120805460019290611bf1908490612a0f565b909155505060008181526002602052604080822080546001600160a01b0319166001600160a01b03861690811790915590518392907fddf252ad1be2c89b69c2b068fc378daa952ba7f163c4a11628f55a4df523b3ef908290a45050565b6000828152600260205260409020546001600160a01b0316611cca5760405162461bcd60e51b815260206004820152602e60248201527f45524337323155524953746f726167653a2055524920736574206f66206e6f6e60448201526d32bc34b9ba32b73a103a37b5b2b760911b60648201526084016105ee565b6000828152600660209081526040909120825161068f9284019061245a565b60008111611d395760405162461bcd60e51b815260206004820152601c60248201527f5072696365206d757374206265206174206c656173742031207765690000000060448201526064016105ee565b6009543414611d5a5760405162461bcd60e51b81526004016105ee9061297d565b604080516101008082018352848252336020808401918252308486019081526060850187815260006080870181815260a08801828152600160c08a018181528b51808d018d5260078152661b5bdb99dbd25960ca1b818a015260e08c019081528e8652600b89529b9094208a518155975190880180546001600160a01b03199081166001600160a01b03938416179091559551600289018054909716911617909455915160038601559051600485018054935161ffff1990941691151561ff00191691909117921515909502919091179093559151600582015592518051929392611e4b926006850192019061245a565b50905050611e5a333084611971565b604080513381523060208201529081018290526000606082018190526080820152600160a082015260e060c08201819052600790820152661b5bdb99dbd25960ca1b61010082015282907fa4f6bdb8b1d8152eb9461de93f599598dc8a16b417f21e423c238fc078d432ff906101200160405180910390a25050565b60405183151560248201528215156044820152811515606482015261068f9060840160408051601f198184030181529190526020810180516001600160e01b0316630a0e12d360e31b1790526120e2565b60405160248101839052604481018290526112b79060640160408051601f198184030181529190526020810180516001600160e01b031662d81ed360e71b1790526120e2565b816001600160a01b0316836001600160a01b03161415611fcf5760405162461bcd60e51b815260206004820152601960248201527f4552433732313a20617070726f766520746f2063616c6c65720000000000000060448201526064016105ee565b6001600160a01b03838116600081815260056020908152604080832094871680845294825291829020805460ff191686151590811790915591519182527f17307eab39ab6107e8899845ad3d59bd9653f200f220920489ca2b5937696c31910160405180910390a3505050565b612047848484611971565b6120538484848461219e565b6113655760405162461bcd60e51b81526004016105ee9061292b565b606061207a82611708565b600061209160408051602081019091526000815290565b905060008151116120b15760405180602001604052806000815250611109565b806120bb846122ab565b6040516020016120cc9291906127db565b6040516020818303038152906040529392505050565b80516a636f6e736f6c652e6c6f67602083016000808483855afa5050505050565b600061210e82610fe8565b905061211b60008361176a565b6001600160a01b0381166000908152600360205260408120805460019290612144908490612a3b565b909155505060008281526002602052604080822080546001600160a01b0319169055518391906001600160a01b038416907fddf252ad1be2c89b69c2b068fc378daa952ba7f163c4a11628f55a4df523b3ef908390a45050565b60006001600160a01b0384163b156122a057604051630a85bd0160e11b81526001600160a01b0385169063150b7a02906121e290339089908890889060040161280a565b602060405180830381600087803b1580156121fc57600080fd5b505af192505050801561222c575060408051601f3d908101601f1916820190925261222991810190612704565b60015b612286573d80801561225a576040519150601f19603f3d011682016040523d82523d6000602084013e61225f565b606091505b50805161227e5760405162461bcd60e51b81526004016105ee9061292b565b805181602001fd5b6001600160e01b031916630a85bd0160e11b1490506115d9565b506001949350505050565b6060816122cf5750506040805180820190915260018152600360fc1b602082015290565b8160005b81156122f957806122e381612ab9565b91506122f29050600a83612a27565b91506122d3565b60008167ffffffffffffffff81111561232257634e487b7160e01b600052604160045260246000fd5b6040519080825280601f01601f19166020018201604052801561234c576020820181803683370190505b5090505b84156115d957612361600183612a3b565b915061236e600a86612ad4565b612379906030612a0f565b60f81b81838151811061239c57634e487b7160e01b600052603260045260246000fd5b60200101906001600160f81b031916908160001a9053506123be600a86612a27565b9450612350565b6040518061010001604052806000815260200160006001600160a01b0316815260200160006001600160a01b031681526020016000815260200160001515815260200160001515815260200160008152602001606081525090565b50805461242c90612a7e565b6000825580601f1061243c575050565b601f01602090049060005260206000209081019061176791906124de565b82805461246690612a7e565b90600052602060002090601f01602090048101928261248857600085556124ce565b82601f106124a157805160ff19168380011785556124ce565b828001600101855582156124ce579182015b828111156124ce5782518255916020019190600101906124b3565b506124da9291506124de565b5090565b5b808211156124da57600081556001016124df565b600067ffffffffffffffff8084111561250e5761250e612b14565b604051601f8501601f19908116603f0116810190828211818310171561253657612536612b14565b8160405280935085815286868601111561254f57600080fd5b858560208301376000602087830101525050509392505050565b80356001600160a01b038116811461258057600080fd5b919050565b600060208284031215612596578081fd5b61110982612569565b600080604083850312156125b1578081fd5b6125ba83612569565b91506125c860208401612569565b90509250929050565b6000806000606084860312156125e5578081fd5b6125ee84612569565b92506125fc60208501612569565b9150604084013590509250925092565b60008060008060808587031215612621578081fd5b61262a85612569565b935061263860208601612569565b925060408501359150606085013567ffffffffffffffff81111561265a578182fd5b8501601f8101871361266a578182fd5b612679878235602084016124f3565b91505092959194509250565b60008060408385031215612697578182fd5b6126a083612569565b9150602083013580151581146126b4578182fd5b809150509250929050565b600080604083850312156126d1578182fd5b6126da83612569565b946020939093013593505050565b6000602082840312156126f9578081fd5b813561110981612b2a565b600060208284031215612715578081fd5b815161110981612b2a565b60008060408385031215612732578182fd5b823567ffffffffffffffff811115612748578283fd5b8301601f81018513612758578283fd5b612767858235602084016124f3565b95602094909401359450505050565b600060208284031215612787578081fd5b5035919050565b600080604083850312156127a0578182fd5b50508035926020909101359150565b600081518084526127c7816020860160208601612a52565b601f01601f19169290920160200192915050565b600083516127ed818460208801612a52565b835190830190612801818360208801612a52565b01949350505050565b6001600160a01b038581168252841660208201526040810183905260806060820181905260009061283d908301846127af565b9695505050505050565b60006020808301818452808551808352604092508286019150828160051b870101848801865b8381101561290a57888303603f19018552815180518452878101516001600160a01b03168885015286810151610100906128b1898701826001600160a01b03169052565b506060828101519086015260808083015115159086015260a08083015115159086015260c0808301519086015260e0918201519185018190526128f6818601836127af565b96890196945050509086019060010161286d565b509098975050505050505050565b60208152600061110960208301846127af565b60208082526032908201527f4552433732313a207472616e7366657220746f206e6f6e20455243373231526560408201527131b2b4bb32b91034b6b83632b6b2b73a32b960711b606082015260800190565b60208082526024908201527f5072696365206d75737420626520657175616c20746f206c697374696e6720706040820152637269636560e01b606082015260800190565b6020808252602e908201527f4552433732313a2063616c6c6572206973206e6f7420746f6b656e206f776e6560408201526d1c881b9bdc88185c1c1c9bdd995960921b606082015260800190565b60008219821115612a2257612a22612ae8565b500190565b600082612a3657612a36612afe565b500490565b600082821015612a4d57612a4d612ae8565b500390565b60005b83811015612a6d578181015183820152602001612a55565b838111156113655750506000910152565b600181811c90821680612a9257607f821691505b60208210811415612ab357634e487b7160e01b600052602260045260246000fd5b50919050565b6000600019821415612acd57612acd612ae8565b5060010190565b600082612ae357612ae3612afe565b500690565b634e487b7160e01b600052601160045260246000fd5b634e487b7160e01b600052601260045260246000fd5b634e487b7160e01b600052604160045260246000fd5b6001600160e01b03198116811461176757600080fdfe50617373206d65737361676520746861742057617272616e747920416c726561647920657870697265642068656e63652063616e6e6f74206265207472616e73666572656564a264697066735822122021b6d6b3b0b17e51b585a2904474ce3d32696849c5af27f892f2796d2423992a64736f6c63430008040033",
  "linkReferences": {},
  "deployedLinkReferences": {}
}