{
  "_format": "hh-sol-artifact-1",
  "contractName": "NFTMarketplace",
  "sourceName": "contracts/NFTMarketplace.sol",
  "abi": [
    {
      "inputs": [],
      "stateMutability": "nonpayable",
      "type": "constructor"
    },
    {
      "anonymous": false,
      "inputs": [
        {
          "indexed": true,
          "internalType": "address",
          "name": "owner",
          "type": "address"
        },
        {
          "indexed": true,
          "internalType": "address",
          "name": "approved",
          "type": "address"
        },
        {
          "indexed": true,
          "internalType": "uint256",
          "name": "tokenId",
          "type": "uint256"
        }
      ],
      "name": "Approval",
      "type": "event"
    },
    {
      "anonymous": false,
      "inputs": [
        {
          "indexed": true,
          "internalType": "address",
          "name": "owner",
          "type": "address"
        },
        {
          "indexed": true,
          "internalType": "address",
          "name": "operator",
          "type": "address"
        },
        {
          "indexed": false,
          "internalType": "bool",
          "name": "approved",
          "type": "bool"
        }
      ],
      "name": "ApprovalForAll",
      "type": "event"
    },
    {
      "anonymous": false,
      "inputs": [
        {
          "indexed": true,
          "internalType": "uint256",
          "name": "tokenId",
          "type": "uint256"
        },
        {
          "indexed": false,
          "internalType": "address",
          "name": "seller",
          "type": "address"
        },
        {
          "indexed": false,
          "internalType": "address",
          "name": "owner",
          "type": "address"
        },
        {
          "indexed": false,
          "internalType": "uint256",
          "name": "price",
          "type": "uint256"
        },
        {
          "indexed": false,
          "internalType": "bool",
          "name": "sold",
          "type": "bool"
        },
        {
          "indexed": false,
          "internalType": "bool",
          "name": "burn",
          "type": "bool"
        },
        {
          "indexed": false,
          "internalType": "uint256",
          "name": "date",
          "type": "uint256"
        },
        {
          "indexed": false,
          "internalType": "string",
          "name": "mongoId",
          "type": "string"
        }
      ],
      "name": "MarketItemCreated",
      "type": "event"
    },
    {
      "anonymous": false,
      "inputs": [
        {
          "indexed": true,
          "internalType": "address",
          "name": "from",
          "type": "address"
        },
        {
          "indexed": true,
          "internalType": "address",
          "name": "to",
          "type": "address"
        },
        {
          "indexed": true,
          "internalType": "uint256",
          "name": "tokenId",
          "type": "uint256"
        }
      ],
      "name": "Transfer",
      "type": "event"
    },
    {
      "inputs": [
        {
          "internalType": "address",
          "name": "to",
          "type": "address"
        },
        {
          "internalType": "uint256",
          "name": "tokenId",
          "type": "uint256"
        }
      ],
      "name": "approve",
      "outputs": [],
      "stateMutability": "nonpayable",
      "type": "function"
    },
    {
      "inputs": [
        {
          "internalType": "address",
          "name": "owner",
          "type": "address"
        }
      ],
      "name": "balanceOf",
      "outputs": [
        {
          "internalType": "uint256",
          "name": "",
          "type": "uint256"
        }
      ],
      "stateMutability": "view",
      "type": "function"
    },
    {
      "inputs": [
        {
          "internalType": "uint256",
          "name": "currentDate",
          "type": "uint256"
        }
      ],
      "name": "burnNFT",
      "outputs": [],
      "stateMutability": "nonpayable",
      "type": "function"
    },
    {
      "inputs": [
        {
          "internalType": "uint256",
          "name": "tokenId",
          "type": "uint256"
        },
        {
          "internalType": "uint256",
          "name": "currentDate",
          "type": "uint256"
        }
      ],
      "name": "createMarketSale",
      "outputs": [],
      "stateMutability": "payable",
      "type": "function"
    },
    {
      "inputs": [
        {
          "internalType": "string",
          "name": "tokenURI",
          "type": "string"
        },
        {
          "internalType": "uint256",
          "name": "price",
          "type": "uint256"
        }
      ],
      "name": "createToken",
      "outputs": [
        {
          "internalType": "uint256",
          "name": "",
          "type": "uint256"
        }
      ],
      "stateMutability": "payable",
      "type": "function"
    },
    {
      "inputs": [],
      "name": "fetchItemsListed",
      "outputs": [
        {
          "components": [
            {
              "internalType": "uint256",
              "name": "tokenId",
              "type": "uint256"
            },
            {
              "internalType": "address payable",
              "name": "seller",
              "type": "address"
            },
            {
              "internalType": "address payable",
              "name": "owner",
              "type": "address"
            },
            {
              "internalType": "uint256",
              "name": "price",
              "type": "uint256"
            },
            {
              "internalType": "bool",
              "name": "sold",
              "type": "bool"
            },
            {
              "internalType": "bool",
              "name": "burn",
              "type": "bool"
            },
            {
              "internalType": "uint256",
              "name": "date",
              "type": "uint256"
            },
            {
              "internalType": "string",
              "name": "mongoId",
              "type": "string"
            }
          ],
          "internalType": "struct NFTMarketplace.MarketItem[]",
          "name": "",
          "type": "tuple[]"
        }
      ],
      "stateMutability": "view",
      "type": "function"
    },
    {
      "inputs": [],
      "name": "fetchMarketItems",
      "outputs": [
        {
          "components": [
            {
              "internalType": "uint256",
              "name": "tokenId",
              "type": "uint256"
            },
            {
              "internalType": "address payable",
              "name": "seller",
              "type": "address"
            },
            {
              "internalType": "address payable",
              "name": "owner",
              "type": "address"
            },
            {
              "internalType": "uint256",
              "name": "price",
              "type": "uint256"
            },
            {
              "internalType": "bool",
              "name": "sold",
              "type": "bool"
            },
            {
              "internalType": "bool",
              "name": "burn",
              "type": "bool"
            },
            {
              "internalType": "uint256",
              "name": "date",
              "type": "uint256"
            },
            {
              "internalType": "string",
              "name": "mongoId",
              "type": "string"
            }
          ],
          "internalType": "struct NFTMarketplace.MarketItem[]",
          "name": "",
          "type": "tuple[]"
        }
      ],
      "stateMutability": "view",
      "type": "function"
    },
    {
      "inputs": [],
      "name": "fetchMyNFTs",
      "outputs": [
        {
          "components": [
            {
              "internalType": "uint256",
              "name": "tokenId",
              "type": "uint256"
            },
            {
              "internalType": "address payable",
              "name": "seller",
              "type": "address"
            },
            {
              "internalType": "address payable",
              "name": "owner",
              "type": "address"
            },
            {
              "internalType": "uint256",
              "name": "price",
              "type": "uint256"
            },
            {
              "internalType": "bool",
              "name": "sold",
              "type": "bool"
            },
            {
              "internalType": "bool",
              "name": "burn",
              "type": "bool"
            },
            {
              "internalType": "uint256",
              "name": "date",
              "type": "uint256"
            },
            {
              "internalType": "string",
              "name": "mongoId",
              "type": "string"
            }
          ],
          "internalType": "struct NFTMarketplace.MarketItem[]",
          "name": "",
          "type": "tuple[]"
        }
      ],
      "stateMutability": "view",
      "type": "function"
    },
    {
      "inputs": [
        {
          "internalType": "uint256",
          "name": "tokenId",
          "type": "uint256"
        }
      ],
      "name": "getApproved",
      "outputs": [
        {
          "internalType": "address",
          "name": "",
          "type": "address"
        }
      ],
      "stateMutability": "view",
      "type": "function"
    },
    {
      "inputs": [],
      "name": "getListingPrice",
      "outputs": [
        {
          "internalType": "uint256",
          "name": "",
          "type": "uint256"
        }
      ],
      "stateMutability": "view",
      "type": "function"
    },
    {
      "inputs": [
        {
          "internalType": "address",
          "name": "owner",
          "type": "address"
        },
        {
          "internalType": "address",
          "name": "operator",
          "type": "address"
        }
      ],
      "name": "isApprovedForAll",
      "outputs": [
        {
          "internalType": "bool",
          "name": "",
          "type": "bool"
        }
      ],
      "stateMutability": "view",
      "type": "function"
    },
    {
      "inputs": [],
      "name": "name",
      "outputs": [
        {
          "internalType": "string",
          "name": "",
          "type": "string"
        }
      ],
      "stateMutability": "view",
      "type": "function"
    },
    {
      "inputs": [
        {
          "internalType": "uint256",
          "name": "tokenId",
          "type": "uint256"
        }
      ],
      "name": "ownerOf",
      "outputs": [
        {
          "internalType": "address",
          "name": "",
          "type": "address"
        }
      ],
      "stateMutability": "view",
      "type": "function"
    },
    {
      "inputs": [
        {
          "internalType": "uint256",
          "name": "tokenId",
          "type": "uint256"
        },
        {
          "internalType": "uint256",
          "name": "price",
          "type": "uint256"
        },
        {
          "internalType": "uint256",
          "name": "currentDate",
          "type": "uint256"
        }
      ],
      "name": "resellToken",
      "outputs": [],
      "stateMutability": "payable",
      "type": "function"
    },
    {
      "inputs": [
        {
          "internalType": "address",
          "name": "from",
          "type": "address"
        },
        {
          "internalType": "address",
          "name": "to",
          "type": "address"
        },
        {
          "internalType": "uint256",
          "name": "tokenId",
          "type": "uint256"
        }
      ],
      "name": "safeTransferFrom",
      "outputs": [],
      "stateMutability": "nonpayable",
      "type": "function"
    },
    {
      "inputs": [
        {
          "internalType": "address",
          "name": "from",
          "type": "address"
        },
        {
          "internalType": "address",
          "name": "to",
          "type": "address"
        },
        {
          "internalType": "uint256",
          "name": "tokenId",
          "type": "uint256"
        },
        {
          "internalType": "bytes",
          "name": "data",
          "type": "bytes"
        }
      ],
      "name": "safeTransferFrom",
      "outputs": [],
      "stateMutability": "nonpayable",
      "type": "function"
    },
    {
      "inputs": [
        {
          "internalType": "address",
          "name": "operator",
          "type": "address"
        },
        {
          "internalType": "bool",
          "name": "approved",
          "type": "bool"
        }
      ],
      "name": "setApprovalForAll",
      "outputs": [],
      "stateMutability": "nonpayable",
      "type": "function"
    },
    {
      "inputs": [
        {
          "internalType": "uint256",
          "name": "tokenId",
          "type": "uint256"
        },
        {
          "internalType": "uint256",
          "name": "currentDate",
          "type": "uint256"
        }
      ],
      "name": "specificBurn",
      "outputs": [
        {
          "internalType": "bool",
          "name": "",
          "type": "bool"
        }
      ],
      "stateMutability": "nonpayable",
      "type": "function"
    },
    {
      "inputs": [
        {
          "internalType": "bytes4",
          "name": "interfaceId",
          "type": "bytes4"
        }
      ],
      "name": "supportsInterface",
      "outputs": [
        {
          "internalType": "bool",
          "name": "",
          "type": "bool"
        }
      ],
      "stateMutability": "view",
      "type": "function"
    },
    {
      "inputs": [],
      "name": "symbol",
      "outputs": [
        {
          "internalType": "string",
          "name": "",
          "type": "string"
        }
      ],
      "stateMutability": "view",
      "type": "function"
    },
    {
      "inputs": [
        {
          "internalType": "uint256",
          "name": "tokenId",
          "type": "uint256"
        }
      ],
      "name": "tokenURI",
      "outputs": [
        {
          "internalType": "string",
          "name": "",
          "type": "string"
        }
      ],
      "stateMutability": "view",
      "type": "function"
    },
    {
      "inputs": [
        {
          "internalType": "address",
          "name": "from",
          "type": "address"
        },
        {
          "internalType": "address",
          "name": "to",
          "type": "address"
        },
        {
          "internalType": "uint256",
          "name": "tokenId",
          "type": "uint256"
        }
      ],
      "name": "transferFrom",
      "outputs": [],
      "stateMutability": "nonpayable",
      "type": "function"
    },
    {
      "inputs": [
        {
          "internalType": "uint256",
          "name": "_listingPrice",
          "type": "uint256"
        }
      ],
      "name": "updateListingPrice",
      "outputs": [],
      "stateMutability": "payable",
      "type": "function"
    }
  ],
  "bytecode": "0x60806040526658d15e176280006009553480156200001c57600080fd5b50604080518082018252601081526f4d657461766572736520546f6b656e7360801b6020808301918252835180850190945260048452631351551560e21b9084015281519192916200007191600091620000a2565b50805162000087906001906020840190620000a2565b5050600a80546001600160a01b031916331790555062000185565b828054620000b09062000148565b90600052602060002090601f016020900481019282620000d457600085556200011f565b82601f10620000ef57805160ff19168380011785556200011f565b828001600101855582156200011f579182015b828111156200011f57825182559160200191906001019062000102565b506200012d92915062000131565b5090565b5b808211156200012d576000815560010162000132565b600181811c908216806200015d57607f821691505b602082108114156200017f57634e487b7160e01b600052602260045260246000fd5b50919050565b612bad80620001956000396000f3fe6080604052600436106101405760003560e01c80636352211e116100b6578063ae677aa31161006f578063ae677aa31461035c578063b88d4fde1461036f578063c87b56dd1461038f578063db0d674d146103af578063e985e9c5146103cf578063ea31247a1461041857600080fd5b80636352211e146102c157806370a08231146102e157806372b3b6201461030157806395d89b4114610314578063a1c11ca814610329578063a22cb4651461033c57600080fd5b806312e855851161010857806312e8558514610218578063202e37401461023757806323b872dd1461024c5780632890e0d71461026c57806342842e0e1461028c57806345f8fa80146102ac57600080fd5b806301ffc9a71461014557806306fdde031461017a578063081812fc1461019c578063095ea7b3146101d45780630f08efe0146101f6575b600080fd5b34801561015157600080fd5b506101656101603660046126ae565b61042b565b60405190151581526020015b60405180910390f35b34801561018657600080fd5b5061018f61047d565b6040516101719190612909565b3480156101a857600080fd5b506101bc6101b736600461273c565b61050f565b6040516001600160a01b039091168152602001610171565b3480156101e057600080fd5b506101f46101ef366004612685565b610536565b005b34801561020257600080fd5b5061020b610651565b6040516101719190612838565b34801561022457600080fd5b506009545b604051908152602001610171565b34801561024357600080fd5b5061020b610896565b34801561025857600080fd5b506101f4610267366004612597565b610b19565b34801561027857600080fd5b506101f461028736600461273c565b610b4a565b34801561029857600080fd5b506101f46102a7366004612597565b610cd5565b3480156102b857600080fd5b5061020b610cf0565b3480156102cd57600080fd5b506101bc6102dc36600461273c565b610f73565b3480156102ed57600080fd5b506102296102fc36600461254b565b610fd3565b61022961030f3660046126e6565b611059565b34801561032057600080fd5b5061018f61109b565b6101f4610337366004612754565b6110aa565b34801561034857600080fd5b506101f461035736600461264b565b61121b565b6101f461036a36600461273c565b61122a565b34801561037b57600080fd5b506101f461038a3660046125d2565b6112a2565b34801561039b57600080fd5b5061018f6103aa36600461273c565b6112da565b3480156103bb57600080fd5b506101656103ca366004612754565b6113eb565b3480156103db57600080fd5b506101656103ea366004612565565b6001600160a01b03918216600090815260056020908152604080832093909416825291909152205460ff1690565b6101f4610426366004612775565b6115a8565b60006001600160e01b031982166380ac58cd60e01b148061045c57506001600160e01b03198216635b5e139f60e01b145b8061047757506301ffc9a760e01b6001600160e01b03198316145b92915050565b60606000805461048c90612a6f565b80601f01602080910402602001604051908101604052809291908181526020018280546104b890612a6f565b80156105055780601f106104da57610100808354040283529160200191610505565b820191906000526020600020905b8154815290600101906020018083116104e857829003601f168201915b5050505050905090565b600061051a826116d0565b506000908152600460205260409020546001600160a01b031690565b600061054182610f73565b9050806001600160a01b0316836001600160a01b031614156105b45760405162461bcd60e51b815260206004820152602160248201527f4552433732313a20617070726f76616c20746f2063757272656e74206f776e656044820152603960f91b60648201526084015b60405180910390fd5b336001600160a01b03821614806105d057506105d081336103ea565b6106425760405162461bcd60e51b815260206004820152603e60248201527f4552433732313a20617070726f76652063616c6c6572206973206e6f7420746f60448201527f6b656e206f776e6572206e6f7220617070726f76656420666f7220616c6c000060648201526084016105ab565b61064c8383611732565b505050565b6060600061065e60075490565b9050600061066b60085490565b6007546106789190612a2c565b90506000808267ffffffffffffffff8111156106a457634e487b7160e01b600052604160045260246000fd5b6040519080825280602002602001820160405280156106dd57816020015b6106ca61238b565b8152602001906001900390816106c25790505b50905060005b8481101561088d5730600b60006106fb846001612a00565b81526020810191909152604001600020600201546001600160a01b0316141561087b57600061072b826001612a00565b6000818152600b6020908152604091829020825161010080820185528254825260018301546001600160a01b039081169483019490945260028301549093169381019390935260038101546060840152600481015460ff80821615156080860152929004909116151560a0830152600581015460c08301526006810180549394509092839160e08401916107be90612a6f565b80601f01602080910402602001604051908101604052809291908181526020018280546107ea90612a6f565b80156108375780601f1061080c57610100808354040283529160200191610837565b820191906000526020600020905b81548152906001019060200180831161081a57829003601f168201915b50505050508152505084868151811061086057634e487b7160e01b600052603260045260246000fd5b6020908102919091010152610876600186612a00565b945050505b8061088581612aaa565b9150506106e3565b50949350505050565b606060006108a360075490565b905060008060005b838110156109065733600b60006108c3846001612a00565b81526020810191909152604001600020600201546001600160a01b031614156108f4576108f1600184612a00565b92505b806108fe81612aaa565b9150506108ab565b5060008267ffffffffffffffff81111561093057634e487b7160e01b600052604160045260246000fd5b60405190808252806020026020018201604052801561096957816020015b61095661238b565b81526020019060019003908161094e5790505b50905060005b8481101561088d5733600b6000610987846001612a00565b81526020810191909152604001600020600201546001600160a01b03161415610b075760006109b7826001612a00565b6000818152600b6020908152604091829020825161010080820185528254825260018301546001600160a01b039081169483019490945260028301549093169381019390935260038101546060840152600481015460ff80821615156080860152929004909116151560a0830152600581015460c08301526006810180549394509092839160e0840191610a4a90612a6f565b80601f0160208091040260200160405190810160405280929190818152602001828054610a7690612a6f565b8015610ac35780601f10610a9857610100808354040283529160200191610ac3565b820191906000526020600020905b815481529060010190602001808311610aa657829003601f168201915b505050505081525050848681518110610aec57634e487b7160e01b600052603260045260246000fd5b6020908102919091010152610b02600186612a00565b945050505b80610b1181612aaa565b91505061096f565b610b2333826117a0565b610b3f5760405162461bcd60e51b81526004016105ab906129b2565b61064c83838361181e565b6000610b5560075490565b905060015b81811161064c576000818152600b6020526040902060028101546005820154600490920154610ba4926001600160a01b039290921633149186119060ff61010090910416156119ba565b6000818152600b6020526040902060050154610bc1908490611a0b565b6000818152600b6020526040902060050154610bdc57610cc3565b6000818152600b60205260409020600201546001600160a01b031633148015610c1557506000818152600b602052604090206005015483115b8015610c3857506000818152600b6020526040902060040154610100900460ff16155b15610cc357610c61604051806040016040528060038152602001624f6e6560e81b815250611a51565b610c6a81611a94565b6000818152600b602052604081206002810180546001600160a01b031990811690915560018201805490911690556003810182905560048101805460059092019290925561ffff1916610100179055610cc36008611ad4565b80610ccd81612aaa565b915050610b5a565b61064c838383604051806020016040528060008152506112a2565b60606000610cfd60075490565b905060008060005b83811015610d605733600b6000610d1d846001612a00565b81526020810191909152604001600020600101546001600160a01b03161415610d4e57610d4b600184612a00565b92505b80610d5881612aaa565b915050610d05565b5060008267ffffffffffffffff811115610d8a57634e487b7160e01b600052604160045260246000fd5b604051908082528060200260200182016040528015610dc357816020015b610db061238b565b815260200190600190039081610da85790505b50905060005b8481101561088d5733600b6000610de1846001612a00565b81526020810191909152604001600020600101546001600160a01b03161415610f61576000610e11826001612a00565b6000818152600b6020908152604091829020825161010080820185528254825260018301546001600160a01b039081169483019490945260028301549093169381019390935260038101546060840152600481015460ff80821615156080860152929004909116151560a0830152600581015460c08301526006810180549394509092839160e0840191610ea490612a6f565b80601f0160208091040260200160405190810160405280929190818152602001828054610ed090612a6f565b8015610f1d5780601f10610ef257610100808354040283529160200191610f1d565b820191906000526020600020905b815481529060010190602001808311610f0057829003601f168201915b505050505081525050848681518110610f4657634e487b7160e01b600052603260045260246000fd5b6020908102919091010152610f5c600186612a00565b945050505b80610f6b81612aaa565b915050610dc9565b6000818152600260205260408120546001600160a01b0316806104775760405162461bcd60e51b8152602060048201526018602482015277115490cdcc8c4e881a5b9d985b1a59081d1bdad95b88125160421b60448201526064016105ab565b60006001600160a01b03821661103d5760405162461bcd60e51b815260206004820152602960248201527f4552433732313a2061646472657373207a65726f206973206e6f7420612076616044820152683634b21037bbb732b960b91b60648201526084016105ab565b506001600160a01b031660009081526003602052604090205490565b6000611069600780546001019055565b600061107460075490565b90506110803382611b2b565b61108a8185611c6d565b6110948184611d07565b9392505050565b60606001805461048c90612a6f565b6000828152600b6020526040902060038101546001909101546001600160a01b0316348214611143576040805162461bcd60e51b81526020600482015260248101919091527f506c65617365207375626d6974207468652061736b696e67207072696365206960448201527f6e206f7264657220746f20636f6d706c6574652074686520707572636861736560648201526084016105ab565b6000848152600b602052604090206002810180546001600160a01b0319908116331790915560048201805460ff19166001908117909155820180549091169055600501839055611197600880546001019055565b6111a230338661181e565b600a546009546040516001600160a01b039092169181156108fc0291906000818181858888f193505050501580156111de573d6000803e3d6000fd5b506040516001600160a01b038216903480156108fc02916000818181858888f19350505050158015611214573d6000803e3d6000fd5b5050505050565b611226338383611ef6565b5050565b600a546001600160a01b0316331461129d5760405162461bcd60e51b815260206004820152603060248201527f4f6e6c79206d61726b6574706c616365206f776e65722063616e20757064617460448201526f32903634b9ba34b73390383934b1b29760811b60648201526084016105ab565b600955565b6112ac33836117a0565b6112c85760405162461bcd60e51b81526004016105ab906129b2565b6112d484848484611fc5565b50505050565b60606112e5826116d0565b600082815260066020526040812080546112fe90612a6f565b80601f016020809104026020016040519081016040528092919081815260200182805461132a90612a6f565b80156113775780601f1061134c57610100808354040283529160200191611377565b820191906000526020600020905b81548152906001019060200180831161135a57829003601f168201915b50505050509050600061139560408051602081019091526000815290565b90508051600014156113a8575092915050565b8151156113da5780826040516020016113c29291906127cc565b60405160208183030381529060405292505050919050565b6113e384611ff8565b949350505050565b6000828152600b60205260408120600201546001600160a01b031633146114545760405162461bcd60e51b815260206004820152601960248201527f4f6e6c79206f776e65722063616e206275726e20746f6b656e0000000000000060448201526064016105ab565b6114886040518060400160405280601381526020017224b710313ab93734b73390333ab731ba34b7b760691b815250611a51565b6000838152600b60205260409020600501546114a657506000610477565b6000838152600b6020526040902060050154821180156114dd57506000838152600b6020526040902060040154610100900460ff16155b1561159f576115106040518060400160405280600d81526020016c213ab93734b733903a37b5b2b760991b815250611a51565b61151983611a94565b6000838152600b602052604081206002810180546001600160a01b0319908116909155600182018054909116301790556003810182905560048101805460059092019290925561ffff19166101001790556115746008611ad4565b6000838152600b602052604090206004015461159790610100900460ff1661206b565b506001610477565b50600092915050565b6000838152600b60205260409020600201546001600160a01b031633146116245760405162461bcd60e51b815260206004820152602a60248201527f4f6e6c79206974656d206f776e65722063616e20706572666f726d20746869736044820152691037b832b930ba34b7b760b11b60648201526084016105ab565b60095434146116455760405162461bcd60e51b81526004016105ab9061296e565b61164f83826113eb565b156116755761064c604051806080016040528060468152602001612b3260469139611a51565b6000838152600b6020526040902060048101805460ff19169055600381018390556001810180546001600160a01b0319908116331790915560029091018054909116301790556116c56008611ad4565b61064c33308561181e565b6000818152600260205260409020546001600160a01b031661172f5760405162461bcd60e51b8152602060048201526018602482015277115490cdcc8c4e881a5b9d985b1a59081d1bdad95b88125160421b60448201526064016105ab565b50565b600081815260046020526040902080546001600160a01b0319166001600160a01b038416908117909155819061176782610f73565b6001600160a01b03167f8c5be1e5ebec7d5bd14f71427d1e84f3dd0314c0f7b2291e5b200ac8c7c3b92560405160405180910390a45050565b6000806117ac83610f73565b9050806001600160a01b0316846001600160a01b031614806117f357506001600160a01b0380821660009081526005602090815260408083209388168352929052205460ff165b806113e35750836001600160a01b031661180c8461050f565b6001600160a01b031614949350505050565b826001600160a01b031661183182610f73565b6001600160a01b0316146118955760405162461bcd60e51b815260206004820152602560248201527f4552433732313a207472616e736665722066726f6d20696e636f72726563742060448201526437bbb732b960d91b60648201526084016105ab565b6001600160a01b0382166118f75760405162461bcd60e51b8152602060048201526024808201527f4552433732313a207472616e7366657220746f20746865207a65726f206164646044820152637265737360e01b60648201526084016105ab565b611902600082611732565b6001600160a01b038316600090815260036020526040812080546001929061192b908490612a2c565b90915550506001600160a01b0382166000908152600360205260408120805460019290611959908490612a00565b909155505060008181526002602052604080822080546001600160a01b0319166001600160a01b0386811691821790925591518493918716917fddf252ad1be2c89b69c2b068fc378daa952ba7f163c4a11628f55a4df523b3ef91a4505050565b60405183151560248201528215156044820152811515606482015261064c9060840160408051601f198184030181529190526020810180516001600160e01b0316630a0e12d360e31b1790526120a8565b60405160248101839052604481018290526112269060640160408051601f198184030181529190526020810180516001600160e01b031662d81ed360e71b1790526120a8565b61172f81604051602401611a659190612909565b60408051601f198184030181529190526020810180516001600160e01b031663104c13eb60e21b1790526120a8565b611a9d816120c9565b60008181526006602052604090208054611ab690612a6f565b15905061172f57600081815260066020526040812061172f916123e6565b805480611b235760405162461bcd60e51b815260206004820152601b60248201527f436f756e7465723a2064656372656d656e74206f766572666c6f77000000000060448201526064016105ab565b600019019055565b6001600160a01b038216611b815760405162461bcd60e51b815260206004820181905260248201527f4552433732313a206d696e7420746f20746865207a65726f206164647265737360448201526064016105ab565b6000818152600260205260409020546001600160a01b031615611be65760405162461bcd60e51b815260206004820152601c60248201527f4552433732313a20746f6b656e20616c7265616479206d696e7465640000000060448201526064016105ab565b6001600160a01b0382166000908152600360205260408120805460019290611c0f908490612a00565b909155505060008181526002602052604080822080546001600160a01b0319166001600160a01b03861690811790915590518392907fddf252ad1be2c89b69c2b068fc378daa952ba7f163c4a11628f55a4df523b3ef908290a45050565b6000828152600260205260409020546001600160a01b0316611ce85760405162461bcd60e51b815260206004820152602e60248201527f45524337323155524953746f726167653a2055524920736574206f66206e6f6e60448201526d32bc34b9ba32b73a103a37b5b2b760911b60648201526084016105ab565b6000828152600660209081526040909120825161064c92840190612420565b60008111611d575760405162461bcd60e51b815260206004820152601c60248201527f5072696365206d757374206265206174206c656173742031207765690000000060448201526064016105ab565b6009543414611d785760405162461bcd60e51b81526004016105ab9061296e565b604080516101008082018352848252336020808401918252308486019081526060850187815260006080870181815260a08801828152600660c08a018181528b51808d018d5260078152661b5bdb99dbd25960ca1b818a015260e08c019081528e8652600b89529b9094208a51815597516001890180546001600160a01b03199081166001600160a01b0393841617909155965160028a0180549098169116179095559251600387015551600486018054935161ffff1990941691151561ff0019169190911792151590960291909117909455925160058301559351805193949193611e6b938501929190910190612420565b50905050611e7a33308461181e565b604080513381523060208201529081018290526000606082018190526080820152600660a082015260e060c08201819052600790820152661b5bdb99dbd25960ca1b61010082015282907fa4f6bdb8b1d8152eb9461de93f599598dc8a16b417f21e423c238fc078d432ff906101200160405180910390a25050565b816001600160a01b0316836001600160a01b03161415611f585760405162461bcd60e51b815260206004820152601960248201527f4552433732313a20617070726f766520746f2063616c6c65720000000000000060448201526064016105ab565b6001600160a01b03838116600081815260056020908152604080832094871680845294825291829020805460ff191686151590811790915591519182527f17307eab39ab6107e8899845ad3d59bd9653f200f220920489ca2b5937696c31910160405180910390a3505050565b611fd084848461181e565b611fdc84848484612164565b6112d45760405162461bcd60e51b81526004016105ab9061291c565b6060612003826116d0565b600061201a60408051602081019091526000815290565b9050600081511161203a5760405180602001604052806000815250611094565b8061204484612271565b6040516020016120559291906127cc565b6040516020818303038152906040529392505050565b604051811515602482015261172f9060440160408051601f198184030181529190526020810180516001600160e01b03166332458eed60e01b1790525b80516a636f6e736f6c652e6c6f67602083016000808483855afa5050505050565b60006120d482610f73565b90506120e1600083611732565b6001600160a01b038116600090815260036020526040812080546001929061210a908490612a2c565b909155505060008281526002602052604080822080546001600160a01b0319169055518391906001600160a01b038416907fddf252ad1be2c89b69c2b068fc378daa952ba7f163c4a11628f55a4df523b3ef908390a45050565b60006001600160a01b0384163b1561226657604051630a85bd0160e11b81526001600160a01b0385169063150b7a02906121a89033908990889088906004016127fb565b602060405180830381600087803b1580156121c257600080fd5b505af19250505080156121f2575060408051601f3d908101601f191682019092526121ef918101906126ca565b60015b61224c573d808015612220576040519150601f19603f3d011682016040523d82523d6000602084013e612225565b606091505b5080516122445760405162461bcd60e51b81526004016105ab9061291c565b805181602001fd5b6001600160e01b031916630a85bd0160e11b1490506113e3565b506001949350505050565b6060816122955750506040805180820190915260018152600360fc1b602082015290565b8160005b81156122bf57806122a981612aaa565b91506122b89050600a83612a18565b9150612299565b60008167ffffffffffffffff8111156122e857634e487b7160e01b600052604160045260246000fd5b6040519080825280601f01601f191660200182016040528015612312576020820181803683370190505b5090505b84156113e357612327600183612a2c565b9150612334600a86612ac5565b61233f906030612a00565b60f81b81838151811061236257634e487b7160e01b600052603260045260246000fd5b60200101906001600160f81b031916908160001a905350612384600a86612a18565b9450612316565b6040518061010001604052806000815260200160006001600160a01b0316815260200160006001600160a01b031681526020016000815260200160001515815260200160001515815260200160008152602001606081525090565b5080546123f290612a6f565b6000825580601f10612402575050565b601f01602090049060005260206000209081019061172f91906124a4565b82805461242c90612a6f565b90600052602060002090601f01602090048101928261244e5760008555612494565b82601f1061246757805160ff1916838001178555612494565b82800160010185558215612494579182015b82811115612494578251825591602001919060010190612479565b506124a09291506124a4565b5090565b5b808211156124a057600081556001016124a5565b600067ffffffffffffffff808411156124d4576124d4612b05565b604051601f8501601f19908116603f011681019082821181831017156124fc576124fc612b05565b8160405280935085815286868601111561251557600080fd5b858560208301376000602087830101525050509392505050565b80356001600160a01b038116811461254657600080fd5b919050565b60006020828403121561255c578081fd5b6110948261252f565b60008060408385031215612577578081fd5b6125808361252f565b915061258e6020840161252f565b90509250929050565b6000806000606084860312156125ab578081fd5b6125b48461252f565b92506125c26020850161252f565b9150604084013590509250925092565b600080600080608085870312156125e7578081fd5b6125f08561252f565b93506125fe6020860161252f565b925060408501359150606085013567ffffffffffffffff811115612620578182fd5b8501601f81018713612630578182fd5b61263f878235602084016124b9565b91505092959194509250565b6000806040838503121561265d578182fd5b6126668361252f565b91506020830135801515811461267a578182fd5b809150509250929050565b60008060408385031215612697578182fd5b6126a08361252f565b946020939093013593505050565b6000602082840312156126bf578081fd5b813561109481612b1b565b6000602082840312156126db578081fd5b815161109481612b1b565b600080604083850312156126f8578182fd5b823567ffffffffffffffff81111561270e578283fd5b8301601f8101851361271e578283fd5b61272d858235602084016124b9565b95602094909401359450505050565b60006020828403121561274d578081fd5b5035919050565b60008060408385031215612766578182fd5b50508035926020909101359150565b600080600060608486031215612789578283fd5b505081359360208301359350604090920135919050565b600081518084526127b8816020860160208601612a43565b601f01601f19169290920160200192915050565b600083516127de818460208801612a43565b8351908301906127f2818360208801612a43565b01949350505050565b6001600160a01b038581168252841660208201526040810183905260806060820181905260009061282e908301846127a0565b9695505050505050565b60006020808301818452808551808352604092508286019150828160051b870101848801865b838110156128fb57888303603f19018552815180518452878101516001600160a01b03168885015286810151610100906128a2898701826001600160a01b03169052565b506060828101519086015260808083015115159086015260a08083015115159086015260c0808301519086015260e0918201519185018190526128e7818601836127a0565b96890196945050509086019060010161285e565b509098975050505050505050565b60208152600061109460208301846127a0565b60208082526032908201527f4552433732313a207472616e7366657220746f206e6f6e20455243373231526560408201527131b2b4bb32b91034b6b83632b6b2b73a32b960711b606082015260800190565b60208082526024908201527f5072696365206d75737420626520657175616c20746f206c697374696e6720706040820152637269636560e01b606082015260800190565b6020808252602e908201527f4552433732313a2063616c6c6572206973206e6f7420746f6b656e206f776e6560408201526d1c881b9bdc88185c1c1c9bdd995960921b606082015260800190565b60008219821115612a1357612a13612ad9565b500190565b600082612a2757612a27612aef565b500490565b600082821015612a3e57612a3e612ad9565b500390565b60005b83811015612a5e578181015183820152602001612a46565b838111156112d45750506000910152565b600181811c90821680612a8357607f821691505b60208210811415612aa457634e487b7160e01b600052602260045260246000fd5b50919050565b6000600019821415612abe57612abe612ad9565b5060010190565b600082612ad457612ad4612aef565b500690565b634e487b7160e01b600052601160045260246000fd5b634e487b7160e01b600052601260045260246000fd5b634e487b7160e01b600052604160045260246000fd5b6001600160e01b03198116811461172f57600080fdfe50617373206d65737361676520746861742057617272616e747920416c726561647920657870697265642068656e63652063616e6e6f74206265207472616e73666572656564a2646970667358221220bf553b41c3af2b6c8ff77229f885c82466317a44423db400facdfd411e35a8c464736f6c63430008040033",
  "linkReferences": {},
  "deployedLinkReferences": {}
}