{
  "_format": "hh-sol-artifact-1",
  "contractName": "NFTMarketplace",
  "sourceName": "contracts/NFTMarketplace.sol",
  "abi": [
    {
      "inputs": [],
      "stateMutability": "nonpayable",
      "type": "constructor"
    },
    {
      "anonymous": false,
      "inputs": [
        {
          "indexed": true,
          "internalType": "address",
          "name": "owner",
          "type": "address"
        },
        {
          "indexed": true,
          "internalType": "address",
          "name": "approved",
          "type": "address"
        },
        {
          "indexed": true,
          "internalType": "uint256",
          "name": "tokenId",
          "type": "uint256"
        }
      ],
      "name": "Approval",
      "type": "event"
    },
    {
      "anonymous": false,
      "inputs": [
        {
          "indexed": true,
          "internalType": "address",
          "name": "owner",
          "type": "address"
        },
        {
          "indexed": true,
          "internalType": "address",
          "name": "operator",
          "type": "address"
        },
        {
          "indexed": false,
          "internalType": "bool",
          "name": "approved",
          "type": "bool"
        }
      ],
      "name": "ApprovalForAll",
      "type": "event"
    },
    {
      "anonymous": false,
      "inputs": [
        {
          "indexed": true,
          "internalType": "uint256",
          "name": "tokenId",
          "type": "uint256"
        },
        {
          "indexed": false,
          "internalType": "address",
          "name": "seller",
          "type": "address"
        },
        {
          "indexed": false,
          "internalType": "address",
          "name": "owner",
          "type": "address"
        },
        {
          "indexed": false,
          "internalType": "uint256",
          "name": "price",
          "type": "uint256"
        },
        {
          "indexed": false,
          "internalType": "bool",
          "name": "sold",
          "type": "bool"
        },
        {
          "indexed": false,
          "internalType": "string",
          "name": "mongoid",
          "type": "string"
        }
      ],
      "name": "MarketItemCreated",
      "type": "event"
    },
    {
      "anonymous": false,
      "inputs": [
        {
          "indexed": true,
          "internalType": "address",
          "name": "from",
          "type": "address"
        },
        {
          "indexed": true,
          "internalType": "address",
          "name": "to",
          "type": "address"
        },
        {
          "indexed": true,
          "internalType": "uint256",
          "name": "tokenId",
          "type": "uint256"
        }
      ],
      "name": "Transfer",
      "type": "event"
    },
    {
      "inputs": [
        {
          "internalType": "address",
          "name": "to",
          "type": "address"
        },
        {
          "internalType": "uint256",
          "name": "tokenId",
          "type": "uint256"
        }
      ],
      "name": "approve",
      "outputs": [],
      "stateMutability": "nonpayable",
      "type": "function"
    },
    {
      "inputs": [
        {
          "internalType": "address",
          "name": "owner",
          "type": "address"
        }
      ],
      "name": "balanceOf",
      "outputs": [
        {
          "internalType": "uint256",
          "name": "",
          "type": "uint256"
        }
      ],
      "stateMutability": "view",
      "type": "function"
    },
    {
      "inputs": [
        {
          "internalType": "uint256",
          "name": "tokenId",
          "type": "uint256"
        }
      ],
      "name": "createMarketSale",
      "outputs": [],
      "stateMutability": "payable",
      "type": "function"
    },
    {
      "inputs": [
        {
          "internalType": "string",
          "name": "tokenURI",
          "type": "string"
        },
        {
          "internalType": "uint256",
          "name": "price",
          "type": "uint256"
        },
        {
          "internalType": "string",
          "name": "mongoid",
          "type": "string"
        }
      ],
      "name": "createToken",
      "outputs": [
        {
          "internalType": "uint256",
          "name": "",
          "type": "uint256"
        }
      ],
      "stateMutability": "payable",
      "type": "function"
    },
    {
      "inputs": [],
      "name": "fetchItemsListed",
      "outputs": [
        {
          "components": [
            {
              "internalType": "uint256",
              "name": "tokenId",
              "type": "uint256"
            },
            {
              "internalType": "address payable",
              "name": "seller",
              "type": "address"
            },
            {
              "internalType": "address payable",
              "name": "owner",
              "type": "address"
            },
            {
              "internalType": "uint256",
              "name": "price",
              "type": "uint256"
            },
            {
              "internalType": "bool",
              "name": "sold",
              "type": "bool"
            },
            {
              "internalType": "string",
              "name": "mongoid",
              "type": "string"
            }
          ],
          "internalType": "struct NFTMarketplace.MarketItem[]",
          "name": "",
          "type": "tuple[]"
        }
      ],
      "stateMutability": "view",
      "type": "function"
    },
    {
      "inputs": [],
      "name": "fetchMarketItems",
      "outputs": [
        {
          "components": [
            {
              "internalType": "uint256",
              "name": "tokenId",
              "type": "uint256"
            },
            {
              "internalType": "address payable",
              "name": "seller",
              "type": "address"
            },
            {
              "internalType": "address payable",
              "name": "owner",
              "type": "address"
            },
            {
              "internalType": "uint256",
              "name": "price",
              "type": "uint256"
            },
            {
              "internalType": "bool",
              "name": "sold",
              "type": "bool"
            },
            {
              "internalType": "string",
              "name": "mongoid",
              "type": "string"
            }
          ],
          "internalType": "struct NFTMarketplace.MarketItem[]",
          "name": "",
          "type": "tuple[]"
        }
      ],
      "stateMutability": "view",
      "type": "function"
    },
    {
      "inputs": [],
      "name": "fetchMyNFTs",
      "outputs": [
        {
          "components": [
            {
              "internalType": "uint256",
              "name": "tokenId",
              "type": "uint256"
            },
            {
              "internalType": "address payable",
              "name": "seller",
              "type": "address"
            },
            {
              "internalType": "address payable",
              "name": "owner",
              "type": "address"
            },
            {
              "internalType": "uint256",
              "name": "price",
              "type": "uint256"
            },
            {
              "internalType": "bool",
              "name": "sold",
              "type": "bool"
            },
            {
              "internalType": "string",
              "name": "mongoid",
              "type": "string"
            }
          ],
          "internalType": "struct NFTMarketplace.MarketItem[]",
          "name": "",
          "type": "tuple[]"
        }
      ],
      "stateMutability": "view",
      "type": "function"
    },
    {
      "inputs": [
        {
          "internalType": "uint256",
          "name": "tokenId",
          "type": "uint256"
        }
      ],
      "name": "getApproved",
      "outputs": [
        {
          "internalType": "address",
          "name": "",
          "type": "address"
        }
      ],
      "stateMutability": "view",
      "type": "function"
    },
    {
      "inputs": [],
      "name": "getListingPrice",
      "outputs": [
        {
          "internalType": "uint256",
          "name": "",
          "type": "uint256"
        }
      ],
      "stateMutability": "view",
      "type": "function"
    },
    {
      "inputs": [
        {
          "internalType": "address",
          "name": "owner",
          "type": "address"
        },
        {
          "internalType": "address",
          "name": "operator",
          "type": "address"
        }
      ],
      "name": "isApprovedForAll",
      "outputs": [
        {
          "internalType": "bool",
          "name": "",
          "type": "bool"
        }
      ],
      "stateMutability": "view",
      "type": "function"
    },
    {
      "inputs": [],
      "name": "name",
      "outputs": [
        {
          "internalType": "string",
          "name": "",
          "type": "string"
        }
      ],
      "stateMutability": "view",
      "type": "function"
    },
    {
      "inputs": [
        {
          "internalType": "uint256",
          "name": "tokenId",
          "type": "uint256"
        }
      ],
      "name": "ownerOf",
      "outputs": [
        {
          "internalType": "address",
          "name": "",
          "type": "address"
        }
      ],
      "stateMutability": "view",
      "type": "function"
    },
    {
      "inputs": [
        {
          "internalType": "uint256",
          "name": "tokenId",
          "type": "uint256"
        },
        {
          "internalType": "uint256",
          "name": "price",
          "type": "uint256"
        }
      ],
      "name": "resellToken",
      "outputs": [],
      "stateMutability": "payable",
      "type": "function"
    },
    {
      "inputs": [
        {
          "internalType": "address",
          "name": "from",
          "type": "address"
        },
        {
          "internalType": "address",
          "name": "to",
          "type": "address"
        },
        {
          "internalType": "uint256",
          "name": "tokenId",
          "type": "uint256"
        }
      ],
      "name": "safeTransferFrom",
      "outputs": [],
      "stateMutability": "nonpayable",
      "type": "function"
    },
    {
      "inputs": [
        {
          "internalType": "address",
          "name": "from",
          "type": "address"
        },
        {
          "internalType": "address",
          "name": "to",
          "type": "address"
        },
        {
          "internalType": "uint256",
          "name": "tokenId",
          "type": "uint256"
        },
        {
          "internalType": "bytes",
          "name": "data",
          "type": "bytes"
        }
      ],
      "name": "safeTransferFrom",
      "outputs": [],
      "stateMutability": "nonpayable",
      "type": "function"
    },
    {
      "inputs": [
        {
          "internalType": "address",
          "name": "operator",
          "type": "address"
        },
        {
          "internalType": "bool",
          "name": "approved",
          "type": "bool"
        }
      ],
      "name": "setApprovalForAll",
      "outputs": [],
      "stateMutability": "nonpayable",
      "type": "function"
    },
    {
      "inputs": [
        {
          "internalType": "bytes4",
          "name": "interfaceId",
          "type": "bytes4"
        }
      ],
      "name": "supportsInterface",
      "outputs": [
        {
          "internalType": "bool",
          "name": "",
          "type": "bool"
        }
      ],
      "stateMutability": "view",
      "type": "function"
    },
    {
      "inputs": [],
      "name": "symbol",
      "outputs": [
        {
          "internalType": "string",
          "name": "",
          "type": "string"
        }
      ],
      "stateMutability": "view",
      "type": "function"
    },
    {
      "inputs": [
        {
          "internalType": "uint256",
          "name": "tokenId",
          "type": "uint256"
        }
      ],
      "name": "tokenURI",
      "outputs": [
        {
          "internalType": "string",
          "name": "",
          "type": "string"
        }
      ],
      "stateMutability": "view",
      "type": "function"
    },
    {
      "inputs": [
        {
          "internalType": "address",
          "name": "from",
          "type": "address"
        },
        {
          "internalType": "address",
          "name": "to",
          "type": "address"
        },
        {
          "internalType": "uint256",
          "name": "tokenId",
          "type": "uint256"
        }
      ],
      "name": "transferFrom",
      "outputs": [],
      "stateMutability": "nonpayable",
      "type": "function"
    },
    {
      "inputs": [
        {
          "internalType": "uint256",
          "name": "_listingPrice",
          "type": "uint256"
        }
      ],
      "name": "updateListingPrice",
      "outputs": [],
      "stateMutability": "payable",
      "type": "function"
    }
  ],
  "bytecode": "0x60806040526658d15e176280006009553480156200001c57600080fd5b506040518060400160405280601081526020017f4d657461766572736520546f6b656e73000000000000000000000000000000008152506040518060400160405280600481526020017f4d455454000000000000000000000000000000000000000000000000000000008152508160009080519060200190620000a192919062000104565b508060019080519060200190620000ba92919062000104565b50505033600a60006101000a81548173ffffffffffffffffffffffffffffffffffffffff021916908373ffffffffffffffffffffffffffffffffffffffff16021790555062000219565b8280546200011290620001b4565b90600052602060002090601f01602090048101928262000136576000855562000182565b82601f106200015157805160ff191683800117855562000182565b8280016001018555821562000182579182015b828111156200018157825182559160200191906001019062000164565b5b50905062000191919062000195565b5090565b5b80821115620001b057600081600090555060010162000196565b5090565b60006002820490506001821680620001cd57607f821691505b60208210811415620001e457620001e3620001ea565b5b50919050565b7f4e487b7100000000000000000000000000000000000000000000000000000000600052602260045260246000fd5b6142dc80620002296000396000f3fe60806040526004361061012a5760003560e01c80636352211e116100ab578063b88d4fde1161006f578063b88d4fde146103e5578063be9af5361461040e578063c6c9b5b11461042a578063c87b56dd1461045a578063e219fc7514610497578063e985e9c5146104b35761012a565b80636352211e146102fb57806370a082311461033857806395d89b4114610375578063a22cb465146103a0578063ae677aa3146103c95761012a565b806312e85585116100f257806312e8558514610228578063202e37401461025357806323b872dd1461027e57806342842e0e146102a757806345f8fa80146102d05761012a565b806301ffc9a71461012f57806306fdde031461016c578063081812fc14610197578063095ea7b3146101d45780630f08efe0146101fd575b600080fd5b34801561013b57600080fd5b5061015660048036038101906101519190612fcc565b6104f0565b60405161016391906136c7565b60405180910390f35b34801561017857600080fd5b506101816105d2565b60405161018e91906136e2565b60405180910390f35b3480156101a357600080fd5b506101be60048036038101906101b9919061309d565b610664565b6040516101cb91906135e4565b60405180910390f35b3480156101e057600080fd5b506101fb60048036038101906101f69190612f90565b6106aa565b005b34801561020957600080fd5b506102126107c2565b60405161021f91906136a5565b60405180910390f35b34801561023457600080fd5b5061023d610b09565b60405161024a9190613944565b60405180910390f35b34801561025f57600080fd5b50610268610b13565b60405161027591906136a5565b60405180910390f35b34801561028a57600080fd5b506102a560048036038101906102a09190612e8a565b610edf565b005b3480156102b357600080fd5b506102ce60048036038101906102c99190612e8a565b610f3f565b005b3480156102dc57600080fd5b506102e5610f5f565b6040516102f291906136a5565b60405180910390f35b34801561030757600080fd5b50610322600480360381019061031d919061309d565b61132b565b60405161032f91906135e4565b60405180910390f35b34801561034457600080fd5b5061035f600480360381019061035a9190612e25565b6113dd565b60405161036c9190613944565b60405180910390f35b34801561038157600080fd5b5061038a611495565b60405161039791906136e2565b60405180910390f35b3480156103ac57600080fd5b506103c760048036038101906103c29190612f54565b611527565b005b6103e360048036038101906103de919061309d565b61153d565b005b3480156103f157600080fd5b5061040c60048036038101906104079190612ed9565b6115d7565b005b6104286004803603810190610423919061309d565b611639565b005b610444600480360381019061043f919061301e565b611877565b6040516104519190613944565b60405180910390f35b34801561046657600080fd5b50610481600480360381019061047c919061309d565b6118bb565b60405161048e91906136e2565b60405180910390f35b6104b160048036038101906104ac91906130c6565b6119ce565b005b3480156104bf57600080fd5b506104da60048036038101906104d59190612e4e565b611bc3565b6040516104e791906136c7565b60405180910390f35b60007f80ac58cd000000000000000000000000000000000000000000000000000000007bffffffffffffffffffffffffffffffffffffffffffffffffffffffff1916827bffffffffffffffffffffffffffffffffffffffffffffffffffffffff191614806105bb57507f5b5e139f000000000000000000000000000000000000000000000000000000007bffffffffffffffffffffffffffffffffffffffffffffffffffffffff1916827bffffffffffffffffffffffffffffffffffffffffffffffffffffffff1916145b806105cb57506105ca82611c57565b5b9050919050565b6060600080546105e190613bf6565b80601f016020809104026020016040519081016040528092919081815260200182805461060d90613bf6565b801561065a5780601f1061062f5761010080835404028352916020019161065a565b820191906000526020600020905b81548152906001019060200180831161063d57829003601f168201915b5050505050905090565b600061066f82611cc1565b6004600083815260200190815260200160002060009054906101000a900473ffffffffffffffffffffffffffffffffffffffff169050919050565b60006106b58261132b565b90508073ffffffffffffffffffffffffffffffffffffffff168373ffffffffffffffffffffffffffffffffffffffff161415610726576040517f08c379a000000000000000000000000000000000000000000000000000000000815260040161071d906138a4565b60405180910390fd5b8073ffffffffffffffffffffffffffffffffffffffff16610745611d0c565b73ffffffffffffffffffffffffffffffffffffffff16148061077457506107738161076e611d0c565b611bc3565b5b6107b3576040517f08c379a00000000000000000000000000000000000000000000000000000000081526004016107aa90613824565b60405180910390fd5b6107bd8383611d14565b505050565b606060006107d06007611dcd565b905060006107de6008611dcd565b6107e86007611dcd565b6107f29190613afa565b90506000808267ffffffffffffffff811115610837577f4e487b7100000000000000000000000000000000000000000000000000000000600052604160045260246000fd5b60405190808252806020026020018201604052801561087057816020015b61085d612be5565b8152602001906001900390816108555790505b50905060005b84811015610afe573073ffffffffffffffffffffffffffffffffffffffff16600b60006001846108a69190613a73565b815260200190815260200160002060020160009054906101000a900473ffffffffffffffffffffffffffffffffffffffff1673ffffffffffffffffffffffffffffffffffffffff161415610aeb5760006001826109039190613a73565b90506000600b60008381526020019081526020016000209050806040518060c0016040529081600082015481526020016001820160009054906101000a900473ffffffffffffffffffffffffffffffffffffffff1673ffffffffffffffffffffffffffffffffffffffff1673ffffffffffffffffffffffffffffffffffffffff1681526020016002820160009054906101000a900473ffffffffffffffffffffffffffffffffffffffff1673ffffffffffffffffffffffffffffffffffffffff1673ffffffffffffffffffffffffffffffffffffffff168152602001600382015481526020016004820160009054906101000a900460ff16151515158152602001600582018054610a1390613bf6565b80601f0160208091040260200160405190810160405280929190818152602001828054610a3f90613bf6565b8015610a8c5780601f10610a6157610100808354040283529160200191610a8c565b820191906000526020600020905b815481529060010190602001808311610a6f57829003601f168201915b505050505081525050848681518110610ace577f4e487b7100000000000000000000000000000000000000000000000000000000600052603260045260246000fd5b6020026020010181905250600185610ae69190613a73565b945050505b8080610af690613c59565b915050610876565b508094505050505090565b6000600954905090565b60606000610b216007611dcd565b905060008060005b83811015610bca573373ffffffffffffffffffffffffffffffffffffffff16600b6000600184610b599190613a73565b815260200190815260200160002060020160009054906101000a900473ffffffffffffffffffffffffffffffffffffffff1673ffffffffffffffffffffffffffffffffffffffff161415610bb757600183610bb49190613a73565b92505b8080610bc290613c59565b915050610b29565b5060008267ffffffffffffffff811115610c0d577f4e487b7100000000000000000000000000000000000000000000000000000000600052604160045260246000fd5b604051908082528060200260200182016040528015610c4657816020015b610c33612be5565b815260200190600190039081610c2b5790505b50905060005b84811015610ed4573373ffffffffffffffffffffffffffffffffffffffff16600b6000600184610c7c9190613a73565b815260200190815260200160002060020160009054906101000a900473ffffffffffffffffffffffffffffffffffffffff1673ffffffffffffffffffffffffffffffffffffffff161415610ec1576000600182610cd99190613a73565b90506000600b60008381526020019081526020016000209050806040518060c0016040529081600082015481526020016001820160009054906101000a900473ffffffffffffffffffffffffffffffffffffffff1673ffffffffffffffffffffffffffffffffffffffff1673ffffffffffffffffffffffffffffffffffffffff1681526020016002820160009054906101000a900473ffffffffffffffffffffffffffffffffffffffff1673ffffffffffffffffffffffffffffffffffffffff1673ffffffffffffffffffffffffffffffffffffffff168152602001600382015481526020016004820160009054906101000a900460ff16151515158152602001600582018054610de990613bf6565b80601f0160208091040260200160405190810160405280929190818152602001828054610e1590613bf6565b8015610e625780601f10610e3757610100808354040283529160200191610e62565b820191906000526020600020905b815481529060010190602001808311610e4557829003601f168201915b505050505081525050848681518110610ea4577f4e487b7100000000000000000000000000000000000000000000000000000000600052603260045260246000fd5b6020026020010181905250600185610ebc9190613a73565b945050505b8080610ecc90613c59565b915050610c4c565b508094505050505090565b610ef0610eea611d0c565b82611ddb565b610f2f576040517f08c379a0000000000000000000000000000000000000000000000000000000008152600401610f2690613904565b60405180910390fd5b610f3a838383611e70565b505050565b610f5a838383604051806020016040528060008152506115d7565b505050565b60606000610f6d6007611dcd565b905060008060005b83811015611016573373ffffffffffffffffffffffffffffffffffffffff16600b6000600184610fa59190613a73565b815260200190815260200160002060010160009054906101000a900473ffffffffffffffffffffffffffffffffffffffff1673ffffffffffffffffffffffffffffffffffffffff161415611003576001836110009190613a73565b92505b808061100e90613c59565b915050610f75565b5060008267ffffffffffffffff811115611059577f4e487b7100000000000000000000000000000000000000000000000000000000600052604160045260246000fd5b60405190808252806020026020018201604052801561109257816020015b61107f612be5565b8152602001906001900390816110775790505b50905060005b84811015611320573373ffffffffffffffffffffffffffffffffffffffff16600b60006001846110c89190613a73565b815260200190815260200160002060010160009054906101000a900473ffffffffffffffffffffffffffffffffffffffff1673ffffffffffffffffffffffffffffffffffffffff16141561130d5760006001826111259190613a73565b90506000600b60008381526020019081526020016000209050806040518060c0016040529081600082015481526020016001820160009054906101000a900473ffffffffffffffffffffffffffffffffffffffff1673ffffffffffffffffffffffffffffffffffffffff1673ffffffffffffffffffffffffffffffffffffffff1681526020016002820160009054906101000a900473ffffffffffffffffffffffffffffffffffffffff1673ffffffffffffffffffffffffffffffffffffffff1673ffffffffffffffffffffffffffffffffffffffff168152602001600382015481526020016004820160009054906101000a900460ff1615151515815260200160058201805461123590613bf6565b80601f016020809104026020016040519081016040528092919081815260200182805461126190613bf6565b80156112ae5780601f10611283576101008083540402835291602001916112ae565b820191906000526020600020905b81548152906001019060200180831161129157829003601f168201915b5050505050815250508486815181106112f0577f4e487b7100000000000000000000000000000000000000000000000000000000600052603260045260246000fd5b60200260200101819052506001856113089190613a73565b945050505b808061131890613c59565b915050611098565b508094505050505090565b6000806002600084815260200190815260200160002060009054906101000a900473ffffffffffffffffffffffffffffffffffffffff169050600073ffffffffffffffffffffffffffffffffffffffff168173ffffffffffffffffffffffffffffffffffffffff1614156113d4576040517f08c379a00000000000000000000000000000000000000000000000000000000081526004016113cb90613884565b60405180910390fd5b80915050919050565b60008073ffffffffffffffffffffffffffffffffffffffff168273ffffffffffffffffffffffffffffffffffffffff16141561144e576040517f08c379a0000000000000000000000000000000000000000000000000000000008152600401611445906137c4565b60405180910390fd5b600360008373ffffffffffffffffffffffffffffffffffffffff1673ffffffffffffffffffffffffffffffffffffffff168152602001908152602001600020549050919050565b6060600180546114a490613bf6565b80601f01602080910402602001604051908101604052809291908181526020018280546114d090613bf6565b801561151d5780601f106114f25761010080835404028352916020019161151d565b820191906000526020600020905b81548152906001019060200180831161150057829003601f168201915b5050505050905090565b611539611532611d0c565b83836120d7565b5050565b3373ffffffffffffffffffffffffffffffffffffffff16600a60009054906101000a900473ffffffffffffffffffffffffffffffffffffffff1673ffffffffffffffffffffffffffffffffffffffff16146115cd576040517f08c379a00000000000000000000000000000000000000000000000000000000081526004016115c4906138e4565b60405180910390fd5b8060098190555050565b6115e86115e2611d0c565b83611ddb565b611627576040517f08c379a000000000000000000000000000000000000000000000000000000000815260040161161e90613904565b60405180910390fd5b61163384848484612244565b50505050565b6000600b60008381526020019081526020016000206003015490506000600b600084815260200190815260200160002060010160009054906101000a900473ffffffffffffffffffffffffffffffffffffffff1690508134146116d1576040517f08c379a00000000000000000000000000000000000000000000000000000000081526004016116c890613804565b60405180910390fd5b33600b600085815260200190815260200160002060020160006101000a81548173ffffffffffffffffffffffffffffffffffffffff021916908373ffffffffffffffffffffffffffffffffffffffff1602179055506001600b600085815260200190815260200160002060040160006101000a81548160ff0219169083151502179055506000600b600085815260200190815260200160002060010160006101000a81548173ffffffffffffffffffffffffffffffffffffffff021916908373ffffffffffffffffffffffffffffffffffffffff1602179055506117b560086122a0565b6117c0303385611e70565b600a60009054906101000a900473ffffffffffffffffffffffffffffffffffffffff1673ffffffffffffffffffffffffffffffffffffffff166108fc6009549081150290604051600060405180830381858888f1935050505015801561182a573d6000803e3d6000fd5b508073ffffffffffffffffffffffffffffffffffffffff166108fc349081150290604051600060405180830381858888f19350505050158015611871573d6000803e3d6000fd5b50505050565b600061188360076122a0565b600061188f6007611dcd565b905061189b33826122b6565b6118a58186612490565b6118b0818585612504565b809150509392505050565b60606118c682611cc1565b60006006600084815260200190815260200160002080546118e690613bf6565b80601f016020809104026020016040519081016040528092919081815260200182805461191290613bf6565b801561195f5780601f106119345761010080835404028352916020019161195f565b820191906000526020600020905b81548152906001019060200180831161194257829003601f168201915b50505050509050600061197061272d565b90506000815114156119865781925050506119c9565b6000825111156119bb5780826040516020016119a39291906135c0565b604051602081830303815290604052925050506119c9565b6119c484612744565b925050505b919050565b3373ffffffffffffffffffffffffffffffffffffffff16600b600084815260200190815260200160002060020160009054906101000a900473ffffffffffffffffffffffffffffffffffffffff1673ffffffffffffffffffffffffffffffffffffffff1614611a72576040517f08c379a0000000000000000000000000000000000000000000000000000000008152600401611a6990613864565b60405180910390fd5b6009543414611ab6576040517f08c379a0000000000000000000000000000000000000000000000000000000008152600401611aad906138c4565b60405180910390fd5b6000600b600084815260200190815260200160002060040160006101000a81548160ff02191690831515021790555080600b60008481526020019081526020016000206003018190555033600b600084815260200190815260200160002060010160006101000a81548173ffffffffffffffffffffffffffffffffffffffff021916908373ffffffffffffffffffffffffffffffffffffffff16021790555030600b600084815260200190815260200160002060020160006101000a81548173ffffffffffffffffffffffffffffffffffffffff021916908373ffffffffffffffffffffffffffffffffffffffff160217905550611bb460086127ac565b611bbf333084611e70565b5050565b6000600560008473ffffffffffffffffffffffffffffffffffffffff1673ffffffffffffffffffffffffffffffffffffffff16815260200190815260200160002060008373ffffffffffffffffffffffffffffffffffffffff1673ffffffffffffffffffffffffffffffffffffffff16815260200190815260200160002060009054906101000a900460ff16905092915050565b60007f01ffc9a7000000000000000000000000000000000000000000000000000000007bffffffffffffffffffffffffffffffffffffffffffffffffffffffff1916827bffffffffffffffffffffffffffffffffffffffffffffffffffffffff1916149050919050565b611cca81612808565b611d09576040517f08c379a0000000000000000000000000000000000000000000000000000000008152600401611d0090613884565b60405180910390fd5b50565b600033905090565b816004600083815260200190815260200160002060006101000a81548173ffffffffffffffffffffffffffffffffffffffff021916908373ffffffffffffffffffffffffffffffffffffffff160217905550808273ffffffffffffffffffffffffffffffffffffffff16611d878361132b565b73ffffffffffffffffffffffffffffffffffffffff167f8c5be1e5ebec7d5bd14f71427d1e84f3dd0314c0f7b2291e5b200ac8c7c3b92560405160405180910390a45050565b600081600001549050919050565b600080611de78361132b565b90508073ffffffffffffffffffffffffffffffffffffffff168473ffffffffffffffffffffffffffffffffffffffff161480611e295750611e288185611bc3565b5b80611e6757508373ffffffffffffffffffffffffffffffffffffffff16611e4f84610664565b73ffffffffffffffffffffffffffffffffffffffff16145b91505092915050565b8273ffffffffffffffffffffffffffffffffffffffff16611e908261132b565b73ffffffffffffffffffffffffffffffffffffffff1614611ee6576040517f08c379a0000000000000000000000000000000000000000000000000000000008152600401611edd90613744565b60405180910390fd5b600073ffffffffffffffffffffffffffffffffffffffff168273ffffffffffffffffffffffffffffffffffffffff161415611f56576040517f08c379a0000000000000000000000000000000000000000000000000000000008152600401611f4d90613784565b60405180910390fd5b611f61838383612874565b611f6c600082611d14565b6001600360008573ffffffffffffffffffffffffffffffffffffffff1673ffffffffffffffffffffffffffffffffffffffff1681526020019081526020016000206000828254611fbc9190613afa565b925050819055506001600360008473ffffffffffffffffffffffffffffffffffffffff1673ffffffffffffffffffffffffffffffffffffffff16815260200190815260200160002060008282546120139190613a73565b92505081905550816002600083815260200190815260200160002060006101000a81548173ffffffffffffffffffffffffffffffffffffffff021916908373ffffffffffffffffffffffffffffffffffffffff160217905550808273ffffffffffffffffffffffffffffffffffffffff168473ffffffffffffffffffffffffffffffffffffffff167fddf252ad1be2c89b69c2b068fc378daa952ba7f163c4a11628f55a4df523b3ef60405160405180910390a46120d2838383612879565b505050565b8173ffffffffffffffffffffffffffffffffffffffff168373ffffffffffffffffffffffffffffffffffffffff161415612146576040517f08c379a000000000000000000000000000000000000000000000000000000000815260040161213d906137a4565b60405180910390fd5b80600560008573ffffffffffffffffffffffffffffffffffffffff1673ffffffffffffffffffffffffffffffffffffffff16815260200190815260200160002060008473ffffffffffffffffffffffffffffffffffffffff1673ffffffffffffffffffffffffffffffffffffffff16815260200190815260200160002060006101000a81548160ff0219169083151502179055508173ffffffffffffffffffffffffffffffffffffffff168373ffffffffffffffffffffffffffffffffffffffff167f17307eab39ab6107e8899845ad3d59bd9653f200f220920489ca2b5937696c318360405161223791906136c7565b60405180910390a3505050565b61224f848484611e70565b61225b8484848461287e565b61229a576040517f08c379a000000000000000000000000000000000000000000000000000000000815260040161229190613724565b60405180910390fd5b50505050565b6001816000016000828254019250508190555050565b600073ffffffffffffffffffffffffffffffffffffffff168273ffffffffffffffffffffffffffffffffffffffff161415612326576040517f08c379a000000000000000000000000000000000000000000000000000000000815260040161231d90613844565b60405180910390fd5b61232f81612808565b1561236f576040517f08c379a000000000000000000000000000000000000000000000000000000000815260040161236690613764565b60405180910390fd5b61237b60008383612874565b6001600360008473ffffffffffffffffffffffffffffffffffffffff1673ffffffffffffffffffffffffffffffffffffffff16815260200190815260200160002060008282546123cb9190613a73565b92505081905550816002600083815260200190815260200160002060006101000a81548173ffffffffffffffffffffffffffffffffffffffff021916908373ffffffffffffffffffffffffffffffffffffffff160217905550808273ffffffffffffffffffffffffffffffffffffffff16600073ffffffffffffffffffffffffffffffffffffffff167fddf252ad1be2c89b69c2b068fc378daa952ba7f163c4a11628f55a4df523b3ef60405160405180910390a461248c60008383612879565b5050565b61249982612808565b6124d8576040517f08c379a00000000000000000000000000000000000000000000000000000000081526004016124cf906137e4565b60405180910390fd5b806006600084815260200190815260200160002090805190602001906124ff929190612c49565b505050565b60008211612547576040517f08c379a000000000000000000000000000000000000000000000000000000000815260040161253e90613924565b60405180910390fd5b600954341461258b576040517f08c379a0000000000000000000000000000000000000000000000000000000008152600401612582906138c4565b60405180910390fd5b6040518060c001604052808481526020013373ffffffffffffffffffffffffffffffffffffffff1681526020013073ffffffffffffffffffffffffffffffffffffffff16815260200183815260200160001515815260200182815250600b60008581526020019081526020016000206000820151816000015560208201518160010160006101000a81548173ffffffffffffffffffffffffffffffffffffffff021916908373ffffffffffffffffffffffffffffffffffffffff16021790555060408201518160020160006101000a81548173ffffffffffffffffffffffffffffffffffffffff021916908373ffffffffffffffffffffffffffffffffffffffff1602179055506060820151816003015560808201518160040160006101000a81548160ff02191690831515021790555060a08201518160050190805190602001906126d8929190612c49565b509050506126e7333085611e70565b827fddaeb01fb1ddce9789e64660541353c5a90fdd3e87ad074757173128396df0213330856000866040516127209594939291906135ff565b60405180910390a2505050565b606060405180602001604052806000815250905090565b606061274f82611cc1565b600061275961272d565b9050600081511161277957604051806020016040528060008152506127a4565b8061278384612a15565b6040516020016127949291906135c0565b6040516020818303038152906040525b915050919050565b600081600001549050600081116127f8576040517f08c379a00000000000000000000000000000000000000000000000000000000081526004016127ef90613704565b60405180910390fd5b6001810382600001819055505050565b60008073ffffffffffffffffffffffffffffffffffffffff166002600084815260200190815260200160002060009054906101000a900473ffffffffffffffffffffffffffffffffffffffff1673ffffffffffffffffffffffffffffffffffffffff1614159050919050565b505050565b505050565b600061289f8473ffffffffffffffffffffffffffffffffffffffff16612bc2565b15612a08578373ffffffffffffffffffffffffffffffffffffffff1663150b7a026128c8611d0c565b8786866040518563ffffffff1660e01b81526004016128ea9493929190613659565b602060405180830381600087803b15801561290457600080fd5b505af192505050801561293557506040513d601f19601f820116820180604052508101906129329190612ff5565b60015b6129b8573d8060008114612965576040519150601f19603f3d011682016040523d82523d6000602084013e61296a565b606091505b506000815114156129b0576040517f08c379a00000000000000000000000000000000000000000000000000000000081526004016129a790613724565b60405180910390fd5b805181602001fd5b63150b7a0260e01b7bffffffffffffffffffffffffffffffffffffffffffffffffffffffff1916817bffffffffffffffffffffffffffffffffffffffffffffffffffffffff191614915050612a0d565b600190505b949350505050565b60606000821415612a5d576040518060400160405280600181526020017f30000000000000000000000000000000000000000000000000000000000000008152509050612bbd565b600082905060005b60008214612a8f578080612a7890613c59565b915050600a82612a889190613ac9565b9150612a65565b60008167ffffffffffffffff811115612ad1577f4e487b7100000000000000000000000000000000000000000000000000000000600052604160045260246000fd5b6040519080825280601f01601f191660200182016040528015612b035781602001600182028036833780820191505090505b5090505b60008514612bb657600182612b1c9190613afa565b9150600a85612b2b9190613ca2565b6030612b379190613a73565b60f81b818381518110612b73577f4e487b7100000000000000000000000000000000000000000000000000000000600052603260045260246000fd5b60200101907effffffffffffffffffffffffffffffffffffffffffffffffffffffffffffff1916908160001a905350600a85612baf9190613ac9565b9450612b07565b8093505050505b919050565b6000808273ffffffffffffffffffffffffffffffffffffffff163b119050919050565b6040518060c0016040528060008152602001600073ffffffffffffffffffffffffffffffffffffffff168152602001600073ffffffffffffffffffffffffffffffffffffffff16815260200160008152602001600015158152602001606081525090565b828054612c5590613bf6565b90600052602060002090601f016020900481019282612c775760008555612cbe565b82601f10612c9057805160ff1916838001178555612cbe565b82800160010185558215612cbe579182015b82811115612cbd578251825591602001919060010190612ca2565b5b509050612ccb9190612ccf565b5090565b5b80821115612ce8576000816000905550600101612cd0565b5090565b6000612cff612cfa84613984565b61395f565b905082815260208101848484011115612d1757600080fd5b612d22848285613bb4565b509392505050565b6000612d3d612d38846139b5565b61395f565b905082815260208101848484011115612d5557600080fd5b612d60848285613bb4565b509392505050565b600081359050612d778161424a565b92915050565b600081359050612d8c81614261565b92915050565b600081359050612da181614278565b92915050565b600081519050612db681614278565b92915050565b600082601f830112612dcd57600080fd5b8135612ddd848260208601612cec565b91505092915050565b600082601f830112612df757600080fd5b8135612e07848260208601612d2a565b91505092915050565b600081359050612e1f8161428f565b92915050565b600060208284031215612e3757600080fd5b6000612e4584828501612d68565b91505092915050565b60008060408385031215612e6157600080fd5b6000612e6f85828601612d68565b9250506020612e8085828601612d68565b9150509250929050565b600080600060608486031215612e9f57600080fd5b6000612ead86828701612d68565b9350506020612ebe86828701612d68565b9250506040612ecf86828701612e10565b9150509250925092565b60008060008060808587031215612eef57600080fd5b6000612efd87828801612d68565b9450506020612f0e87828801612d68565b9350506040612f1f87828801612e10565b925050606085013567ffffffffffffffff811115612f3c57600080fd5b612f4887828801612dbc565b91505092959194509250565b60008060408385031215612f6757600080fd5b6000612f7585828601612d68565b9250506020612f8685828601612d7d565b9150509250929050565b60008060408385031215612fa357600080fd5b6000612fb185828601612d68565b9250506020612fc285828601612e10565b9150509250929050565b600060208284031215612fde57600080fd5b6000612fec84828501612d92565b91505092915050565b60006020828403121561300757600080fd5b600061301584828501612da7565b91505092915050565b60008060006060848603121561303357600080fd5b600084013567ffffffffffffffff81111561304d57600080fd5b61305986828701612de6565b935050602061306a86828701612e10565b925050604084013567ffffffffffffffff81111561308757600080fd5b61309386828701612de6565b9150509250925092565b6000602082840312156130af57600080fd5b60006130bd84828501612e10565b91505092915050565b600080604083850312156130d957600080fd5b60006130e785828601612e10565b92505060206130f885828601612e10565b9150509250929050565b600061310e8383613519565b905092915050565b61311f81613b40565b82525050565b61312e81613b2e565b82525050565b600061313f826139f6565b6131498185613a24565b93508360208202850161315b856139e6565b8060005b8581101561319757848403895281516131788582613102565b945061318383613a17565b925060208a0199505060018101905061315f565b50829750879550505050505092915050565b6131b281613b52565b82525050565b6131c181613b52565b82525050565b60006131d282613a01565b6131dc8185613a35565b93506131ec818560208601613bc3565b6131f581613d8f565b840191505092915050565b600061320b82613a0c565b6132158185613a46565b9350613225818560208601613bc3565b61322e81613d8f565b840191505092915050565b600061324482613a0c565b61324e8185613a57565b935061325e818560208601613bc3565b61326781613d8f565b840191505092915050565b600061327d82613a0c565b6132878185613a68565b9350613297818560208601613bc3565b80840191505092915050565b60006132b0601b83613a57565b91506132bb82613da0565b602082019050919050565b60006132d3603283613a57565b91506132de82613dc9565b604082019050919050565b60006132f6602583613a57565b915061330182613e18565b604082019050919050565b6000613319601c83613a57565b915061332482613e67565b602082019050919050565b600061333c602483613a57565b915061334782613e90565b604082019050919050565b600061335f601983613a57565b915061336a82613edf565b602082019050919050565b6000613382602983613a57565b915061338d82613f08565b604082019050919050565b60006133a5602e83613a57565b91506133b082613f57565b604082019050919050565b60006133c8604083613a57565b91506133d382613fa6565b604082019050919050565b60006133eb603e83613a57565b91506133f682613ff5565b604082019050919050565b600061340e602083613a57565b915061341982614044565b602082019050919050565b6000613431602a83613a57565b915061343c8261406d565b604082019050919050565b6000613454601883613a57565b915061345f826140bc565b602082019050919050565b6000613477602183613a57565b9150613482826140e5565b604082019050919050565b600061349a602483613a57565b91506134a582614134565b604082019050919050565b60006134bd603083613a57565b91506134c882614183565b604082019050919050565b60006134e0602e83613a57565b91506134eb826141d2565b604082019050919050565b6000613503601c83613a57565b915061350e82614221565b602082019050919050565b600060c08301600083015161353160008601826135a2565b5060208301516135446020860182613116565b5060408301516135576040860182613116565b50606083015161356a60608601826135a2565b50608083015161357d60808601826131a9565b5060a083015184820360a08601526135958282613200565b9150508091505092915050565b6135ab81613baa565b82525050565b6135ba81613baa565b82525050565b60006135cc8285613272565b91506135d88284613272565b91508190509392505050565b60006020820190506135f96000830184613125565b92915050565b600060a0820190506136146000830188613125565b6136216020830187613125565b61362e60408301866135b1565b61363b60608301856131b8565b818103608083015261364d8184613239565b90509695505050505050565b600060808201905061366e6000830187613125565b61367b6020830186613125565b61368860408301856135b1565b818103606083015261369a81846131c7565b905095945050505050565b600060208201905081810360008301526136bf8184613134565b905092915050565b60006020820190506136dc60008301846131b8565b92915050565b600060208201905081810360008301526136fc8184613239565b905092915050565b6000602082019050818103600083015261371d816132a3565b9050919050565b6000602082019050818103600083015261373d816132c6565b9050919050565b6000602082019050818103600083015261375d816132e9565b9050919050565b6000602082019050818103600083015261377d8161330c565b9050919050565b6000602082019050818103600083015261379d8161332f565b9050919050565b600060208201905081810360008301526137bd81613352565b9050919050565b600060208201905081810360008301526137dd81613375565b9050919050565b600060208201905081810360008301526137fd81613398565b9050919050565b6000602082019050818103600083015261381d816133bb565b9050919050565b6000602082019050818103600083015261383d816133de565b9050919050565b6000602082019050818103600083015261385d81613401565b9050919050565b6000602082019050818103600083015261387d81613424565b9050919050565b6000602082019050818103600083015261389d81613447565b9050919050565b600060208201905081810360008301526138bd8161346a565b9050919050565b600060208201905081810360008301526138dd8161348d565b9050919050565b600060208201905081810360008301526138fd816134b0565b9050919050565b6000602082019050818103600083015261391d816134d3565b9050919050565b6000602082019050818103600083015261393d816134f6565b9050919050565b600060208201905061395960008301846135b1565b92915050565b600061396961397a565b90506139758282613c28565b919050565b6000604051905090565b600067ffffffffffffffff82111561399f5761399e613d60565b5b6139a882613d8f565b9050602081019050919050565b600067ffffffffffffffff8211156139d0576139cf613d60565b5b6139d982613d8f565b9050602081019050919050565b6000819050602082019050919050565b600081519050919050565b600081519050919050565b600081519050919050565b6000602082019050919050565b600082825260208201905092915050565b600082825260208201905092915050565b600082825260208201905092915050565b600082825260208201905092915050565b600081905092915050565b6000613a7e82613baa565b9150613a8983613baa565b9250827fffffffffffffffffffffffffffffffffffffffffffffffffffffffffffffffff03821115613abe57613abd613cd3565b5b828201905092915050565b6000613ad482613baa565b9150613adf83613baa565b925082613aef57613aee613d02565b5b828204905092915050565b6000613b0582613baa565b9150613b1083613baa565b925082821015613b2357613b22613cd3565b5b828203905092915050565b6000613b3982613b8a565b9050919050565b6000613b4b82613b8a565b9050919050565b60008115159050919050565b60007fffffffff0000000000000000000000000000000000000000000000000000000082169050919050565b600073ffffffffffffffffffffffffffffffffffffffff82169050919050565b6000819050919050565b82818337600083830152505050565b60005b83811015613be1578082015181840152602081019050613bc6565b83811115613bf0576000848401525b50505050565b60006002820490506001821680613c0e57607f821691505b60208210811415613c2257613c21613d31565b5b50919050565b613c3182613d8f565b810181811067ffffffffffffffff82111715613c5057613c4f613d60565b5b80604052505050565b6000613c6482613baa565b91507fffffffffffffffffffffffffffffffffffffffffffffffffffffffffffffffff821415613c9757613c96613cd3565b5b600182019050919050565b6000613cad82613baa565b9150613cb883613baa565b925082613cc857613cc7613d02565b5b828206905092915050565b7f4e487b7100000000000000000000000000000000000000000000000000000000600052601160045260246000fd5b7f4e487b7100000000000000000000000000000000000000000000000000000000600052601260045260246000fd5b7f4e487b7100000000000000000000000000000000000000000000000000000000600052602260045260246000fd5b7f4e487b7100000000000000000000000000000000000000000000000000000000600052604160045260246000fd5b6000601f19601f8301169050919050565b7f436f756e7465723a2064656372656d656e74206f766572666c6f770000000000600082015250565b7f4552433732313a207472616e7366657220746f206e6f6e20455243373231526560008201527f63656976657220696d706c656d656e7465720000000000000000000000000000602082015250565b7f4552433732313a207472616e736665722066726f6d20696e636f72726563742060008201527f6f776e6572000000000000000000000000000000000000000000000000000000602082015250565b7f4552433732313a20746f6b656e20616c7265616479206d696e74656400000000600082015250565b7f4552433732313a207472616e7366657220746f20746865207a65726f2061646460008201527f7265737300000000000000000000000000000000000000000000000000000000602082015250565b7f4552433732313a20617070726f766520746f2063616c6c657200000000000000600082015250565b7f4552433732313a2061646472657373207a65726f206973206e6f74206120766160008201527f6c6964206f776e65720000000000000000000000000000000000000000000000602082015250565b7f45524337323155524953746f726167653a2055524920736574206f66206e6f6e60008201527f6578697374656e7420746f6b656e000000000000000000000000000000000000602082015250565b7f506c65617365207375626d6974207468652061736b696e67207072696365206960008201527f6e206f7264657220746f20636f6d706c65746520746865207075726368617365602082015250565b7f4552433732313a20617070726f76652063616c6c6572206973206e6f7420746f60008201527f6b656e206f776e6572206e6f7220617070726f76656420666f7220616c6c0000602082015250565b7f4552433732313a206d696e7420746f20746865207a65726f2061646472657373600082015250565b7f4f6e6c79206974656d206f776e65722063616e20706572666f726d207468697360008201527f206f7065726174696f6e00000000000000000000000000000000000000000000602082015250565b7f4552433732313a20696e76616c696420746f6b656e2049440000000000000000600082015250565b7f4552433732313a20617070726f76616c20746f2063757272656e74206f776e6560008201527f7200000000000000000000000000000000000000000000000000000000000000602082015250565b7f5072696365206d75737420626520657175616c20746f206c697374696e67207060008201527f7269636500000000000000000000000000000000000000000000000000000000602082015250565b7f4f6e6c79206d61726b6574706c616365206f776e65722063616e20757064617460008201527f65206c697374696e672070726963652e00000000000000000000000000000000602082015250565b7f4552433732313a2063616c6c6572206973206e6f7420746f6b656e206f776e6560008201527f72206e6f7220617070726f766564000000000000000000000000000000000000602082015250565b7f5072696365206d757374206265206174206c6561737420312077656900000000600082015250565b61425381613b2e565b811461425e57600080fd5b50565b61426a81613b52565b811461427557600080fd5b50565b61428181613b5e565b811461428c57600080fd5b50565b61429881613baa565b81146142a357600080fd5b5056fea2646970667358221220b9bc4054a1b3d61cc36e5f5730135c93567ca2c4f4eee4ad08ae83b0684b1f6964736f6c63430008040033",
  "linkReferences": {},
  "deployedLinkReferences": {}
}